{
  "contractName": "BoostingStorage",
  "abi": [
    {
      "inputs": [],
      "name": "NFTAddress",
      "outputs": [
        {
          "internalType": "address",
          "name": "",
          "type": "address"
        }
      ],
      "stateMutability": "view",
      "type": "function"
    },
    {
      "inputs": [],
      "name": "baseBoost",
      "outputs": [
        {
          "internalType": "uint256",
          "name": "",
          "type": "uint256"
        }
      ],
      "stateMutability": "view",
      "type": "function"
    },
    {
      "inputs": [],
      "name": "increaseBoost",
      "outputs": [
        {
          "internalType": "uint256",
          "name": "",
          "type": "uint256"
        }
      ],
      "stateMutability": "view",
      "type": "function"
    },
    {
      "inputs": [],
      "name": "maxLockDays",
      "outputs": [
        {
          "internalType": "uint256",
          "name": "",
          "type": "uint256"
        }
      ],
      "stateMutability": "view",
      "type": "function"
    },
    {
      "inputs": [],
      "name": "minLockDays",
      "outputs": [
        {
          "internalType": "uint256",
          "name": "",
          "type": "uint256"
        }
      ],
      "stateMutability": "view",
      "type": "function"
    },
    {
      "inputs": [
        {
          "internalType": "uint256",
          "name": "",
          "type": "uint256"
        },
        {
          "internalType": "address",
          "name": "",
          "type": "address"
        }
      ],
      "name": "userInfo",
      "outputs": [
        {
          "internalType": "uint256",
          "name": "startTime",
          "type": "uint256"
        },
        {
          "internalType": "uint256",
          "name": "lockTime",
          "type": "uint256"
        },
        {
          "internalType": "uint256",
          "name": "tokenId",
          "type": "uint256"
        }
      ],
      "stateMutability": "view",
      "type": "function"
    }
  ],
  "bytecode": "0x608060405234801561001057600080fd5b5061018c806100206000396000f3fe608060405234801561001057600080fd5b50600436106100625760003560e01c8063310c87cc1461006757806393f1a40b1461008b578063d781ab6c146100d5578063db99a530146100ef578063eb6c6fa9146100f7578063eceae7c3146100ff575b600080fd5b61006f610107565b604080516001600160a01b039092168252519081900360200190f35b6100b7600480360360408110156100a157600080fd5b50803590602001356001600160a01b0316610116565b60408051938452602084019290925282820152519081900360600190f35b6100dd61013e565b60408051918252519081900360200190f35b6100dd610144565b6100dd61014a565b6100dd610150565b6000546001600160a01b031681565b6001602081815260009384526040808520909152918352912080549181015460029091015483565b60045481565b60055481565b60035481565b6002548156fea26469706673582212206564ab4dea0d9e3f94e6024c513f8812396ece2ac1dfd418b520c3dcd19501cc64736f6c634300060c0033",
  "immutableReferences": {},
  "source": "// SPDX-License-Identifier: MIT\npragma solidity 0.6.12;\n\nimport \"@openzeppelin/contracts/math/SafeMath.sol\";\n\ncontract BoostingStorage {\n    using SafeMath for uint256;\n\n    // Info of each user.\n    struct UserInfo {\n        uint256 startTime;\n        uint256 lockTime;\n        // Staked NFT Information\n        uint256 tokenId;\n    }\n\n    // NFT contract address\n    address public NFTAddress;\n\n    // storage all users info\n    mapping (uint => mapping (address => UserInfo)) public userInfo;\n\n    uint public minLockDays;\n\n    uint public maxLockDays;\n\n    uint public baseBoost;\n\n    uint public increaseBoost;\n}\n",
  "sourcePath": "/mnt/d/Zoo/zoo-keeper-contracts-main/contracts/Boosting/BoostingStorage.sol",
  "compiler": {
    "name": "solc",
    "version": "0.6.12+commit.27d51765.Emscripten.clang"
  },
  "schemaVersion": "3.3.4",
  "updatedAt": "2021-12-10T08:12:25.588Z",
  "devdoc": {
    "kind": "dev",
    "methods": {},
    "version": 1
  },
  "userdoc": {
    "kind": "user",
    "methods": {},
    "version": 1
  }
}