{
  "contractName": "BoostingDelegate",
  "abi": [
    {
      "anonymous": false,
      "inputs": [
        {
          "indexed": true,
          "internalType": "uint256",
          "name": "_pid",
          "type": "uint256"
        },
        {
          "indexed": true,
          "internalType": "address",
          "name": "_user",
          "type": "address"
        },
        {
          "indexed": false,
          "internalType": "uint256",
          "name": "_lockTime",
          "type": "uint256"
        },
        {
          "indexed": false,
          "internalType": "uint256",
          "name": "_tokenId",
          "type": "uint256"
        }
      ],
      "name": "BoostingDeposit",
      "type": "event"
    },
    {
      "anonymous": false,
      "inputs": [
        {
          "indexed": true,
          "internalType": "uint256",
          "name": "_pid",
          "type": "uint256"
        },
        {
          "indexed": true,
          "internalType": "address",
          "name": "_user",
          "type": "address"
        }
      ],
      "name": "BoostingWithdraw",
      "type": "event"
    },
    {
      "anonymous": false,
      "inputs": [
        {
          "indexed": true,
          "internalType": "bytes32",
          "name": "role",
          "type": "bytes32"
        },
        {
          "indexed": true,
          "internalType": "bytes32",
          "name": "previousAdminRole",
          "type": "bytes32"
        },
        {
          "indexed": true,
          "internalType": "bytes32",
          "name": "newAdminRole",
          "type": "bytes32"
        }
      ],
      "name": "RoleAdminChanged",
      "type": "event"
    },
    {
      "anonymous": false,
      "inputs": [
        {
          "indexed": true,
          "internalType": "bytes32",
          "name": "role",
          "type": "bytes32"
        },
        {
          "indexed": true,
          "internalType": "address",
          "name": "account",
          "type": "address"
        },
        {
          "indexed": true,
          "internalType": "address",
          "name": "sender",
          "type": "address"
        }
      ],
      "name": "RoleGranted",
      "type": "event"
    },
    {
      "anonymous": false,
      "inputs": [
        {
          "indexed": true,
          "internalType": "bytes32",
          "name": "role",
          "type": "bytes32"
        },
        {
          "indexed": true,
          "internalType": "address",
          "name": "account",
          "type": "address"
        },
        {
          "indexed": true,
          "internalType": "address",
          "name": "sender",
          "type": "address"
        }
      ],
      "name": "RoleRevoked",
      "type": "event"
    },
    {
      "inputs": [],
      "name": "DEFAULT_ADMIN_ROLE",
      "outputs": [
        {
          "internalType": "bytes32",
          "name": "",
          "type": "bytes32"
        }
      ],
      "stateMutability": "view",
      "type": "function",
      "constant": true
    },
    {
      "inputs": [],
      "name": "MULTIPLIER_SCALE",
      "outputs": [
        {
          "internalType": "uint256",
          "name": "",
          "type": "uint256"
        }
      ],
      "stateMutability": "view",
      "type": "function",
      "constant": true
    },
    {
      "inputs": [],
      "name": "NFTAddress",
      "outputs": [
        {
          "internalType": "address",
          "name": "",
          "type": "address"
        }
      ],
      "stateMutability": "view",
      "type": "function",
      "constant": true
    },
    {
      "inputs": [],
      "name": "ZOO_FARMING_ROLE",
      "outputs": [
        {
          "internalType": "bytes32",
          "name": "",
          "type": "bytes32"
        }
      ],
      "stateMutability": "view",
      "type": "function",
      "constant": true
    },
    {
      "inputs": [],
      "name": "baseBoost",
      "outputs": [
        {
          "internalType": "uint256",
          "name": "",
          "type": "uint256"
        }
      ],
      "stateMutability": "view",
      "type": "function",
      "constant": true
    },
    {
      "inputs": [
        {
          "internalType": "bytes32",
          "name": "role",
          "type": "bytes32"
        }
      ],
      "name": "getRoleAdmin",
      "outputs": [
        {
          "internalType": "bytes32",
          "name": "",
          "type": "bytes32"
        }
      ],
      "stateMutability": "view",
      "type": "function",
      "constant": true
    },
    {
      "inputs": [
        {
          "internalType": "bytes32",
          "name": "role",
          "type": "bytes32"
        },
        {
          "internalType": "uint256",
          "name": "index",
          "type": "uint256"
        }
      ],
      "name": "getRoleMember",
      "outputs": [
        {
          "internalType": "address",
          "name": "",
          "type": "address"
        }
      ],
      "stateMutability": "view",
      "type": "function",
      "constant": true
    },
    {
      "inputs": [
        {
          "internalType": "bytes32",
          "name": "role",
          "type": "bytes32"
        }
      ],
      "name": "getRoleMemberCount",
      "outputs": [
        {
          "internalType": "uint256",
          "name": "",
          "type": "uint256"
        }
      ],
      "stateMutability": "view",
      "type": "function",
      "constant": true
    },
    {
      "inputs": [
        {
          "internalType": "bytes32",
          "name": "role",
          "type": "bytes32"
        },
        {
          "internalType": "address",
          "name": "account",
          "type": "address"
        }
      ],
      "name": "grantRole",
      "outputs": [],
      "stateMutability": "nonpayable",
      "type": "function"
    },
    {
      "inputs": [
        {
          "internalType": "bytes32",
          "name": "role",
          "type": "bytes32"
        },
        {
          "internalType": "address",
          "name": "account",
          "type": "address"
        }
      ],
      "name": "hasRole",
      "outputs": [
        {
          "internalType": "bool",
          "name": "",
          "type": "bool"
        }
      ],
      "stateMutability": "view",
      "type": "function",
      "constant": true
    },
    {
      "inputs": [],
      "name": "increaseBoost",
      "outputs": [
        {
          "internalType": "uint256",
          "name": "",
          "type": "uint256"
        }
      ],
      "stateMutability": "view",
      "type": "function",
      "constant": true
    },
    {
      "inputs": [],
      "name": "maxLockDays",
      "outputs": [
        {
          "internalType": "uint256",
          "name": "",
          "type": "uint256"
        }
      ],
      "stateMutability": "view",
      "type": "function",
      "constant": true
    },
    {
      "inputs": [],
      "name": "minLockDays",
      "outputs": [
        {
          "internalType": "uint256",
          "name": "",
          "type": "uint256"
        }
      ],
      "stateMutability": "view",
      "type": "function",
      "constant": true
    },
    {
      "inputs": [
        {
          "internalType": "address",
          "name": "",
          "type": "address"
        },
        {
          "internalType": "address",
          "name": "",
          "type": "address"
        },
        {
          "internalType": "uint256",
          "name": "",
          "type": "uint256"
        },
        {
          "internalType": "bytes",
          "name": "",
          "type": "bytes"
        }
      ],
      "name": "onERC721Received",
      "outputs": [
        {
          "internalType": "bytes4",
          "name": "",
          "type": "bytes4"
        }
      ],
      "stateMutability": "nonpayable",
      "type": "function"
    },
    {
      "inputs": [
        {
          "internalType": "bytes32",
          "name": "role",
          "type": "bytes32"
        },
        {
          "internalType": "address",
          "name": "account",
          "type": "address"
        }
      ],
      "name": "renounceRole",
      "outputs": [],
      "stateMutability": "nonpayable",
      "type": "function"
    },
    {
      "inputs": [
        {
          "internalType": "bytes32",
          "name": "role",
          "type": "bytes32"
        },
        {
          "internalType": "address",
          "name": "account",
          "type": "address"
        }
      ],
      "name": "revokeRole",
      "outputs": [],
      "stateMutability": "nonpayable",
      "type": "function"
    },
    {
      "inputs": [
        {
          "internalType": "uint256",
          "name": "",
          "type": "uint256"
        },
        {
          "internalType": "address",
          "name": "",
          "type": "address"
        }
      ],
      "name": "userInfo",
      "outputs": [
        {
          "internalType": "uint256",
          "name": "startTime",
          "type": "uint256"
        },
        {
          "internalType": "uint256",
          "name": "lockTime",
          "type": "uint256"
        },
        {
          "internalType": "uint256",
          "name": "tokenId",
          "type": "uint256"
        }
      ],
      "stateMutability": "view",
      "type": "function",
      "constant": true
    },
    {
      "inputs": [
        {
          "internalType": "address",
          "name": "admin",
          "type": "address"
        }
      ],
      "name": "initialize",
      "outputs": [],
      "stateMutability": "payable",
      "type": "function",
      "payable": true
    },
    {
      "inputs": [
        {
          "internalType": "address",
          "name": "_farmingAddr",
          "type": "address"
        }
      ],
      "name": "setFarmingAddr",
      "outputs": [],
      "stateMutability": "nonpayable",
      "type": "function"
    },
    {
      "inputs": [
        {
          "internalType": "address",
          "name": "_NFTAddress",
          "type": "address"
        }
      ],
      "name": "setNFTAddress",
      "outputs": [],
      "stateMutability": "nonpayable",
      "type": "function"
    },
    {
      "inputs": [
        {
          "internalType": "uint256",
          "name": "_minLockDays",
          "type": "uint256"
        },
        {
          "internalType": "uint256",
          "name": "_baseBoost",
          "type": "uint256"
        },
        {
          "internalType": "uint256",
          "name": "_increaseBoost",
          "type": "uint256"
        }
      ],
      "name": "setBoostScale",
      "outputs": [],
      "stateMutability": "nonpayable",
      "type": "function"
    },
    {
      "inputs": [
        {
          "internalType": "uint256",
          "name": "_maxLockDays",
          "type": "uint256"
        }
      ],
      "name": "setMaxLockDays",
      "outputs": [],
      "stateMutability": "nonpayable",
      "type": "function"
    },
    {
      "inputs": [
        {
          "internalType": "uint256",
          "name": "_pid",
          "type": "uint256"
        },
        {
          "internalType": "address",
          "name": "_user",
          "type": "address"
        },
        {
          "internalType": "uint256",
          "name": "_lockTime",
          "type": "uint256"
        },
        {
          "internalType": "uint256",
          "name": "_tokenId",
          "type": "uint256"
        }
      ],
      "name": "deposit",
      "outputs": [],
      "stateMutability": "nonpayable",
      "type": "function"
    },
    {
      "inputs": [
        {
          "internalType": "uint256",
          "name": "_pid",
          "type": "uint256"
        },
        {
          "internalType": "address",
          "name": "_user",
          "type": "address"
        }
      ],
      "name": "withdraw",
      "outputs": [],
      "stateMutability": "nonpayable",
      "type": "function"
    },
    {
      "inputs": [
        {
          "internalType": "uint256",
          "name": "_pid",
          "type": "uint256"
        },
        {
          "internalType": "address",
          "name": "_user",
          "type": "address"
        }
      ],
      "name": "checkWithdraw",
      "outputs": [
        {
          "internalType": "bool",
          "name": "",
          "type": "bool"
        }
      ],
      "stateMutability": "view",
      "type": "function",
      "constant": true
    },
    {
      "inputs": [
        {
          "internalType": "uint256",
          "name": "_pid",
          "type": "uint256"
        },
        {
          "internalType": "address",
          "name": "_user",
          "type": "address"
        }
      ],
      "name": "getExpirationTime",
      "outputs": [
        {
          "internalType": "uint256",
          "name": "",
          "type": "uint256"
        }
      ],
      "stateMutability": "view",
      "type": "function",
      "constant": true
    },
    {
      "inputs": [
        {
          "internalType": "uint256",
          "name": "_pid",
          "type": "uint256"
        },
        {
          "internalType": "address",
          "name": "_user",
          "type": "address"
        }
      ],
      "name": "getMultiplier",
      "outputs": [
        {
          "internalType": "uint256",
          "name": "",
          "type": "uint256"
        }
      ],
      "stateMutability": "view",
      "type": "function",
      "constant": true
    },
    {
      "inputs": [
        {
          "internalType": "uint256",
          "name": "lockTime",
          "type": "uint256"
        }
      ],
      "name": "getLockTimeBoost",
      "outputs": [
        {
          "internalType": "uint256",
          "name": "",
          "type": "uint256"
        }
      ],
      "stateMutability": "view",
      "type": "function",
      "constant": true
    }
  ],
  "bytecode": "0x608060405234801561001057600080fd5b506116d8806100206000396000f3fe6080604052600436106101b65760003560e01c80638d818d02116100ec578063c4d66de81161008a578063d781ab6c11610064578063d781ab6c14610741578063db99a53014610756578063eb6c6fa91461076b578063eceae7c314610780576101b6565b8063c4d66de8146106b8578063ca15c873146106de578063d547741f14610708576101b6565b806393f1a40b116100c657806393f1a40b146105da578063a122ce7d14610631578063a217fddf1461066a578063b0739e9c1461067f576101b6565b80638d818d021461053b5780639010d07c1461057157806391d14854146105a1576101b6565b80634396f3a2116101595780635731487011610133578063573148701461047b57806369d03738146104905780636f0372af146104c357806377b1ff8814610508576101b6565b80634396f3a2146103da57806349b282df146104045780634fed07591461042e576101b6565b8063248a9ca311610195578063248a9ca31461030d5780632f2ff15d14610337578063310c87cc1461037057806336568abe146103a1576101b6565b8062f714ce146101bb578063150b7a02146101f6578063211ddf3e146102e6575b600080fd5b3480156101c757600080fd5b506101f4600480360360408110156101de57600080fd5b50803590602001356001600160a01b0316610795565b005b34801561020257600080fd5b506102c96004803603608081101561021957600080fd5b6001600160a01b0382358116926020810135909116916040820135919081019060808101606082013564010000000081111561025457600080fd5b82018360208201111561026657600080fd5b8035906020019184600183028401116401000000008311171561028857600080fd5b91908080601f016020809104026020016040519081016040528093929190818152602001838380828437600092019190915250929550610904945050505050565b604080516001600160e01b03199092168252519081900360200190f35b3480156102f257600080fd5b506102fb610914565b60408051918252519081900360200190f35b34801561031957600080fd5b506102fb6004803603602081101561033057600080fd5b5035610926565b34801561034357600080fd5b506101f46004803603604081101561035a57600080fd5b50803590602001356001600160a01b031661093b565b34801561037c57600080fd5b506103856109a7565b604080516001600160a01b039092168252519081900360200190f35b3480156103ad57600080fd5b506101f4600480360360408110156103c457600080fd5b50803590602001356001600160a01b03166109b6565b3480156103e657600080fd5b506102fb600480360360208110156103fd57600080fd5b5035610a17565b34801561041057600080fd5b506101f46004803603602081101561042757600080fd5b5035610a78565b34801561043a57600080fd5b506104676004803603604081101561045157600080fd5b50803590602001356001600160a01b0316610a91565b604080519115158252519081900360200190f35b34801561048757600080fd5b506102fb610aa7565b34801561049c57600080fd5b506101f4600480360360208110156104b357600080fd5b50356001600160a01b0316610ab0565b3480156104cf57600080fd5b506101f4600480360360808110156104e657600080fd5b508035906001600160a01b036020820135169060408101359060600135610ae6565b34801561051457600080fd5b506101f46004803603602081101561052b57600080fd5b50356001600160a01b0316610cf2565b34801561054757600080fd5b506101f46004803603606081101561055e57600080fd5b5080359060208101359060400135610d0d565b34801561057d57600080fd5b506103856004803603604081101561059457600080fd5b5080359060200135610d2f565b3480156105ad57600080fd5b50610467600480360360408110156105c457600080fd5b50803590602001356001600160a01b0316610d4e565b3480156105e657600080fd5b50610613600480360360408110156105fd57600080fd5b50803590602001356001600160a01b0316610d66565b60408051938452602084019290925282820152519081900360600190f35b34801561063d57600080fd5b506102fb6004803603604081101561065457600080fd5b50803590602001356001600160a01b0316610d92565b34801561067657600080fd5b506102fb610e8a565b34801561068b57600080fd5b506102fb600480360360408110156106a257600080fd5b50803590602001356001600160a01b0316610e8f565b6101f4600480360360208110156106ce57600080fd5b50356001600160a01b0316610f7b565b3480156106ea57600080fd5b506102fb6004803603602081101561070157600080fd5b503561105f565b34801561071457600080fd5b506101f46004803603604081101561072b57600080fd5b50803590602001356001600160a01b0316611076565b34801561074d57600080fd5b506102fb6110cf565b34801561076257600080fd5b506102fb6110d5565b34801561077757600080fd5b506102fb6110db565b34801561078c57600080fd5b506102fb6110e1565b6107ad6000805160206115d583398151915233610d4e565b6107b657600080fd5b6107c08282610a91565b610811576040805162461bcd60e51b815260206004820152601d60248201527f546865206c6f636b2074696d6520686173206e6f742065787069726564000000604482015290519081900360640190fd5b60008281526003602090815260408083206001600160a01b0385168452909152812081815560018101919091556002810154156108c957600280549082015460408051632142170760e11b81523060048201526001600160a01b0386811660248301526044820193909352905191909216916342842e0e91606480830192600092919082900301818387803b1580156108a957600080fd5b505af11580156108bd573d6000803e3d6000fd5b50506000600284015550505b6040516001600160a01b0383169084907feee0ccb31ef0434e2bbd08c1ff54f9c1b85351df81c56cc5b0f3d4aa86b4bb5b90600090a3505050565b630a85bd0160e11b949350505050565b6000805160206115d583398151915281565b60009081526001602052604090206002015490565b60008281526001602052604090206002015461095e906109596110e7565b610d4e565b6109995760405162461bcd60e51b815260040180806020018281038252602f8152602001806115a6602f913960400191505060405180910390fd5b6109a382826110eb565b5050565b6002546001600160a01b031681565b6109be6110e7565b6001600160a01b0316816001600160a01b031614610a0d5760405162461bcd60e51b815260040180806020018281038252602f815260200180611674602f913960400191505060405180910390fd5b6109a38282611154565b60045460009064e8d4a51000908310610a7257610a6f610a5b600754610a5562015180610a4f600454896111bd90919063ffffffff16565b9061121a565b90611281565b600654610a699084906112da565b906112da565b90505b92915050565b610a83600033610d4e565b610a8c57600080fd5b600555565b6000610a9d8383610e8f565b4210159392505050565b64e8d4a5100081565b610abb600033610d4e565b610ac457600080fd5b600280546001600160a01b0319166001600160a01b0392909216919091179055565b610afe6000805160206115d583398151915233610d4e565b610b0757600080fd5b600554821115610b54576040805162461bcd60e51b81526020600482015260136024820152726c6f636b2074696d6520746f6f206c6172676560681b604482015290519081900360640190fd5b60008481526003602090815260408083206001600160a01b038716845290915290206001810154831180610b8d5750610b8d8585610a91565b15610b9d57428155600181018390555b8115610ca157600281015415610c2757600280549082015460408051632142170760e11b81523060048201526001600160a01b0388811660248301526044820193909352905191909216916342842e0e91606480830192600092919082900301818387803b158015610c0e57600080fd5b505af1158015610c22573d6000803e3d6000fd5b505050505b60028082018390555460408051632142170760e11b81526001600160a01b03878116600483015230602483015260448201869052915191909216916342842e0e91606480830192600092919082900301818387803b158015610c8857600080fd5b505af1158015610c9c573d6000803e3d6000fd5b505050505b836001600160a01b0316857fbd40feafd8647b65b9e3a1bc53622150a2e7ec0b1ba69b93b96ad3f80b84db2c8585604051808381526020018281526020019250505060405180910390a35050505050565b610d0a6000805160206115d58339815191528261093b565b50565b610d18600033610d4e565b610d2157600080fd5b600492909255600655600755565b6000828152600160205260408120610d479083611334565b9392505050565b6000828152600160205260408120610d479083611340565b600360209081526000928352604080842090915290825290208054600182015460029092015490919083565b60008281526003602090815260408083206001600160a01b0385168452909152812060018101548290610dc490610a17565b600283015490915064e8d4a510009015610e58576002805490840154604080516377410f9960e01b81526004810192909252516001600160a01b03909216916377410f9991602480820192602092909190829003018186803b158015610e2957600080fd5b505afa158015610e3d573d6000803e3d6000fd5b505050506040513d6020811015610e5357600080fd5b505190505b8115610e8157610e7764e8d4a51000610e7184846112da565b906111bd565b9350505050610a72565b95945050505050565b600081565b60008281526003602090815260408083206001600160a01b03851684529091528120600281015464e8d4a510009015610f4457600280549083015460408051600161844b60e41b031981526004810192909252516001600160a01b039092169163fff7bb5091602480820192602092909190829003018186803b158015610f1557600080fd5b505afa158015610f29573d6000803e3d6000fd5b505050506040513d6020811015610f3f57600080fd5b505190505b6000610f71610f6964e8d4a51000610a4f85876001015461128190919063ffffffff16565b8454906112da565b9695505050505050565b600054610100900460ff1680610f945750610f94611355565b80610fa2575060005460ff16155b610fdd5760405162461bcd60e51b815260040180806020018281038252602e815260200180611625602e913960400191505060405180910390fd5b600054610100900460ff16158015611008576000805460ff1961ff0019909116610100171660011790555b611013600083610999565b61102c6000805160206115d58339815191526000611366565b620a8c0060045562ed4e00600555637735940060065563ee6b280060075580156109a3576000805461ff00191690555050565b6000818152600160205260408120610a72906113b8565b600082815260016020526040902060020154611094906109596110e7565b610a0d5760405162461bcd60e51b81526004018080602001828103825260308152602001806115f56030913960400191505060405180910390fd5b60065481565b60075481565b60055481565b60045481565b3390565b600082815260016020526040902061110390826113c3565b156109a3576111106110e7565b6001600160a01b0316816001600160a01b0316837f2f8788117e7eff1d82e926ec794901d17c78024a50270940304540a733656f0d60405160405180910390a45050565b600082815260016020526040902061116c90826113d8565b156109a3576111796110e7565b6001600160a01b0316816001600160a01b0316837ff6391f5c32d9c69d2a47ea670b442974b53935d1edc7fd64eb21e047a839171b60405160405180910390a45050565b600082821115611214576040805162461bcd60e51b815260206004820152601e60248201527f536166654d6174683a207375627472616374696f6e206f766572666c6f770000604482015290519081900360640190fd5b50900390565b6000808211611270576040805162461bcd60e51b815260206004820152601a60248201527f536166654d6174683a206469766973696f6e206279207a65726f000000000000604482015290519081900360640190fd5b81838161127957fe5b049392505050565b60008261129057506000610a72565b8282028284828161129d57fe5b0414610d475760405162461bcd60e51b81526004018080602001828103825260218152602001806116536021913960400191505060405180910390fd5b600082820183811015610d47576040805162461bcd60e51b815260206004820152601b60248201527f536166654d6174683a206164646974696f6e206f766572666c6f770000000000604482015290519081900360640190fd5b6000610d4783836113ed565b6000610d47836001600160a01b038416611451565b600061136030611469565b15905090565b600082815260016020526040808220600201549051839285917fbd79b86ffe0ab8e8776151514217cd7cacd52c909f66475c3af44e129f0b00ff9190a460009182526001602052604090912060020155565b6000610a728261146f565b6000610d47836001600160a01b038416611473565b6000610d47836001600160a01b0384166114bd565b8154600090821061142f5760405162461bcd60e51b81526004018080602001828103825260228152602001806115846022913960400191505060405180910390fd5b82600001828154811061143e57fe5b9060005260206000200154905092915050565b60009081526001919091016020526040902054151590565b3b151590565b5490565b600061147f8383611451565b6114b557508154600181810184556000848152602080822090930184905584548482528286019093526040902091909155610a72565b506000610a72565b6000818152600183016020526040812054801561157957835460001980830191908101906000908790839081106114f057fe5b906000526020600020015490508087600001848154811061150d57fe5b60009182526020808320909101929092558281526001898101909252604090209084019055865487908061153d57fe5b60019003818190600052602060002001600090559055866001016000878152602001908152602001600020600090556001945050505050610a72565b6000915050610a7256fe456e756d657261626c655365743a20696e646578206f7574206f6620626f756e6473416363657373436f6e74726f6c3a2073656e646572206d75737420626520616e2061646d696e20746f206772616e745eef2d0cdce42042b2a1881ea7f51ddbc3df94d471ed2a17f74c02f01f8301e3416363657373436f6e74726f6c3a2073656e646572206d75737420626520616e2061646d696e20746f207265766f6b65496e697469616c697a61626c653a20636f6e747261637420697320616c726561647920696e697469616c697a6564536166654d6174683a206d756c7469706c69636174696f6e206f766572666c6f77416363657373436f6e74726f6c3a2063616e206f6e6c792072656e6f756e636520726f6c657320666f722073656c66a2646970667358221220fcadd3718e72eda9b521a16718e1e933f4bf925cf49e6ab7ac343fdcc5dda59364736f6c634300060c0033",
  "immutableReferences": {},
  "source": "// SPDX-License-Identifier: MIT\npragma solidity 0.6.12;\n\nimport \"@openzeppelin/contracts/math/SafeMath.sol\";\nimport \"@openzeppelin/contracts/token/ERC721/IERC721.sol\";\nimport \"@openzeppelin/contracts/access/AccessControl.sol\";\nimport \"@openzeppelin/contracts/proxy/Initializable.sol\";\nimport \"@openzeppelin/contracts/token/ERC721/ERC721Holder.sol\";\nimport \"./BoostingStorage.sol\";\n\ninterface IZooNFT {\n    // scaled 1e12\n    function getBoosting(uint _tokenId) external view returns (uint);\n\n    // scaled 1e12\n    function getLockTimeReduce(uint _tokenId) external view returns (uint);\n}\n\ncontract BoostingDelegate is Initializable, AccessControl, ERC721Holder, BoostingStorage {\n\n    bytes32 public constant ZOO_FARMING_ROLE = keccak256(\"FARMING_CONTRACT_ROLE\");\n\n    uint public constant MULTIPLIER_SCALE = 1e12;\n\n    event BoostingDeposit(uint indexed _pid, address indexed _user, uint _lockTime, uint _tokenId);\n\n    event BoostingWithdraw(uint indexed _pid, address indexed _user);\n\n    function initialize(address admin) public payable initializer {\n        _setupRole(DEFAULT_ADMIN_ROLE, admin);\n        _setRoleAdmin(ZOO_FARMING_ROLE, DEFAULT_ADMIN_ROLE);\n        minLockDays = 8 days;\n        maxLockDays = 180 days;\n        baseBoost = 2e9;\n        increaseBoost = 4e9;\n    }\n\n    /// @dev Config the farming contract address\n    function setFarmingAddr(address _farmingAddr) public {\n        grantRole(ZOO_FARMING_ROLE, _farmingAddr);\n    }\n\n    function setNFTAddress(address _NFTAddress) public {\n        require(hasRole(DEFAULT_ADMIN_ROLE, msg.sender));\n        NFTAddress = _NFTAddress;\n    }\n\n    function setBoostScale(uint _minLockDays, uint _baseBoost, uint _increaseBoost) public {\n        require(hasRole(DEFAULT_ADMIN_ROLE, msg.sender));\n        minLockDays = _minLockDays;\n        baseBoost = _baseBoost;\n        increaseBoost = _increaseBoost;\n    }\n\n    function setMaxLockDays(uint _maxLockDays) public {\n        require(hasRole(DEFAULT_ADMIN_ROLE, msg.sender));\n        maxLockDays = _maxLockDays;\n    }\n\n    function deposit(uint _pid, address _user, uint _lockTime, uint _tokenId) external {\n        require(hasRole(ZOO_FARMING_ROLE, msg.sender));\n        require(_lockTime <= maxLockDays, \"lock time too large\");\n\n        UserInfo storage info = userInfo[_pid][_user];\n\n        if (_lockTime > info.lockTime || checkWithdraw(_pid, _user)) {\n            info.startTime = block.timestamp;\n            info.lockTime = _lockTime;\n        }\n\n        if (_tokenId != 0x0) {\n            if (info.tokenId != 0x0) {\n                IERC721(NFTAddress).safeTransferFrom(address(this), _user, info.tokenId);\n            }\n            info.tokenId = _tokenId;\n            IERC721(NFTAddress).safeTransferFrom(_user, address(this), _tokenId);\n        }\n\n        emit BoostingDeposit(_pid, _user, _lockTime, _tokenId);\n    }\n\n    function withdraw(uint _pid, address _user) external {\n        require(hasRole(ZOO_FARMING_ROLE, msg.sender));\n        require(checkWithdraw(_pid, _user), \"The lock time has not expired\");\n        UserInfo storage info = userInfo[_pid][_user];\n        info.startTime = 0;\n        info.lockTime = 0;\n        if (info.tokenId != 0x0) {\n            IERC721(NFTAddress).safeTransferFrom(address(this), _user, info.tokenId);\n            info.tokenId = 0x0;\n        }\n\n        emit BoostingWithdraw(_pid, _user);\n    }\n\n    function checkWithdraw(uint _pid, address _user) public view returns (bool) {\n        return block.timestamp >= getExpirationTime(_pid, _user);\n    }\n\n    function getExpirationTime(uint _pid, address _user) public view returns (uint) {\n        UserInfo storage info = userInfo[_pid][_user];\n        uint nftBoosting = MULTIPLIER_SCALE;\n        if (info.tokenId != 0x0) {\n            nftBoosting = IZooNFT(NFTAddress).getLockTimeReduce(info.tokenId);\n        }\n        uint endTime = info.startTime.add(info.lockTime.mul(nftBoosting).div(MULTIPLIER_SCALE));\n        return endTime;\n    }\n\n    // scale 1e12 times\n    function getMultiplier(uint _pid, address _user) public view returns (uint) {\n        UserInfo storage info = userInfo[_pid][_user];\n        uint boosting = getLockTimeBoost(info.lockTime);\n        \n        uint nftBoosting = MULTIPLIER_SCALE;\n        if (info.tokenId != 0x0) {\n            nftBoosting = IZooNFT(NFTAddress).getBoosting(info.tokenId);\n        }\n\n        if (boosting != 0x0) {\n            return boosting.add(nftBoosting).sub(MULTIPLIER_SCALE);\n        }\n\n        return nftBoosting;\n    } \n\n    function getLockTimeBoost(uint lockTime) public view returns (uint) {\n        uint boosting = MULTIPLIER_SCALE;\n        if (lockTime >= minLockDays) {\n            boosting = boosting.add(baseBoost).add(lockTime.sub(minLockDays).div(1 days).mul(increaseBoost));\n        }\n        return boosting;\n    }\n}\n",
  "sourcePath": "/mnt/d/Zoo/zoo-keeper-contracts-main/contracts/Boosting/BoostingDelegate.sol",
  "compiler": {
    "name": "solc",
    "version": "0.6.12+commit.27d51765.Emscripten.clang"
  },
  "schemaVersion": "3.3.4",
  "updatedAt": "2021-12-10T08:43:10.867Z",
  "networkType": "ethereum",
  "devdoc": {
    "kind": "dev",
    "methods": {
      "getRoleAdmin(bytes32)": {
        "details": "Returns the admin role that controls `role`. See {grantRole} and {revokeRole}. To change a role's admin, use {_setRoleAdmin}."
      },
      "getRoleMember(bytes32,uint256)": {
        "details": "Returns one of the accounts that have `role`. `index` must be a value between 0 and {getRoleMemberCount}, non-inclusive. Role bearers are not sorted in any particular way, and their ordering may change at any point. WARNING: When using {getRoleMember} and {getRoleMemberCount}, make sure you perform all queries on the same block. See the following https://forum.openzeppelin.com/t/iterating-over-elements-on-enumerableset-in-openzeppelin-contracts/2296[forum post] for more information."
      },
      "getRoleMemberCount(bytes32)": {
        "details": "Returns the number of accounts that have `role`. Can be used together with {getRoleMember} to enumerate all bearers of a role."
      },
      "grantRole(bytes32,address)": {
        "details": "Grants `role` to `account`. If `account` had not been already granted `role`, emits a {RoleGranted} event. Requirements: - the caller must have ``role``'s admin role."
      },
      "hasRole(bytes32,address)": {
        "details": "Returns `true` if `account` has been granted `role`."
      },
      "onERC721Received(address,address,uint256,bytes)": {
        "details": "See {IERC721Receiver-onERC721Received}. Always returns `IERC721Receiver.onERC721Received.selector`."
      },
      "renounceRole(bytes32,address)": {
        "details": "Revokes `role` from the calling account. Roles are often managed via {grantRole} and {revokeRole}: this function's purpose is to provide a mechanism for accounts to lose their privileges if they are compromised (such as when a trusted device is misplaced). If the calling account had been granted `role`, emits a {RoleRevoked} event. Requirements: - the caller must be `account`."
      },
      "revokeRole(bytes32,address)": {
        "details": "Revokes `role` from `account`. If `account` had been granted `role`, emits a {RoleRevoked} event. Requirements: - the caller must have ``role``'s admin role."
      },
      "setFarmingAddr(address)": {
        "details": "Config the farming contract address"
      }
    },
    "version": 1
  },
  "userdoc": {
    "kind": "user",
    "methods": {},
    "version": 1
  }
}