{
  "contractName": "DexSwapFarm",
  "abi": [
    {
      "inputs": [
        {
          "internalType": "contract DexSwapToken",
          "name": "_xdexs",
          "type": "address"
        },
        {
          "internalType": "address",
          "name": "_devaddr",
          "type": "address"
        },
        {
          "internalType": "uint256",
          "name": "_xdexsPerBlock",
          "type": "uint256"
        },
        {
          "internalType": "uint256",
          "name": "_startBlock",
          "type": "uint256"
        },
        {
          "internalType": "uint256",
          "name": "_testEndBlock",
          "type": "uint256"
        },
        {
          "internalType": "uint256",
          "name": "_bonusEndBlock",
          "type": "uint256"
        },
        {
          "internalType": "uint256",
          "name": "_allEndBlock",
          "type": "uint256"
        }
      ],
      "stateMutability": "nonpayable",
      "type": "constructor"
    },
    {
      "anonymous": false,
      "inputs": [
        {
          "indexed": true,
          "internalType": "address",
          "name": "user",
          "type": "address"
        },
        {
          "indexed": true,
          "internalType": "uint256",
          "name": "pid",
          "type": "uint256"
        },
        {
          "indexed": false,
          "internalType": "uint256",
          "name": "amount",
          "type": "uint256"
        }
      ],
      "name": "Deposit",
      "type": "event"
    },
    {
      "anonymous": false,
      "inputs": [
        {
          "indexed": true,
          "internalType": "address",
          "name": "user",
          "type": "address"
        },
        {
          "indexed": true,
          "internalType": "uint256",
          "name": "pid",
          "type": "uint256"
        },
        {
          "indexed": false,
          "internalType": "uint256",
          "name": "amount",
          "type": "uint256"
        }
      ],
      "name": "EmergencyWithdraw",
      "type": "event"
    },
    {
      "anonymous": false,
      "inputs": [
        {
          "indexed": true,
          "internalType": "address",
          "name": "previousOwner",
          "type": "address"
        },
        {
          "indexed": true,
          "internalType": "address",
          "name": "newOwner",
          "type": "address"
        }
      ],
      "name": "OwnershipTransferred",
      "type": "event"
    },
    {
      "anonymous": false,
      "inputs": [
        {
          "indexed": true,
          "internalType": "address",
          "name": "user",
          "type": "address"
        },
        {
          "indexed": true,
          "internalType": "uint256",
          "name": "pid",
          "type": "uint256"
        },
        {
          "indexed": false,
          "internalType": "uint256",
          "name": "amount",
          "type": "uint256"
        }
      ],
      "name": "Withdraw",
      "type": "event"
    },
    {
      "inputs": [],
      "name": "BONUS_MULTIPLIER",
      "outputs": [
        {
          "internalType": "uint256",
          "name": "",
          "type": "uint256"
        }
      ],
      "stateMutability": "view",
      "type": "function"
    },
    {
      "inputs": [],
      "name": "allEndBlock",
      "outputs": [
        {
          "internalType": "uint256",
          "name": "",
          "type": "uint256"
        }
      ],
      "stateMutability": "view",
      "type": "function"
    },
    {
      "inputs": [],
      "name": "bonusEndBlock",
      "outputs": [
        {
          "internalType": "uint256",
          "name": "",
          "type": "uint256"
        }
      ],
      "stateMutability": "view",
      "type": "function"
    },
    {
      "inputs": [],
      "name": "devaddr",
      "outputs": [
        {
          "internalType": "address",
          "name": "",
          "type": "address"
        }
      ],
      "stateMutability": "view",
      "type": "function"
    },
    {
      "inputs": [],
      "name": "owner",
      "outputs": [
        {
          "internalType": "address",
          "name": "",
          "type": "address"
        }
      ],
      "stateMutability": "view",
      "type": "function"
    },
    {
      "inputs": [
        {
          "internalType": "uint256",
          "name": "",
          "type": "uint256"
        }
      ],
      "name": "poolInfo",
      "outputs": [
        {
          "internalType": "contract IERC20",
          "name": "lpToken",
          "type": "address"
        },
        {
          "internalType": "uint256",
          "name": "allocPoint",
          "type": "uint256"
        },
        {
          "internalType": "uint256",
          "name": "lastRewardBlock",
          "type": "uint256"
        },
        {
          "internalType": "uint256",
          "name": "accXdexsPerShare",
          "type": "uint256"
        }
      ],
      "stateMutability": "view",
      "type": "function"
    },
    {
      "inputs": [],
      "name": "renounceOwnership",
      "outputs": [],
      "stateMutability": "nonpayable",
      "type": "function"
    },
    {
      "inputs": [],
      "name": "startBlock",
      "outputs": [
        {
          "internalType": "uint256",
          "name": "",
          "type": "uint256"
        }
      ],
      "stateMutability": "view",
      "type": "function"
    },
    {
      "inputs": [],
      "name": "testEndBlock",
      "outputs": [
        {
          "internalType": "uint256",
          "name": "",
          "type": "uint256"
        }
      ],
      "stateMutability": "view",
      "type": "function"
    },
    {
      "inputs": [],
      "name": "totalAllocPoint",
      "outputs": [
        {
          "internalType": "uint256",
          "name": "",
          "type": "uint256"
        }
      ],
      "stateMutability": "view",
      "type": "function"
    },
    {
      "inputs": [
        {
          "internalType": "address",
          "name": "newOwner",
          "type": "address"
        }
      ],
      "name": "transferOwnership",
      "outputs": [],
      "stateMutability": "nonpayable",
      "type": "function"
    },
    {
      "inputs": [
        {
          "internalType": "uint256",
          "name": "",
          "type": "uint256"
        },
        {
          "internalType": "address",
          "name": "",
          "type": "address"
        }
      ],
      "name": "userInfo",
      "outputs": [
        {
          "internalType": "uint256",
          "name": "amount",
          "type": "uint256"
        },
        {
          "internalType": "uint256",
          "name": "rewardDebt",
          "type": "uint256"
        }
      ],
      "stateMutability": "view",
      "type": "function"
    },
    {
      "inputs": [],
      "name": "xdexs",
      "outputs": [
        {
          "internalType": "contract DexSwapToken",
          "name": "",
          "type": "address"
        }
      ],
      "stateMutability": "view",
      "type": "function"
    },
    {
      "inputs": [],
      "name": "xdexsPerBlock",
      "outputs": [
        {
          "internalType": "uint256",
          "name": "",
          "type": "uint256"
        }
      ],
      "stateMutability": "view",
      "type": "function"
    },
    {
      "inputs": [],
      "name": "poolLength",
      "outputs": [
        {
          "internalType": "uint256",
          "name": "",
          "type": "uint256"
        }
      ],
      "stateMutability": "view",
      "type": "function"
    },
    {
      "inputs": [
        {
          "internalType": "uint256",
          "name": "_allocPoint",
          "type": "uint256"
        },
        {
          "internalType": "contract IERC20",
          "name": "_lpToken",
          "type": "address"
        },
        {
          "internalType": "bool",
          "name": "_withUpdate",
          "type": "bool"
        }
      ],
      "name": "add",
      "outputs": [],
      "stateMutability": "nonpayable",
      "type": "function"
    },
    {
      "inputs": [
        {
          "internalType": "uint256",
          "name": "_pid",
          "type": "uint256"
        },
        {
          "internalType": "uint256",
          "name": "_allocPoint",
          "type": "uint256"
        },
        {
          "internalType": "bool",
          "name": "_withUpdate",
          "type": "bool"
        }
      ],
      "name": "set",
      "outputs": [],
      "stateMutability": "nonpayable",
      "type": "function"
    },
    {
      "inputs": [
        {
          "internalType": "uint256",
          "name": "_from",
          "type": "uint256"
        },
        {
          "internalType": "uint256",
          "name": "_to",
          "type": "uint256"
        }
      ],
      "name": "getMultiplier",
      "outputs": [
        {
          "internalType": "uint256",
          "name": "",
          "type": "uint256"
        }
      ],
      "stateMutability": "view",
      "type": "function"
    },
    {
      "inputs": [
        {
          "internalType": "uint256",
          "name": "_pid",
          "type": "uint256"
        },
        {
          "internalType": "address",
          "name": "_user",
          "type": "address"
        }
      ],
      "name": "pendingXdexs",
      "outputs": [
        {
          "internalType": "uint256",
          "name": "",
          "type": "uint256"
        }
      ],
      "stateMutability": "view",
      "type": "function"
    },
    {
      "inputs": [],
      "name": "massUpdatePools",
      "outputs": [],
      "stateMutability": "nonpayable",
      "type": "function"
    },
    {
      "inputs": [
        {
          "internalType": "uint256",
          "name": "_pid",
          "type": "uint256"
        }
      ],
      "name": "updatePool",
      "outputs": [],
      "stateMutability": "nonpayable",
      "type": "function"
    },
    {
      "inputs": [
        {
          "internalType": "uint256",
          "name": "_pid",
          "type": "uint256"
        },
        {
          "internalType": "uint256",
          "name": "_amount",
          "type": "uint256"
        }
      ],
      "name": "deposit",
      "outputs": [],
      "stateMutability": "nonpayable",
      "type": "function"
    },
    {
      "inputs": [
        {
          "internalType": "uint256",
          "name": "_pid",
          "type": "uint256"
        },
        {
          "internalType": "uint256",
          "name": "_amount",
          "type": "uint256"
        }
      ],
      "name": "withdraw",
      "outputs": [],
      "stateMutability": "nonpayable",
      "type": "function"
    },
    {
      "inputs": [
        {
          "internalType": "uint256",
          "name": "_pid",
          "type": "uint256"
        }
      ],
      "name": "emergencyWithdraw",
      "outputs": [],
      "stateMutability": "nonpayable",
      "type": "function"
    },
    {
      "inputs": [
        {
          "internalType": "address",
          "name": "_devaddr",
          "type": "address"
        }
      ],
      "name": "dev",
      "outputs": [],
      "stateMutability": "nonpayable",
      "type": "function"
    }
  ],
  "bytecode": "0x6080604052600060095534801561001557600080fd5b506040516119aa3803806119aa833981810160405260e081101561003857600080fd5b508051602082015160408301516060840151608085015160a086015160c0909601519495939492939192909190600061006f610103565b600080546001600160a01b0319166001600160a01b0383169081178255604051929350917f8be0079c531659141344cd1fd0a4f28419497f9722a3daafe3b4186f6b6457e0908290a350600180546001600160a01b039889166001600160a01b0319918216179091556002805497909816961695909517909555600692909255600a55600355600491909155600555610107565b3390565b611894806101166000396000f3fe608060405234801561001057600080fd5b50600436106101735760003560e01c8063630b5ba1116100de5780638da5cb5b11610097578063d11f9f4311610071578063d11f9f431461039f578063d49e77cd146103cb578063e2bbb158146103d3578063f2fde38b146103f657610173565b80638da5cb5b1461032f5780638dbb1e3a1461033757806393f1a40b1461035a57610173565b8063630b5ba1146102be57806364482f79146102c657806367e87bba146102f1578063715018a6146102f95780638aa28550146103015780638d88a90e1461030957610173565b806329e767a11161013057806329e767a11461024957806334e94d0a14610251578063441a3e701461025957806348cd4cb11461027c57806351eb05a6146102845780635312ea8e146102a157610173565b8063081e3eda146101785780631526fe271461019257806317caf6f1146101df5780631aed6553146101e75780631eaaa045146101ef57806322506ba114610225575b600080fd5b61018061041c565b60408051918252519081900360200190f35b6101af600480360360208110156101a857600080fd5b5035610422565b604080516001600160a01b0390951685526020850193909352838301919091526060830152519081900360800190f35b610180610463565b610180610469565b6102236004803603606081101561020557600080fd5b508035906001600160a01b036020820135169060400135151561046f565b005b61022d6105f4565b604080516001600160a01b039092168252519081900360200190f35b610180610603565b610180610609565b6102236004803603604081101561026f57600080fd5b508035906020013561060f565b610180610718565b6102236004803603602081101561029a57600080fd5b503561071e565b610223600480360360208110156102b757600080fd5b5035610945565b6102236109e1565b610223600480360360608110156102dc57600080fd5b50803590602081013590604001351515610a04565b610180610adf565b610223610ae5565b610180610b91565b6102236004803603602081101561031f57600080fd5b50356001600160a01b0316610b96565b61022d610c0f565b6101806004803603604081101561034d57600080fd5b5080359060200135610c1e565b6103866004803603604081101561037057600080fd5b50803590602001356001600160a01b0316610d7c565b6040805192835260208301919091528051918290030190f35b610180600480360360408110156103b557600080fd5b50803590602001356001600160a01b0316610da0565b61022d610f02565b610223600480360360408110156103e957600080fd5b5080359060200135610f11565b6102236004803603602081101561040c57600080fd5b50356001600160a01b031661101d565b60075490565b6007818154811061042f57fe5b600091825260209091206004909102018054600182015460028301546003909301546001600160a01b039092169350919084565b60095481565b60045481565b61047761111f565b6001600160a01b0316610488610c0f565b6001600160a01b0316146104d1576040805162461bcd60e51b81526020600482018190526024820152600080516020611815833981519152604482015290519081900360640190fd5b80156104df576104df6109e1565b6000600a5443116104f257600a546104f4565b435b6009549091506105049085611123565b600955604080516080810182526001600160a01b0394851681526020810195865290810191825260006060820181815260078054600181018255925291517fa66cc928b5edb82af9bd49922954155ab7b0942694bea4ce44661d9a8736c688600490920291820180546001600160a01b031916919096161790945593517fa66cc928b5edb82af9bd49922954155ab7b0942694bea4ce44661d9a8736c689840155517fa66cc928b5edb82af9bd49922954155ab7b0942694bea4ce44661d9a8736c68a8301555090517fa66cc928b5edb82af9bd49922954155ab7b0942694bea4ce44661d9a8736c68b90910155565b6001546001600160a01b031681565b60065481565b60055481565b60006007838154811061061e57fe5b6000918252602080832086845260088252604080852033865290925292206004909102909101915061064f8461071e565b6000610689826001015461068364e8d4a5100061067d8760030154876000015461118490919063ffffffff16565b906111dd565b90611244565b82549091506106989085611244565b80835560038401546106b59164e8d4a510009161067d9190611184565b60018301556106c433826112a1565b82546106da906001600160a01b03163386611432565b604080518581529051869133917ff279e6a1f5e320cca91135676d9cb6e44ca8a08c0b88342bcdb1144f6511b5689181900360200190a35050505050565b600a5481565b60006007828154811061072d57fe5b906000526020600020906004020190508060020154431161074e5750610942565b8054604080516370a0823160e01b815230600482015290516000926001600160a01b0316916370a08231916024808301926020929190829003018186803b15801561079857600080fd5b505afa1580156107ac573d6000803e3d6000fd5b505050506040513d60208110156107c257600080fd5b50519050806107d8575043600290910155610942565b60006107e8836002015443610c1e565b9050600061081560095461067d866001015461080f6006548761118490919063ffffffff16565b90611184565b6001546002549192506001600160a01b03908116916340c10f19911661083c8460146111dd565b6040518363ffffffff1660e01b815260040180836001600160a01b0316815260200182815260200192505050600060405180830381600087803b15801561088257600080fd5b505af1158015610896573d6000803e3d6000fd5b5050600154604080516340c10f1960e01b81523060048201526024810186905290516001600160a01b0390921693506340c10f19925060448082019260009290919082900301818387803b1580156108ed57600080fd5b505af1158015610901573d6000803e3d6000fd5b5050505061092f6109248461067d64e8d4a510008561118490919063ffffffff16565b600386015490611123565b6003850155505043600290920191909155505b50565b60006007828154811061095457fe5b6000918252602080832085845260088252604080852033808752935284208054858255600182019590955560049093020180549094509192916109a4916001600160a01b03919091169083611432565b604080518281529051859133917fbb757047c2b5f3974fe26b7c10f732e7bce710b0952a71082702781e62ae05959181900360200190a350505050565b60075460005b81811015610a00576109f88161071e565b6001016109e7565b5050565b610a0c61111f565b6001600160a01b0316610a1d610c0f565b6001600160a01b031614610a66576040805162461bcd60e51b81526020600482018190526024820152600080516020611815833981519152604482015290519081900360640190fd5b8015610a7457610a746109e1565b610ab182610aab60078681548110610a8857fe5b90600052602060002090600402016001015460095461124490919063ffffffff16565b90611123565b6009819055508160078481548110610ac557fe5b906000526020600020906004020160010181905550505050565b60035481565b610aed61111f565b6001600160a01b0316610afe610c0f565b6001600160a01b031614610b47576040805162461bcd60e51b81526020600482018190526024820152600080516020611815833981519152604482015290519081900360640190fd5b600080546040516001600160a01b03909116907f8be0079c531659141344cd1fd0a4f28419497f9722a3daafe3b4186f6b6457e0908390a3600080546001600160a01b0319169055565b600581565b6002546001600160a01b03163314610bed576040805162461bcd60e51b815260206004820152601560248201527453686f756c6420626520646576206164647265737360581b604482015290519081900360640190fd5b600280546001600160a01b0319166001600160a01b0392909216919091179055565b6000546001600160a01b031690565b60006005548310610c3157506000610d76565b60006005548310610c4d57600554610c4a908490611244565b90505b6004548311158015610c6157506003548410155b15610c7d57610c75600561080f8587611244565b915050610d76565b60045484101580610c9057506003548311155b15610ca357610c75816106838587611244565b6003548411158015610cb757506004548310155b15610cfd57610c7581610683610cf0610ce2600561080f60035460045461124490919063ffffffff16565b600454610aab908990611244565b600354610aab9089611244565b6003548411158015610d1157506004548311155b15610d4057610c75610d33600561080f6003548761124490919063ffffffff16565b600354610aab9087611244565b610c7581610683610d5c6004548761124490919063ffffffff16565b610aab600561080f8a60045461124490919063ffffffff16565b92915050565b60086020908152600092835260408084209091529082529020805460019091015482565b60008060078481548110610db057fe5b600091825260208083208784526008825260408085206001600160a01b03898116875290845281862060049586029093016003810154815484516370a0823160e01b81523098810198909852935191985093969395939492909116926370a08231926024808301939192829003018186803b158015610e2e57600080fd5b505afa158015610e42573d6000803e3d6000fd5b505050506040513d6020811015610e5857600080fd5b5051600285015490915043118015610e6f57508015155b15610ecf576000610e84856002015443610c1e565b90506000610eab60095461067d886001015461080f6006548761118490919063ffffffff16565b9050610eca610ec38461067d8464e8d4a51000611184565b8590611123565b935050505b610ef7836001015461068364e8d4a5100061067d86886000015461118490919063ffffffff16565b979650505050505050565b6002546001600160a01b031681565b600060078381548110610f2057fe5b60009182526020808320868452600882526040808520338652909252922060049091029091019150610f518461071e565b805415610f94576000610f86826001015461068364e8d4a5100061067d8760030154876000015461118490919063ffffffff16565b9050610f9233826112a1565b505b8215610fc0578154610fb1906001600160a01b0316333086611484565b8054610fbd9084611123565b81555b60038201548154610fdb9164e8d4a510009161067d91611184565b6001820155604080518481529051859133917f90890809c654f11d6e72a28fa60149770a0d11ec6c92319d6ceb2bb0a4ea1a159181900360200190a350505050565b61102561111f565b6001600160a01b0316611036610c0f565b6001600160a01b03161461107f576040805162461bcd60e51b81526020600482018190526024820152600080516020611815833981519152604482015290519081900360640190fd5b6001600160a01b0381166110c45760405162461bcd60e51b81526004018080602001828103825260268152602001806117a86026913960400191505060405180910390fd5b600080546040516001600160a01b03808516939216917f8be0079c531659141344cd1fd0a4f28419497f9722a3daafe3b4186f6b6457e091a3600080546001600160a01b0319166001600160a01b0392909216919091179055565b3390565b60008282018381101561117d576040805162461bcd60e51b815260206004820152601b60248201527f536166654d6174683a206164646974696f6e206f766572666c6f770000000000604482015290519081900360640190fd5b9392505050565b60008261119357506000610d76565b828202828482816111a057fe5b041461117d5760405162461bcd60e51b81526004018080602001828103825260218152602001806117f46021913960400191505060405180910390fd5b6000808211611233576040805162461bcd60e51b815260206004820152601a60248201527f536166654d6174683a206469766973696f6e206279207a65726f000000000000604482015290519081900360640190fd5b81838161123c57fe5b049392505050565b60008282111561129b576040805162461bcd60e51b815260206004820152601e60248201527f536166654d6174683a207375627472616374696f6e206f766572666c6f770000604482015290519081900360640190fd5b50900390565b600154604080516370a0823160e01b815230600482015290516000926001600160a01b0316916370a08231916024808301926020929190829003018186803b1580156112ec57600080fd5b505afa158015611300573d6000803e3d6000fd5b505050506040513d602081101561131657600080fd5b50519050808211156113aa576001546040805163a9059cbb60e01b81526001600160a01b038681166004830152602482018590529151919092169163a9059cbb9160448083019260209291908290030181600087803b15801561137857600080fd5b505af115801561138c573d6000803e3d6000fd5b505050506040513d60208110156113a257600080fd5b5061142d9050565b6001546040805163a9059cbb60e01b81526001600160a01b038681166004830152602482018690529151919092169163a9059cbb9160448083019260209291908290030181600087803b15801561140057600080fd5b505af1158015611414573d6000803e3d6000fd5b505050506040513d602081101561142a57600080fd5b50505b505050565b604080516001600160a01b038416602482015260448082018490528251808303909101815260649091019091526020810180516001600160e01b031663a9059cbb60e01b17905261142d9084906114e4565b604080516001600160a01b0380861660248301528416604482015260648082018490528251808303909101815260849091019091526020810180516001600160e01b03166323b872dd60e01b1790526114de9085906114e4565b50505050565b6060611539826040518060400160405280602081526020017f5361666545524332303a206c6f772d6c6576656c2063616c6c206661696c6564815250856001600160a01b03166115959092919063ffffffff16565b80519091501561142d5780806020019051602081101561155857600080fd5b505161142d5760405162461bcd60e51b815260040180806020018281038252602a815260200180611835602a913960400191505060405180910390fd5b60606115a484846000856115ac565b949350505050565b6060824710156115ed5760405162461bcd60e51b81526004018080602001828103825260268152602001806117ce6026913960400191505060405180910390fd5b6115f6856116fd565b611647576040805162461bcd60e51b815260206004820152601d60248201527f416464726573733a2063616c6c20746f206e6f6e2d636f6e7472616374000000604482015290519081900360640190fd5b60006060866001600160a01b031685876040518082805190602001908083835b602083106116865780518252601f199092019160209182019101611667565b6001836020036101000a03801982511681845116808217855250505050505090500191505060006040518083038185875af1925050503d80600081146116e8576040519150601f19603f3d011682016040523d82523d6000602084013e6116ed565b606091505b5091509150610ef7828286611703565b3b151590565b6060831561171257508161117d565b8251156117225782518084602001fd5b8160405162461bcd60e51b81526004018080602001828103825283818151815260200191508051906020019080838360005b8381101561176c578181015183820152602001611754565b50505050905090810190601f1680156117995780820380516001836020036101000a031916815260200191505b509250505060405180910390fdfe4f776e61626c653a206e6577206f776e657220697320746865207a65726f2061646472657373416464726573733a20696e73756666696369656e742062616c616e636520666f722063616c6c536166654d6174683a206d756c7469706c69636174696f6e206f766572666c6f774f776e61626c653a2063616c6c6572206973206e6f7420746865206f776e65725361666545524332303a204552433230206f7065726174696f6e20646964206e6f742073756363656564a26469706673582212207906cc27ece996bbefedfe89061b6612038e8128165477960ae209272f0634bb64736f6c634300060c0033",
  "immutableReferences": {},
  "source": "// SPDX-License-Identifier: MIT\npragma solidity 0.6.12;\n\n\nimport \"@openzeppelin/contracts/token/ERC20/IERC20.sol\";\nimport \"@openzeppelin/contracts/token/ERC20/SafeERC20.sol\";\nimport \"@openzeppelin/contracts/utils/EnumerableSet.sol\";\nimport \"@openzeppelin/contracts/math/SafeMath.sol\";\nimport \"@openzeppelin/contracts/access/Ownable.sol\";\nimport \"./DexSwapToken.sol\";\n\n\n\n// DexSwapFarm is the master of XDEXS. He can make XDEXS and he is a fair guy.\n//\n// Note that it's ownable and the owner wields tremendous power. The ownership\n// will be transferred to a governance smart contract once XDEXS is sufficiently\n// distributed and the community can show to govern itself.\n//\n// Have fun reading it. Hopefully it's bug-free. God bless.\ncontract DexSwapFarm is Ownable {\n    using SafeMath for uint256;\n    using SafeERC20 for IERC20;\n\n    // Info of each user.\n    struct UserInfo {\n        uint256 amount;     // How many LP tokens the user has provided.\n        uint256 rewardDebt; // Reward debt. See explanation below.\n        //\n        // We do some fancy math here. Basically, any point in time, the amount of XDEXSs\n        // entitled to a user but is pending to be distributed is:\n        //\n        //   pending reward = (user.amount * pool.accXdexsPerShare) - user.rewardDebt\n        //\n        // Whenever a user deposits or withdraws LP tokens to a pool. Here's what happens:\n        //   1. The pool's `accXdexsPerShare` (and `lastRewardBlock`) gets updated.\n        //   2. User receives the pending reward sent to his/her address.\n        //   3. User's `amount` gets updated.\n        //   4. User's `rewardDebt` gets updated.\n    }\n\n    // Info of each pool.\n    struct PoolInfo {\n        IERC20 lpToken;           // Address of LP token contract.\n        uint256 allocPoint;       // How many allocation points assigned to this pool. XDEXSs to distribute per block.\n        uint256 lastRewardBlock;  // Last block number that XDEXSs distribution occurs.\n        uint256 accXdexsPerShare;  // Accumulated XDEXSs per share, times 1e12. See below.\n    }\n\n    // The XDEXS TOKEN!\n    DexSwapToken public xdexs;\n    // Dev address.\n    address public devaddr;\n    // Block number when test XDEXS period ends.\n    uint256 public testEndBlock;\n    // Block number when bonus XDEXS period ends.\n    uint256 public bonusEndBlock;\n    // Block number when bonus XDEXS period ends.\n    uint256 public allEndBlock;\n    // XDEXS tokens created per block.\n    uint256 public xdexsPerBlock;\n    // Bonus muliplier for early xdexs makers.\n    uint256 public constant BONUS_MULTIPLIER = 5;\n\n    // Info of each pool.\n    PoolInfo[] public poolInfo;\n    // Info of each user that stakes LP tokens.\n    mapping (uint256 => mapping (address => UserInfo)) public userInfo;\n    // Total allocation poitns. Must be the sum of all allocation points in all pools.\n    uint256 public totalAllocPoint = 0;\n    // The block number when XDEXS mining starts.\n    uint256 public startBlock;\n\n    event Deposit(address indexed user, uint256 indexed pid, uint256 amount);\n    event Withdraw(address indexed user, uint256 indexed pid, uint256 amount);\n    event EmergencyWithdraw(address indexed user, uint256 indexed pid, uint256 amount);\n\n    constructor(\n        DexSwapToken _xdexs,\n        address _devaddr,\n        uint256 _xdexsPerBlock,\n        uint256 _startBlock,\n        uint256 _testEndBlock,\n        uint256 _bonusEndBlock,\n        uint256 _allEndBlock\n    ) public {\n        xdexs = _xdexs;\n        devaddr = _devaddr;\n        xdexsPerBlock = _xdexsPerBlock;\n        startBlock = _startBlock;\n        testEndBlock = _testEndBlock;\n        bonusEndBlock = _bonusEndBlock;\n        allEndBlock = _allEndBlock;\n    }\n\n    function poolLength() external view returns (uint256) {\n        return poolInfo.length;\n    }\n\n    // Add a new lp to the pool. Can only be called by the owner.\n    // XXX DO NOT add the same LP token more than once. Rewards will be messed up if you do.\n    function add(uint256 _allocPoint, IERC20 _lpToken, bool _withUpdate) public onlyOwner {\n        if (_withUpdate) {\n            massUpdatePools();\n        }\n        uint256 lastRewardBlock = block.number > startBlock ? block.number : startBlock;\n        totalAllocPoint = totalAllocPoint.add(_allocPoint);\n        poolInfo.push(PoolInfo({\n            lpToken: _lpToken,\n            allocPoint: _allocPoint,\n            lastRewardBlock: lastRewardBlock,\n            accXdexsPerShare: 0\n        }));\n    }\n\n    // Update the given pool's XDEXS allocation point. Can only be called by the owner.\n    function set(uint256 _pid, uint256 _allocPoint, bool _withUpdate) public onlyOwner {\n        if (_withUpdate) {\n            massUpdatePools();\n        }\n        totalAllocPoint = totalAllocPoint.sub(poolInfo[_pid].allocPoint).add(_allocPoint);\n        poolInfo[_pid].allocPoint = _allocPoint;\n    }\n\n    // Return reward multiplier over the given _from to _to block.\n    function getMultiplier(uint256 _from, uint256 _to) public view returns (uint256) {\n        if (_from >= allEndBlock) {\n            return 0;\n        }\n\n        uint256 noRewardCount = 0;\n        if (_to >= allEndBlock) {\n            noRewardCount = _to.sub(allEndBlock);\n        }\n\n        if (_to <= bonusEndBlock && _from >= testEndBlock) {\n            return _to.sub(_from).mul(BONUS_MULTIPLIER);\n        }\n\n        if (_from >= bonusEndBlock || _to <= testEndBlock) {\n            return _to.sub(_from).sub(noRewardCount);\n        }\n\n        if (_from <= testEndBlock && _to >= bonusEndBlock) {\n            return testEndBlock.sub(_from).add(\n                _to.sub(bonusEndBlock).add(\n                    bonusEndBlock.sub(testEndBlock).mul(BONUS_MULTIPLIER)\n                )\n            ).sub(noRewardCount);\n        }\n\n        if (_from <= testEndBlock && _to <= bonusEndBlock) {\n            return testEndBlock.sub(_from).add(\n                _to.sub(testEndBlock).mul(BONUS_MULTIPLIER)\n            );\n        } else { //(_from <= bonusEndBlock && _to >= bonusEndBlock)\n            return bonusEndBlock.sub(_from).mul(BONUS_MULTIPLIER).add(\n                _to.sub(bonusEndBlock)\n            ).sub(noRewardCount);\n        }\n    }\n\n    // View function to see pending XDEXSs on frontend.\n    function pendingXdexs(uint256 _pid, address _user) external view returns (uint256) {\n        PoolInfo storage pool = poolInfo[_pid];\n        UserInfo storage user = userInfo[_pid][_user];\n        uint256 accXdexsPerShare = pool.accXdexsPerShare;\n        uint256 lpSupply = pool.lpToken.balanceOf(address(this));\n        if (block.number > pool.lastRewardBlock && lpSupply != 0) {\n            uint256 multiplier = getMultiplier(pool.lastRewardBlock, block.number);\n            uint256 xdexsReward = multiplier.mul(xdexsPerBlock).mul(pool.allocPoint).div(totalAllocPoint);\n            accXdexsPerShare = accXdexsPerShare.add(xdexsReward.mul(1e12).div(lpSupply));\n        }\n        return user.amount.mul(accXdexsPerShare).div(1e12).sub(user.rewardDebt);\n    }\n\n    // Update reward vairables for all pools. Be careful of gas spending!\n    function massUpdatePools() public {\n        uint256 length = poolInfo.length;\n        for (uint256 pid = 0; pid < length; ++pid) {\n            updatePool(pid);\n        }\n    }\n\n    // Update reward variables of the given pool to be up-to-date.\n    function updatePool(uint256 _pid) public {\n        PoolInfo storage pool = poolInfo[_pid];\n        if (block.number <= pool.lastRewardBlock) {\n            return;\n        }\n        uint256 lpSupply = pool.lpToken.balanceOf(address(this));\n        if (lpSupply == 0) {\n            pool.lastRewardBlock = block.number;\n            return;\n        }\n        uint256 multiplier = getMultiplier(pool.lastRewardBlock, block.number);\n        uint256 xdexsReward = multiplier.mul(xdexsPerBlock).mul(pool.allocPoint).div(totalAllocPoint);\n        xdexs.mint(devaddr, xdexsReward.div(20));\n        xdexs.mint(address(this), xdexsReward);\n        pool.accXdexsPerShare = pool.accXdexsPerShare.add(xdexsReward.mul(1e12).div(lpSupply));\n        pool.lastRewardBlock = block.number;\n    }\n\n    // Deposit LP tokens to DexSwapFarm for XDEXS allocation.\n    function deposit(uint256 _pid, uint256 _amount) public {\n        PoolInfo storage pool = poolInfo[_pid];\n        UserInfo storage user = userInfo[_pid][msg.sender];\n        updatePool(_pid);\n        if (user.amount > 0) {\n            uint256 pending = user.amount.mul(pool.accXdexsPerShare).div(1e12).sub(user.rewardDebt);\n            safeXdexsTransfer(msg.sender, pending);\n        }\n        if(_amount > 0) {\n            pool.lpToken.safeTransferFrom(address(msg.sender), address(this), _amount);\n            user.amount = user.amount.add(_amount);\n        }\n        user.rewardDebt = user.amount.mul(pool.accXdexsPerShare).div(1e12);\n        emit Deposit(msg.sender, _pid, _amount);\n    }\n\n    // Withdraw LP tokens from DexSwapFarm.\n    function withdraw(uint256 _pid, uint256 _amount) public {\n        PoolInfo storage pool = poolInfo[_pid];\n        UserInfo storage user = userInfo[_pid][msg.sender];\n        updatePool(_pid);\n        uint256 pending = user.amount.mul(pool.accXdexsPerShare).div(1e12).sub(user.rewardDebt);\n        user.amount = user.amount.sub(_amount);\n        user.rewardDebt = user.amount.mul(pool.accXdexsPerShare).div(1e12);\n        safeXdexsTransfer(msg.sender, pending);\n        pool.lpToken.safeTransfer(address(msg.sender), _amount);\n        emit Withdraw(msg.sender, _pid, _amount);\n    }\n\n    // Withdraw without caring about rewards. EMERGENCY ONLY.\n    function emergencyWithdraw(uint256 _pid) public {\n        PoolInfo storage pool = poolInfo[_pid];\n        UserInfo storage user = userInfo[_pid][msg.sender];\n        uint256 amount = user.amount;\n        user.amount = 0;\n        user.rewardDebt = 0;\n        pool.lpToken.safeTransfer(address(msg.sender), amount);\n        emit EmergencyWithdraw(msg.sender, _pid, amount);\n    }\n\n    // Safe xdexs transfer function, just in case if rounding error causes pool to not have enough XDEXSs.\n    function safeXdexsTransfer(address _to, uint256 _amount) internal {\n        uint256 xdexsBal = xdexs.balanceOf(address(this));\n        if (_amount > xdexsBal) {\n            xdexs.transfer(_to, xdexsBal);\n        } else {\n            xdexs.transfer(_to, _amount);\n        }\n    }\n\n    // Update dev address by the previous dev.\n    function dev(address _devaddr) public {\n        require(msg.sender == devaddr, \"Should be dev address\");\n        devaddr = _devaddr;\n    }\n}\n",
  "sourcePath": "/mnt/d/Zoo/zoo-keeper-contracts-main/contracts/test/DexSwapFarm.sol",
  "compiler": {
    "name": "solc",
    "version": "0.6.12+commit.27d51765.Emscripten.clang"
  },
  "schemaVersion": "3.3.4",
  "updatedAt": "2021-12-10T08:12:26.228Z",
  "devdoc": {
    "kind": "dev",
    "methods": {
      "owner()": {
        "details": "Returns the address of the current owner."
      },
      "renounceOwnership()": {
        "details": "Leaves the contract without owner. It will not be possible to call `onlyOwner` functions anymore. Can only be called by the current owner. NOTE: Renouncing ownership will leave the contract without an owner, thereby removing any functionality that is only available to the owner."
      },
      "transferOwnership(address)": {
        "details": "Transfers ownership of the contract to a new account (`newOwner`). Can only be called by the current owner."
      }
    },
    "version": 1
  },
  "userdoc": {
    "kind": "user",
    "methods": {},
    "version": 1
  }
}