{
  "contractName": "MarketplaceStorage",
  "abi": [
    {
      "inputs": [],
      "name": "maxExpirationTime",
      "outputs": [
        {
          "internalType": "uint256",
          "name": "",
          "type": "uint256"
        }
      ],
      "stateMutability": "view",
      "type": "function"
    },
    {
      "inputs": [],
      "name": "minExpirationTime",
      "outputs": [
        {
          "internalType": "uint256",
          "name": "",
          "type": "uint256"
        }
      ],
      "stateMutability": "view",
      "type": "function"
    }
  ],
  "bytecode": "0x6080604052348015600f57600080fd5b5060978061001e6000396000f3fe6080604052348015600f57600080fd5b506004361060325760003560e01c806331b412d7146037578063f541b38214604f575b600080fd5b603d6055565b60408051918252519081900360200190f35b603d605b565b60015481565b6000548156fea264697066735822122046f11594a0219eb88264b37bf9b81ca725996e7e314875fc5b3095f20e3d5aab64736f6c634300060c0033",
  "immutableReferences": {},
  "source": "// SPDX-License-Identifier: MIT\npragma solidity 0.6.12;\n\nimport \"@openzeppelin/contracts/math/SafeMath.sol\";\nimport \"@openzeppelin/contracts/utils/EnumerableSet.sol\";\n\ncontract MarketplaceStorage {\n    using SafeMath for uint256;\n    using EnumerableSet for EnumerableSet.UintSet;\n\n    struct OrderInfo {\n        // NFT owner\n        address owner;\n        // NFT contract address\n        address nftContract;\n        // NFT tokenId\n        uint tokenId;\n        // pay token;\n        address token;\n        // pay amount;\n        uint price;\n        // order expiration time\n        uint expiration;\n        // order expiration time\n        uint createTime;\n    }\n\n    uint public maxExpirationTime;\n\n    uint public minExpirationTime;\n\n\n    EnumerableSet.UintSet internal orderIds; \n\n    mapping(uint => OrderInfo) orders;\n}\n",
  "sourcePath": "/mnt/d/Zoo/zoo-keeper-contracts-main/contracts/Marketplace/MarketplaceStorage.sol",
  "compiler": {
    "name": "solc",
    "version": "0.6.12+commit.27d51765.Emscripten.clang"
  },
  "schemaVersion": "3.3.4",
  "updatedAt": "2021-12-10T08:12:25.634Z",
  "devdoc": {
    "kind": "dev",
    "methods": {},
    "version": 1
  },
  "userdoc": {
    "kind": "user",
    "methods": {},
    "version": 1
  }
}