{
  "contractName": "MarketplaceDelegate",
  "abi": [
    {
      "anonymous": false,
      "inputs": [
        {
          "indexed": true,
          "internalType": "uint256",
          "name": "_orderId",
          "type": "uint256"
        },
        {
          "indexed": true,
          "internalType": "uint256",
          "name": "_tokenId",
          "type": "uint256"
        },
        {
          "indexed": true,
          "internalType": "address",
          "name": "_buyer",
          "type": "address"
        },
        {
          "indexed": false,
          "internalType": "address",
          "name": "_seller",
          "type": "address"
        },
        {
          "indexed": false,
          "internalType": "address",
          "name": "_nftContract",
          "type": "address"
        },
        {
          "indexed": false,
          "internalType": "address",
          "name": "_token",
          "type": "address"
        },
        {
          "indexed": false,
          "internalType": "uint256",
          "name": "price",
          "type": "uint256"
        }
      ],
      "name": "BuyOrder",
      "type": "event"
    },
    {
      "anonymous": false,
      "inputs": [
        {
          "indexed": true,
          "internalType": "uint256",
          "name": "_tokenId",
          "type": "uint256"
        }
      ],
      "name": "CancelOrder",
      "type": "event"
    },
    {
      "anonymous": false,
      "inputs": [
        {
          "indexed": true,
          "internalType": "uint256",
          "name": "_orderId",
          "type": "uint256"
        },
        {
          "indexed": true,
          "internalType": "uint256",
          "name": "_tokenId",
          "type": "uint256"
        },
        {
          "indexed": true,
          "internalType": "address",
          "name": "_seller",
          "type": "address"
        },
        {
          "indexed": false,
          "internalType": "address",
          "name": "_nftContract",
          "type": "address"
        },
        {
          "indexed": false,
          "internalType": "address",
          "name": "_token",
          "type": "address"
        },
        {
          "indexed": false,
          "internalType": "uint256",
          "name": "price",
          "type": "uint256"
        }
      ],
      "name": "CleanOrder",
      "type": "event"
    },
    {
      "anonymous": false,
      "inputs": [
        {
          "indexed": true,
          "internalType": "address",
          "name": "_nftContract",
          "type": "address"
        },
        {
          "indexed": true,
          "internalType": "uint256",
          "name": "_tokenId",
          "type": "uint256"
        },
        {
          "indexed": true,
          "internalType": "address",
          "name": "_token",
          "type": "address"
        },
        {
          "indexed": false,
          "internalType": "uint256",
          "name": "_price",
          "type": "uint256"
        },
        {
          "indexed": false,
          "internalType": "uint256",
          "name": "_expiration",
          "type": "uint256"
        },
        {
          "indexed": false,
          "internalType": "uint256",
          "name": "_orderId",
          "type": "uint256"
        }
      ],
      "name": "CreateOrder",
      "type": "event"
    },
    {
      "anonymous": false,
      "inputs": [
        {
          "indexed": true,
          "internalType": "bytes32",
          "name": "role",
          "type": "bytes32"
        },
        {
          "indexed": true,
          "internalType": "bytes32",
          "name": "previousAdminRole",
          "type": "bytes32"
        },
        {
          "indexed": true,
          "internalType": "bytes32",
          "name": "newAdminRole",
          "type": "bytes32"
        }
      ],
      "name": "RoleAdminChanged",
      "type": "event"
    },
    {
      "anonymous": false,
      "inputs": [
        {
          "indexed": true,
          "internalType": "bytes32",
          "name": "role",
          "type": "bytes32"
        },
        {
          "indexed": true,
          "internalType": "address",
          "name": "account",
          "type": "address"
        },
        {
          "indexed": true,
          "internalType": "address",
          "name": "sender",
          "type": "address"
        }
      ],
      "name": "RoleGranted",
      "type": "event"
    },
    {
      "anonymous": false,
      "inputs": [
        {
          "indexed": true,
          "internalType": "bytes32",
          "name": "role",
          "type": "bytes32"
        },
        {
          "indexed": true,
          "internalType": "address",
          "name": "account",
          "type": "address"
        },
        {
          "indexed": true,
          "internalType": "address",
          "name": "sender",
          "type": "address"
        }
      ],
      "name": "RoleRevoked",
      "type": "event"
    },
    {
      "inputs": [],
      "name": "DEFAULT_ADMIN_ROLE",
      "outputs": [
        {
          "internalType": "bytes32",
          "name": "",
          "type": "bytes32"
        }
      ],
      "stateMutability": "view",
      "type": "function",
      "constant": true
    },
    {
      "inputs": [
        {
          "internalType": "bytes32",
          "name": "role",
          "type": "bytes32"
        }
      ],
      "name": "getRoleAdmin",
      "outputs": [
        {
          "internalType": "bytes32",
          "name": "",
          "type": "bytes32"
        }
      ],
      "stateMutability": "view",
      "type": "function",
      "constant": true
    },
    {
      "inputs": [
        {
          "internalType": "bytes32",
          "name": "role",
          "type": "bytes32"
        },
        {
          "internalType": "uint256",
          "name": "index",
          "type": "uint256"
        }
      ],
      "name": "getRoleMember",
      "outputs": [
        {
          "internalType": "address",
          "name": "",
          "type": "address"
        }
      ],
      "stateMutability": "view",
      "type": "function",
      "constant": true
    },
    {
      "inputs": [
        {
          "internalType": "bytes32",
          "name": "role",
          "type": "bytes32"
        }
      ],
      "name": "getRoleMemberCount",
      "outputs": [
        {
          "internalType": "uint256",
          "name": "",
          "type": "uint256"
        }
      ],
      "stateMutability": "view",
      "type": "function",
      "constant": true
    },
    {
      "inputs": [
        {
          "internalType": "bytes32",
          "name": "role",
          "type": "bytes32"
        },
        {
          "internalType": "address",
          "name": "account",
          "type": "address"
        }
      ],
      "name": "grantRole",
      "outputs": [],
      "stateMutability": "nonpayable",
      "type": "function"
    },
    {
      "inputs": [
        {
          "internalType": "bytes32",
          "name": "role",
          "type": "bytes32"
        },
        {
          "internalType": "address",
          "name": "account",
          "type": "address"
        }
      ],
      "name": "hasRole",
      "outputs": [
        {
          "internalType": "bool",
          "name": "",
          "type": "bool"
        }
      ],
      "stateMutability": "view",
      "type": "function",
      "constant": true
    },
    {
      "inputs": [],
      "name": "maxExpirationTime",
      "outputs": [
        {
          "internalType": "uint256",
          "name": "",
          "type": "uint256"
        }
      ],
      "stateMutability": "view",
      "type": "function",
      "constant": true
    },
    {
      "inputs": [],
      "name": "minExpirationTime",
      "outputs": [
        {
          "internalType": "uint256",
          "name": "",
          "type": "uint256"
        }
      ],
      "stateMutability": "view",
      "type": "function",
      "constant": true
    },
    {
      "inputs": [
        {
          "internalType": "bytes32",
          "name": "role",
          "type": "bytes32"
        },
        {
          "internalType": "address",
          "name": "account",
          "type": "address"
        }
      ],
      "name": "renounceRole",
      "outputs": [],
      "stateMutability": "nonpayable",
      "type": "function"
    },
    {
      "inputs": [
        {
          "internalType": "bytes32",
          "name": "role",
          "type": "bytes32"
        },
        {
          "internalType": "address",
          "name": "account",
          "type": "address"
        }
      ],
      "name": "revokeRole",
      "outputs": [],
      "stateMutability": "nonpayable",
      "type": "function"
    },
    {
      "inputs": [
        {
          "internalType": "address",
          "name": "admin",
          "type": "address"
        }
      ],
      "name": "initialize",
      "outputs": [],
      "stateMutability": "payable",
      "type": "function",
      "payable": true
    },
    {
      "inputs": [
        {
          "internalType": "uint256",
          "name": "_minExpirationTime",
          "type": "uint256"
        },
        {
          "internalType": "uint256",
          "name": "_maxExpirationTime",
          "type": "uint256"
        }
      ],
      "name": "configExpiration",
      "outputs": [],
      "stateMutability": "nonpayable",
      "type": "function"
    },
    {
      "inputs": [
        {
          "internalType": "address",
          "name": "_nftContract",
          "type": "address"
        },
        {
          "internalType": "uint256",
          "name": "_tokenId",
          "type": "uint256"
        },
        {
          "internalType": "address",
          "name": "_token",
          "type": "address"
        },
        {
          "internalType": "uint256",
          "name": "_price",
          "type": "uint256"
        },
        {
          "internalType": "uint256",
          "name": "_expiration",
          "type": "uint256"
        }
      ],
      "name": "createOrder",
      "outputs": [],
      "stateMutability": "nonpayable",
      "type": "function"
    },
    {
      "inputs": [
        {
          "internalType": "address",
          "name": "_nftContract",
          "type": "address"
        },
        {
          "internalType": "uint256",
          "name": "_tokenId",
          "type": "uint256"
        },
        {
          "internalType": "address",
          "name": "_token",
          "type": "address"
        }
      ],
      "name": "cancelOrder",
      "outputs": [],
      "stateMutability": "nonpayable",
      "type": "function"
    },
    {
      "inputs": [
        {
          "internalType": "uint256",
          "name": "_orderId",
          "type": "uint256"
        }
      ],
      "name": "buyOrder",
      "outputs": [],
      "stateMutability": "nonpayable",
      "type": "function"
    },
    {
      "inputs": [],
      "name": "orderCount",
      "outputs": [
        {
          "internalType": "uint256",
          "name": "",
          "type": "uint256"
        }
      ],
      "stateMutability": "view",
      "type": "function",
      "constant": true
    },
    {
      "inputs": [
        {
          "internalType": "uint256",
          "name": "index",
          "type": "uint256"
        }
      ],
      "name": "getOrderId",
      "outputs": [
        {
          "internalType": "uint256",
          "name": "orderId",
          "type": "uint256"
        },
        {
          "internalType": "bool",
          "name": "isValid",
          "type": "bool"
        }
      ],
      "stateMutability": "view",
      "type": "function",
      "constant": true
    },
    {
      "inputs": [
        {
          "internalType": "uint256",
          "name": "orderId",
          "type": "uint256"
        }
      ],
      "name": "getOrderById",
      "outputs": [
        {
          "internalType": "address",
          "name": "owner",
          "type": "address"
        },
        {
          "internalType": "uint256",
          "name": "tokenId",
          "type": "uint256"
        },
        {
          "internalType": "address",
          "name": "token",
          "type": "address"
        },
        {
          "internalType": "uint256",
          "name": "price",
          "type": "uint256"
        },
        {
          "internalType": "uint256",
          "name": "expiration",
          "type": "uint256"
        },
        {
          "internalType": "uint256",
          "name": "createTime",
          "type": "uint256"
        }
      ],
      "stateMutability": "view",
      "type": "function",
      "constant": true
    },
    {
      "inputs": [
        {
          "internalType": "uint256",
          "name": "orderId",
          "type": "uint256"
        }
      ],
      "name": "checkOrderValid",
      "outputs": [
        {
          "internalType": "bool",
          "name": "",
          "type": "bool"
        }
      ],
      "stateMutability": "view",
      "type": "function",
      "constant": true
    },
    {
      "inputs": [
        {
          "internalType": "int256",
          "name": "from",
          "type": "int256"
        },
        {
          "internalType": "int256",
          "name": "to",
          "type": "int256"
        }
      ],
      "name": "cleanInvalidOrders",
      "outputs": [],
      "stateMutability": "nonpayable",
      "type": "function"
    }
  ],
  "bytecode": "0x608060405234801561001057600080fd5b50611cc1806100206000396000f3fe60806040526004361061011f5760003560e01c80639010d07c116100a0578063c4d66de811610064578063c4d66de814610478578063ca15c8731461049e578063d547741f146104c8578063f541b38214610501578063f615c2bf146105165761011f565b80639010d07c1461034e57806391d148541461039a57806396d4f640146103d35780639d2166ae14610420578063a217fddf146104635761011f565b806336568abe116100e757806336568abe146101ef5780633c6cbc231461022857806342b50a7a1461026b5780636967f993146102e05780636b3b9a5b146103105761011f565b806322f85eaa146101245780632453ffa814610150578063248a9ca3146101775780632f2ff15d146101a157806331b412d7146101da575b600080fd5b34801561013057600080fd5b5061014e6004803603602081101561014757600080fd5b5035610546565b005b34801561015c57600080fd5b506101656107a0565b60408051918252519081900360200190f35b34801561018357600080fd5b506101656004803603602081101561019a57600080fd5b50356107b1565b3480156101ad57600080fd5b5061014e600480360360408110156101c457600080fd5b50803590602001356001600160a01b03166107c9565b3480156101e657600080fd5b50610165610835565b3480156101fb57600080fd5b5061014e6004803603604081101561021257600080fd5b50803590602001356001600160a01b031661083b565b34801561023457600080fd5b5061014e6004803603606081101561024b57600080fd5b506001600160a01b0381358116916020810135916040909101351661089c565b34801561027757600080fd5b506102956004803603602081101561028e57600080fd5b5035610a12565b60405180876001600160a01b03168152602001868152602001856001600160a01b03168152602001848152602001838152602001828152602001965050505050505060405180910390f35b3480156102ec57600080fd5b5061014e6004803603604081101561030357600080fd5b5080359060200135610a54565b34801561031c57600080fd5b5061033a6004803603602081101561033357600080fd5b5035610a70565b604080519115158252519081900360200190f35b34801561035a57600080fd5b5061037e6004803603604081101561037157600080fd5b5080359060200135610cf8565b604080516001600160a01b039092168252519081900360200190f35b3480156103a657600080fd5b5061033a600480360360408110156103bd57600080fd5b50803590602001356001600160a01b0316610d19565b3480156103df57600080fd5b5061014e600480360360a08110156103f657600080fd5b506001600160a01b0381358116916020810135916040820135169060608101359060800135610d31565b34801561042c57600080fd5b5061044a6004803603602081101561044357600080fd5b50356111db565b6040805192835290151560208301528051918290030190f35b34801561046f57600080fd5b50610165611200565b61014e6004803603602081101561048e57600080fd5b50356001600160a01b0316611205565b3480156104aa57600080fd5b50610165600480360360208110156104c157600080fd5b50356112c0565b3480156104d457600080fd5b5061014e600480360360408110156104eb57600080fd5b50803590602001356001600160a01b03166112d7565b34801561050d57600080fd5b50610165611330565b34801561052257600080fd5b5061014e6004803603604081101561053957600080fd5b5080359060200135611336565b61054f81610a70565b610595576040805162461bcd60e51b81526020600482015260126024820152711bdc99195c881a5cc81b9bdd081d985b1a5960721b604482015290519081900360640190fd5b61059d611b05565b50600081815260066020818152604092839020835160e08101855281546001600160a01b0390811682526001830154811693820193909352600282015494810194909452600381015490911660608401526004808201546080850152600582015460a085015291015460c083015261061590836114f0565b506000828152600660208190526040822080546001600160a01b031990811682556001820180548216905560028201849055600382018054909116905560048101839055600581018390550155805160808201516060830151610686926001600160a01b03909116913391906114fc565b80602001516001600160a01b03166342842e0e82600001513384604001516040518463ffffffff1660e01b815260040180846001600160a01b03168152602001836001600160a01b031681526020018281526020019350505050600060405180830381600087803b1580156106fa57600080fd5b505af115801561070e573d6000803e3d6000fd5b50505050336001600160a01b03168160400151837f7980f59a6f38f0fc91bb264cff74db1bef53a5164e68ab13292cd2e8ee337cce846000015185602001518660600151876080015160405180856001600160a01b03168152602001846001600160a01b03168152602001836001600160a01b0316815260200182815260200194505050505060405180910390a45050565b60006107ac600461155c565b905090565b6000818152600160205260409020600201545b919050565b6000828152600160205260409020600201546107ec906107e7611567565b610d19565b6108275760405162461bcd60e51b815260040180806020018281038252602f815260200180611b80602f913960400191505060405180910390fd5b610831828261156b565b5050565b60035481565b610843611567565b6001600160a01b0316816001600160a01b0316146108925760405162461bcd60e51b815260040180806020018281038252602f815260200180611c5d602f913960400191505060405180910390fd5b61083182826115d4565b60408051336020808301919091528183018590526001600160a01b0380871660608401528085166080808501919091528451808503909101815260a0909301845282519282019290922060008181526006909252929020541680610939576040805162461bcd60e51b815260206004820152600f60248201526e1bdc99195c881b9bdd08195e1a5cdd608a1b604482015290519081900360640190fd5b6001600160a01b0381163314610988576040805162461bcd60e51b815260206004820152600f60248201526e6f72646572206e6f7420796f75727360881b604482015290519081900360640190fd5b6109936004836114f0565b50600082815260066020819052604080832080546001600160a01b031990811682556001820180548216905560028201859055600382018054909116905560048101849055600581018490559091018290555185917f935c9ad2f1fda9d7eae0d2a512f1521cb7190ee06165414e722366a65975fb6b91a25050505050565b60009081526006602081905260409091208054600282015460038301546004840154600585015494909501546001600160a01b03938416969295939091169391565b610a5f600033610d19565b610a6857600080fd5b600255600355565b600081815260066020908152604080832080546001820154600283015484516331a9108f60e11b81526004810191909152935192946001600160a01b03928316949290911692636352211e926024808201939291829003018186803b158015610ad857600080fd5b505afa158015610aec573d6000803e3d6000fd5b505050506040513d6020811015610b0257600080fd5b50516001600160a01b031614610b1c5760009150506107c4565b600181015481546040805163e985e9c560e01b81526001600160a01b0392831660048201523060248201529051919092169163e985e9c5916044808301926020929190829003018186803b158015610b7357600080fd5b505afa158015610b87573d6000803e3d6000fd5b505050506040513d6020811015610b9d57600080fd5b5051610bad5760009150506107c4565b4281600501548260060154011015610bc95760009150506107c4565b6014816002015410158015610be35750602f816002015411155b15610bf25760009150506107c4565b806002015460631415610c095760009150506107c4565b806002015460591415610c205760009150506107c4565b806002015460561415610c375760009150506107c4565b8060020154604e1415610c4e5760009150506107c4565b8060020154604b1415610c655760009150506107c4565b806002015460381415610c7c5760009150506107c4565b806002015460341415610c935760009150506107c4565b806002015460101415610caa5760009150506107c4565b8060020154600e1415610cc15760009150506107c4565b806002015460de1415610cd85760009150506107c4565b806002015460fc1415610cef5760009150506107c4565b50600192915050565b6000828152600160205260408120610d10908361163d565b90505b92915050565b6000828152600160205260408120610d109083611649565b336001600160a01b0316856001600160a01b0316636352211e866040518263ffffffff1660e01b81526004018082815260200191505060206040518083038186803b158015610d7f57600080fd5b505afa158015610d93573d6000803e3d6000fd5b505050506040513d6020811015610da957600080fd5b50516001600160a01b031614610dfb576040805162461bcd60e51b8152602060048201526012602482015271596f752068617665206e6f2061636365737360701b604482015290519081900360640190fd5b6040805163e985e9c560e01b815233600482015230602482015290516001600160a01b0387169163e985e9c5916044808301926020929190829003018186803b158015610e4757600080fd5b505afa158015610e5b573d6000803e3d6000fd5b505050506040513d6020811015610e7157600080fd5b5051610eb9576040805162461bcd60e51b8152602060048201526012602482015271135d5cdd08185c1c1c9bdd9948199a5c9cdd60721b604482015290519081900360640190fd5b600254811115610f07576040805162461bcd60e51b815260206004820152601460248201527365787069726174696f6e20746f6f206c6172676560601b604482015290519081900360640190fd5b600354811015610f55576040805162461bcd60e51b8152602060048201526014602482015273195e1c1a5c985d1a5bdb881d1bdbc81cdb585b1b60621b604482015290519081900360640190fd5b60408051336020808301919091528183018790526001600160a01b0380891660608401528087166080808501919091528451808503909101815260a090930184528251928201929092206000818152600690925292902054168015610fef576040805162461bcd60e51b815260206004820152600b60248201526a1bdc99195c88195e1a5cdd60aa1b604482015290519081900360640190fd5b6001600160a01b03871661103f576040805162461bcd60e51b81526020600482015260126024820152712fb7333a21b7b73a3930b1ba1032b93937b960711b604482015290519081900360640190fd5b85611082576040805162461bcd60e51b815260206004820152600e60248201526d2fba37b5b2b724b21032b93937b960911b604482015290519081900360640190fd5b6001600160a01b0385166110cc576040805162461bcd60e51b815260206004820152600c60248201526b2fba37b5b2b71032b93937b960a11b604482015290519081900360640190fd5b8361110d576040805162461bcd60e51b815260206004820152600c60248201526b2fb83934b1b29032b93937b960a11b604482015290519081900360640190fd5b60008281526006602081905260409091208054336001600160a01b031991821617825560018201805482166001600160a01b038c811691909117909155600283018a905560038301805490921690891617905560048082018790556005820186905542919092015561117f908361165e565b50604080518581526020810185905280820184905290516001600160a01b03808816928992918b16917fed8ab8967d5eb2a680f3d424e1831536685eef731b72b1fc43c86fb6a25b3a509181900360600190a450505050505050565b600080806111ea60048561163d565b9050806111f682610a70565b9250925050915091565b600081565b600054610100900460ff168061121e575061121e61166a565b8061122c575060005460ff16155b6112675760405162461bcd60e51b815260040180806020018281038252602e815260200180611c05602e913960400191505060405180910390fd5b600054610100900460ff16158015611292576000805460ff1961ff0019909116610100171660011790555b61129d600083610827565b62127500600255620151806003558015610831576000805461ff00191690555050565b6000818152600160205260408120610d139061155c565b6000828152600160205260409020600201546112f5906107e7611567565b6108925760405162461bcd60e51b8152600401808060200182810382526030815260200180611bd56030913960400191505060405180910390fd5b60025481565b8181121561137f576040805162461bcd60e51b8152602060048201526011602482015270746f2073686f756c64203e3d2066726f6d60781b604482015290519081900360640190fd5b805b8281126114eb57600061139560048361163d565b90506113a081610a70565b6114e1576113ac611b05565b50600081815260066020818152604092839020835160e08101855281546001600160a01b0390811682526001830154811693820193909352600282015494810194909452600381015490911660608401526004808201546080850152600582015460a085015291015460c083015261142490836114f0565b50600082815260066020818152604080842080546001600160a01b031990811682556001820180548216905560028201869055600382018054909116905560048101859055600581018590559092019290925582518382015184840151606080870151608088015186516001600160a01b03948516815291841697820197909752808601969096529351921693909286927f33b7da6c221701ff7b8b309e18f806c9b95c042e722d833102e1d683a95c8fb69281900390910190a4505b5060001901611381565b505050565b6000610d10838361167b565b604080516001600160a01b0380861660248301528416604482015260648082018490528251808303909101815260849091019091526020810180516001600160e01b03166323b872dd60e01b179052611556908590611741565b50505050565b6000610d13826117f2565b3390565b600082815260016020526040902061158390826117f6565b1561083157611590611567565b6001600160a01b0316816001600160a01b0316837f2f8788117e7eff1d82e926ec794901d17c78024a50270940304540a733656f0d60405160405180910390a45050565b60008281526001602052604090206115ec908261180b565b15610831576115f9611567565b6001600160a01b0316816001600160a01b0316837ff6391f5c32d9c69d2a47ea670b442974b53935d1edc7fd64eb21e047a839171b60405160405180910390a45050565b6000610d108383611820565b6000610d10836001600160a01b038416611884565b6000610d10838361189c565b6000611675306118e6565b15905090565b6000818152600183016020526040812054801561173757835460001980830191908101906000908790839081106116ae57fe5b90600052602060002001549050808760000184815481106116cb57fe5b6000918252602080832090910192909255828152600189810190925260409020908401905586548790806116fb57fe5b60019003818190600052602060002001600090559055866001016000878152602001908152602001600020600090556001945050505050610d13565b6000915050610d13565b6060611796826040518060400160405280602081526020017f5361666545524332303a206c6f772d6c6576656c2063616c6c206661696c6564815250856001600160a01b03166118ec9092919063ffffffff16565b8051909150156114eb578080602001905160208110156117b557600080fd5b50516114eb5760405162461bcd60e51b815260040180806020018281038252602a815260200180611c33602a913960400191505060405180910390fd5b5490565b6000610d10836001600160a01b03841661189c565b6000610d10836001600160a01b03841661167b565b815460009082106118625760405162461bcd60e51b8152600401808060200182810382526022815260200180611b5e6022913960400191505060405180910390fd5b82600001828154811061187157fe5b9060005260206000200154905092915050565b60009081526001919091016020526040902054151590565b60006118a88383611884565b6118de57508154600181810184556000848152602080822090930184905584548482528286019093526040902091909155610d13565b506000610d13565b3b151590565b60606118fb8484600085611905565b90505b9392505050565b6060824710156119465760405162461bcd60e51b8152600401808060200182810382526026815260200180611baf6026913960400191505060405180910390fd5b61194f856118e6565b6119a0576040805162461bcd60e51b815260206004820152601d60248201527f416464726573733a2063616c6c20746f206e6f6e2d636f6e7472616374000000604482015290519081900360640190fd5b60006060866001600160a01b031685876040518082805190602001908083835b602083106119df5780518252601f1990920191602091820191016119c0565b6001836020036101000a03801982511681845116808217855250505050505090500191505060006040518083038185875af1925050503d8060008114611a41576040519150601f19603f3d011682016040523d82523d6000602084013e611a46565b606091505b5091509150611a56828286611a61565b979650505050505050565b60608315611a705750816118fe565b825115611a805782518084602001fd5b8160405162461bcd60e51b81526004018080602001828103825283818151815260200191508051906020019080838360005b83811015611aca578181015183820152602001611ab2565b50505050905090810190601f168015611af75780820380516001836020036101000a031916815260200191505b509250505060405180910390fd5b6040518060e0016040528060006001600160a01b0316815260200160006001600160a01b031681526020016000815260200160006001600160a01b03168152602001600081526020016000815260200160008152509056fe456e756d657261626c655365743a20696e646578206f7574206f6620626f756e6473416363657373436f6e74726f6c3a2073656e646572206d75737420626520616e2061646d696e20746f206772616e74416464726573733a20696e73756666696369656e742062616c616e636520666f722063616c6c416363657373436f6e74726f6c3a2073656e646572206d75737420626520616e2061646d696e20746f207265766f6b65496e697469616c697a61626c653a20636f6e747261637420697320616c726561647920696e697469616c697a65645361666545524332303a204552433230206f7065726174696f6e20646964206e6f742073756363656564416363657373436f6e74726f6c3a2063616e206f6e6c792072656e6f756e636520726f6c657320666f722073656c66a264697066735822122083524a9ec601fb30517fc86d119c8b5535da634c7d61bfb63c64a762c2849a7764736f6c634300060c0033",
  "immutableReferences": {},
  "source": "// SPDX-License-Identifier: MIT\npragma solidity 0.6.12;\n\nimport \"@openzeppelin/contracts/math/SafeMath.sol\";\nimport \"@openzeppelin/contracts/token/ERC721/IERC721.sol\";\nimport \"@openzeppelin/contracts/token/ERC20/IERC20.sol\";\nimport \"@openzeppelin/contracts/token/ERC20/SafeERC20.sol\";\nimport \"@openzeppelin/contracts/access/AccessControl.sol\";\nimport \"@openzeppelin/contracts/proxy/Initializable.sol\";\nimport \"./MarketplaceStorage.sol\";\n\n\ncontract MarketplaceDelegate is Initializable, AccessControl, MarketplaceStorage {\n    using SafeERC20 for IERC20;\n\n    event CreateOrder(address indexed _nftContract, uint indexed _tokenId, address indexed _token, uint _price, uint _expiration, uint _orderId);\n\n    event CancelOrder(uint indexed _tokenId);\n\n    event BuyOrder(uint indexed _orderId, uint indexed _tokenId, address indexed _buyer, address _seller, address _nftContract, address _token, uint price);\n    \n    event CleanOrder(uint indexed _orderId, uint indexed _tokenId, address indexed _seller, address _nftContract, address _token, uint price);\n\n    function initialize(address admin) public payable initializer {\n        _setupRole(DEFAULT_ADMIN_ROLE, admin);\n        maxExpirationTime = 14 days;\n        minExpirationTime = 1 days;\n    }\n\n    function configExpiration(uint _minExpirationTime, uint _maxExpirationTime) public {\n        require(hasRole(DEFAULT_ADMIN_ROLE, msg.sender));\n        maxExpirationTime = _maxExpirationTime;\n        minExpirationTime = _minExpirationTime;\n    }\n\n    /// @dev createOrder is called by a seller\n    /// @param _nftContract is the NFT contract address\n    /// @param _tokenId is the NFT tokenId\n    /// @param _expiration is the expiration of order in seconds\n    /// @param _token is the pay token contract address for buyer\n    /// @param _price is the amount of pay token\n    function createOrder(address _nftContract, uint _tokenId, address _token, uint _price, uint _expiration) external {\n        require(IERC721(_nftContract).ownerOf(_tokenId) == msg.sender, \"You have no access\");\n        require(IERC721(_nftContract).isApprovedForAll(msg.sender, address(this)), \"Must approve first\");\n        require(_expiration <= maxExpirationTime, \"expiration too large\");\n        require(_expiration >= minExpirationTime, \"expiration too small\");\n        uint orderId = uint(keccak256(abi.encode(msg.sender, _tokenId, _nftContract, _token)));\n        address owner = orders[orderId].owner;\n        require(owner == address(0), \"order exist\");\n        require(_nftContract != address(0), \"_nftContract error\");\n        require(_tokenId != 0, \"_tokenId error\");\n        require(_token != address(0), \"_token error\");\n        require(_price != 0, \"_price error\");\n\n        orders[orderId].owner = msg.sender;\n        orders[orderId].nftContract = _nftContract;\n        orders[orderId].tokenId = _tokenId;\n        orders[orderId].token = _token;\n        orders[orderId].price = _price;\n        orders[orderId].expiration = _expiration;\n        orders[orderId].createTime = block.timestamp;\n        orderIds.add(orderId);\n\n        emit CreateOrder(_nftContract, _tokenId, _token, _price, _expiration, orderId);\n    }\n\n    /// @param _nftContract is the NFT contract address\n    /// @param _tokenId is the NFT tokenId\n    /// @param _token is the pay token contract address for buyer\n    function cancelOrder(address _nftContract, uint _tokenId, address _token) external {\n        uint orderId = uint(keccak256(abi.encode(msg.sender, _tokenId, _nftContract, _token)));\n        address owner = orders[orderId].owner;\n        require(owner != address(0), \"order not exist\");\n        require(owner == msg.sender, \"order not yours\");\n        orderIds.remove(orderId);\n        delete orders[orderId];\n\n        emit CancelOrder(_tokenId);\n    }\n\n    function buyOrder(uint _orderId) external {\n        require(checkOrderValid(_orderId), \"order is not valid\");\n        OrderInfo memory order = orders[_orderId];\n\n        orderIds.remove(_orderId);\n        delete orders[_orderId];\n\n        IERC20(order.token).safeTransferFrom(msg.sender, order.owner, order.price);\n        IERC721(order.nftContract).safeTransferFrom(order.owner, msg.sender, order.tokenId);\n\n        emit BuyOrder(_orderId, order.tokenId, msg.sender, order.owner, order.nftContract, order.token, order.price);\n    }\n\n    function orderCount() public view returns (uint) {\n        return orderIds.length();\n    }\n\n    function getOrderId(uint index) public view returns (uint orderId, bool isValid) {\n        uint id = orderIds.at(index);\n        return (id, checkOrderValid(id));\n    }\n\n    function getOrderById(uint orderId) public view returns (address owner, uint tokenId, address token, uint price, uint expiration, uint createTime) {\n        OrderInfo storage info = orders[orderId];\n        owner = info.owner;\n        tokenId = info.tokenId;\n        token = info.token;\n        price = info.price;\n        expiration = info.expiration;\n        createTime = info.createTime;\n    }\n\n    function checkOrderValid(uint orderId) public view returns (bool) {\n        OrderInfo storage info = orders[orderId];\n        if (IERC721(info.nftContract).ownerOf(info.tokenId) != info.owner) {\n            return false;\n        }\n\n        if (!IERC721(info.nftContract).isApprovedForAll(info.owner, address(this))) {\n            return false;\n        }\n\n        if (info.createTime + info.expiration < block.timestamp) {\n            return false;\n        }\n\n        // fix for foridden cheaters NFT\n        if (info.tokenId >= 20 && info.tokenId <= 47) {\n            return false;\n        }\n        if (info.tokenId == 99) {\n            return false;\n        }\n        if (info.tokenId == 89) {\n            return false;\n        }\n        if (info.tokenId == 86) {\n            return false;\n        }\n        if (info.tokenId == 78) {\n            return false;\n        }\n        if (info.tokenId == 75) {\n            return false;\n        }\n\n        if (info.tokenId == 56) {\n            return false;\n        }\n\n        if (info.tokenId == 52) {\n            return false;\n        }\n\n        if (info.tokenId == 16) {\n            return false;\n        }\n\n        if (info.tokenId == 14) {\n            return false;\n        }\n\n        if (info.tokenId == 222) {\n            return false;\n        }\n\n        if (info.tokenId == 252) {\n            return false;\n        }\n\n        return true;\n    }\n\n    function cleanInvalidOrders(int from, int to) public {\n        require(to >= from, \"to should >= from\");\n        for (int i=to; i>= from; i--) {\n            uint orderId = orderIds.at(uint(i));\n            if (!checkOrderValid(orderId)) {\n                OrderInfo memory info = orders[orderId];\n                orderIds.remove(orderId);\n                delete orders[orderId];\n                emit CleanOrder(orderId, info.tokenId, info.owner, info.nftContract, info.token, info.price);\n            }\n        }\n    }\n}\n\n",
  "sourcePath": "/mnt/d/Zoo/zoo-keeper-contracts-main/contracts/Marketplace/MarketplaceDelegate.sol",
  "compiler": {
    "name": "solc",
    "version": "0.6.12+commit.27d51765.Emscripten.clang"
  },
  "schemaVersion": "3.3.4",
  "updatedAt": "2021-12-10T08:43:11.018Z",
  "networkType": "ethereum",
  "devdoc": {
    "kind": "dev",
    "methods": {
      "cancelOrder(address,uint256,address)": {
        "params": {
          "_nftContract": "is the NFT contract address",
          "_token": "is the pay token contract address for buyer",
          "_tokenId": "is the NFT tokenId"
        }
      },
      "createOrder(address,uint256,address,uint256,uint256)": {
        "details": "createOrder is called by a seller",
        "params": {
          "_expiration": "is the expiration of order in seconds",
          "_nftContract": "is the NFT contract address",
          "_price": "is the amount of pay token",
          "_token": "is the pay token contract address for buyer",
          "_tokenId": "is the NFT tokenId"
        }
      },
      "getRoleAdmin(bytes32)": {
        "details": "Returns the admin role that controls `role`. See {grantRole} and {revokeRole}. To change a role's admin, use {_setRoleAdmin}."
      },
      "getRoleMember(bytes32,uint256)": {
        "details": "Returns one of the accounts that have `role`. `index` must be a value between 0 and {getRoleMemberCount}, non-inclusive. Role bearers are not sorted in any particular way, and their ordering may change at any point. WARNING: When using {getRoleMember} and {getRoleMemberCount}, make sure you perform all queries on the same block. See the following https://forum.openzeppelin.com/t/iterating-over-elements-on-enumerableset-in-openzeppelin-contracts/2296[forum post] for more information."
      },
      "getRoleMemberCount(bytes32)": {
        "details": "Returns the number of accounts that have `role`. Can be used together with {getRoleMember} to enumerate all bearers of a role."
      },
      "grantRole(bytes32,address)": {
        "details": "Grants `role` to `account`. If `account` had not been already granted `role`, emits a {RoleGranted} event. Requirements: - the caller must have ``role``'s admin role."
      },
      "hasRole(bytes32,address)": {
        "details": "Returns `true` if `account` has been granted `role`."
      },
      "renounceRole(bytes32,address)": {
        "details": "Revokes `role` from the calling account. Roles are often managed via {grantRole} and {revokeRole}: this function's purpose is to provide a mechanism for accounts to lose their privileges if they are compromised (such as when a trusted device is misplaced). If the calling account had been granted `role`, emits a {RoleRevoked} event. Requirements: - the caller must be `account`."
      },
      "revokeRole(bytes32,address)": {
        "details": "Revokes `role` from `account`. If `account` had been granted `role`, emits a {RoleRevoked} event. Requirements: - the caller must have ``role``'s admin role."
      }
    },
    "version": 1
  },
  "userdoc": {
    "kind": "user",
    "methods": {},
    "version": 1
  }
}