{
  "contractName": "NFTFactoryDelegate",
  "abi": [
    {
      "anonymous": false,
      "inputs": [
        {
          "indexed": true,
          "internalType": "address",
          "name": "user",
          "type": "address"
        },
        {
          "indexed": false,
          "internalType": "uint256",
          "name": "price",
          "type": "uint256"
        }
      ],
      "name": "GoldenBuy",
      "type": "event"
    },
    {
      "anonymous": false,
      "inputs": [
        {
          "indexed": true,
          "internalType": "uint256",
          "name": "level",
          "type": "uint256"
        },
        {
          "indexed": true,
          "internalType": "uint256",
          "name": "category",
          "type": "uint256"
        },
        {
          "indexed": true,
          "internalType": "uint256",
          "name": "item",
          "type": "uint256"
        },
        {
          "indexed": false,
          "internalType": "uint256",
          "name": "random",
          "type": "uint256"
        },
        {
          "indexed": false,
          "internalType": "uint256",
          "name": "tokenId",
          "type": "uint256"
        },
        {
          "indexed": false,
          "internalType": "uint256",
          "name": "itemSupply",
          "type": "uint256"
        }
      ],
      "name": "MintNFT",
      "type": "event"
    },
    {
      "anonymous": false,
      "inputs": [
        {
          "indexed": true,
          "internalType": "bytes32",
          "name": "role",
          "type": "bytes32"
        },
        {
          "indexed": true,
          "internalType": "bytes32",
          "name": "previousAdminRole",
          "type": "bytes32"
        },
        {
          "indexed": true,
          "internalType": "bytes32",
          "name": "newAdminRole",
          "type": "bytes32"
        }
      ],
      "name": "RoleAdminChanged",
      "type": "event"
    },
    {
      "anonymous": false,
      "inputs": [
        {
          "indexed": true,
          "internalType": "bytes32",
          "name": "role",
          "type": "bytes32"
        },
        {
          "indexed": true,
          "internalType": "address",
          "name": "account",
          "type": "address"
        },
        {
          "indexed": true,
          "internalType": "address",
          "name": "sender",
          "type": "address"
        }
      ],
      "name": "RoleGranted",
      "type": "event"
    },
    {
      "anonymous": false,
      "inputs": [
        {
          "indexed": true,
          "internalType": "bytes32",
          "name": "role",
          "type": "bytes32"
        },
        {
          "indexed": true,
          "internalType": "address",
          "name": "account",
          "type": "address"
        },
        {
          "indexed": true,
          "internalType": "address",
          "name": "sender",
          "type": "address"
        }
      ],
      "name": "RoleRevoked",
      "type": "event"
    },
    {
      "anonymous": false,
      "inputs": [
        {
          "indexed": true,
          "internalType": "address",
          "name": "user",
          "type": "address"
        },
        {
          "indexed": false,
          "internalType": "uint256",
          "name": "price",
          "type": "uint256"
        }
      ],
      "name": "SilverBuy",
      "type": "event"
    },
    {
      "anonymous": false,
      "inputs": [
        {
          "indexed": true,
          "internalType": "address",
          "name": "user",
          "type": "address"
        },
        {
          "indexed": false,
          "internalType": "uint256",
          "name": "price",
          "type": "uint256"
        },
        {
          "indexed": false,
          "internalType": "uint256",
          "name": "_type",
          "type": "uint256"
        },
        {
          "indexed": false,
          "internalType": "uint256",
          "name": "tokenId",
          "type": "uint256"
        }
      ],
      "name": "ZooClaim",
      "type": "event"
    },
    {
      "anonymous": false,
      "inputs": [
        {
          "indexed": true,
          "internalType": "address",
          "name": "user",
          "type": "address"
        },
        {
          "indexed": false,
          "internalType": "uint256",
          "name": "price",
          "type": "uint256"
        },
        {
          "indexed": false,
          "internalType": "uint256",
          "name": "_type",
          "type": "uint256"
        }
      ],
      "name": "ZooStake",
      "type": "event"
    },
    {
      "inputs": [
        {
          "internalType": "uint256",
          "name": "",
          "type": "uint256"
        }
      ],
      "name": "CATEGORY_MASK",
      "outputs": [
        {
          "internalType": "uint256",
          "name": "",
          "type": "uint256"
        }
      ],
      "stateMutability": "view",
      "type": "function",
      "constant": true
    },
    {
      "inputs": [],
      "name": "DEFAULT_ADMIN_ROLE",
      "outputs": [
        {
          "internalType": "bytes32",
          "name": "",
          "type": "bytes32"
        }
      ],
      "stateMutability": "view",
      "type": "function",
      "constant": true
    },
    {
      "inputs": [
        {
          "internalType": "uint256",
          "name": "",
          "type": "uint256"
        }
      ],
      "name": "ITEM_MASK",
      "outputs": [
        {
          "internalType": "uint256",
          "name": "",
          "type": "uint256"
        }
      ],
      "stateMutability": "view",
      "type": "function",
      "constant": true
    },
    {
      "inputs": [
        {
          "internalType": "uint256",
          "name": "",
          "type": "uint256"
        }
      ],
      "name": "LEVEL_MASK",
      "outputs": [
        {
          "internalType": "uint256",
          "name": "",
          "type": "uint256"
        }
      ],
      "stateMutability": "view",
      "type": "function",
      "constant": true
    },
    {
      "inputs": [],
      "name": "ORACLE_ROLE",
      "outputs": [
        {
          "internalType": "bytes32",
          "name": "",
          "type": "bytes32"
        }
      ],
      "stateMutability": "view",
      "type": "function",
      "constant": true
    },
    {
      "inputs": [],
      "name": "dynamicMaxPrice",
      "outputs": [
        {
          "internalType": "uint256",
          "name": "",
          "type": "uint256"
        }
      ],
      "stateMutability": "view",
      "type": "function",
      "constant": true
    },
    {
      "inputs": [],
      "name": "dynamicMinPrice",
      "outputs": [
        {
          "internalType": "uint256",
          "name": "",
          "type": "uint256"
        }
      ],
      "stateMutability": "view",
      "type": "function",
      "constant": true
    },
    {
      "inputs": [],
      "name": "dynamicPriceTimeUnit",
      "outputs": [
        {
          "internalType": "uint256",
          "name": "",
          "type": "uint256"
        }
      ],
      "stateMutability": "view",
      "type": "function",
      "constant": true
    },
    {
      "inputs": [
        {
          "internalType": "address",
          "name": "",
          "type": "address"
        }
      ],
      "name": "emptyTimes",
      "outputs": [
        {
          "internalType": "uint256",
          "name": "",
          "type": "uint256"
        }
      ],
      "stateMutability": "view",
      "type": "function",
      "constant": true
    },
    {
      "inputs": [
        {
          "internalType": "bytes32",
          "name": "role",
          "type": "bytes32"
        }
      ],
      "name": "getRoleAdmin",
      "outputs": [
        {
          "internalType": "bytes32",
          "name": "",
          "type": "bytes32"
        }
      ],
      "stateMutability": "view",
      "type": "function",
      "constant": true
    },
    {
      "inputs": [
        {
          "internalType": "bytes32",
          "name": "role",
          "type": "bytes32"
        },
        {
          "internalType": "uint256",
          "name": "index",
          "type": "uint256"
        }
      ],
      "name": "getRoleMember",
      "outputs": [
        {
          "internalType": "address",
          "name": "",
          "type": "address"
        }
      ],
      "stateMutability": "view",
      "type": "function",
      "constant": true
    },
    {
      "inputs": [
        {
          "internalType": "bytes32",
          "name": "role",
          "type": "bytes32"
        }
      ],
      "name": "getRoleMemberCount",
      "outputs": [
        {
          "internalType": "uint256",
          "name": "",
          "type": "uint256"
        }
      ],
      "stateMutability": "view",
      "type": "function",
      "constant": true
    },
    {
      "inputs": [],
      "name": "goldenChestPrice",
      "outputs": [
        {
          "internalType": "uint256",
          "name": "",
          "type": "uint256"
        }
      ],
      "stateMutability": "view",
      "type": "function",
      "constant": true
    },
    {
      "inputs": [
        {
          "internalType": "bytes32",
          "name": "role",
          "type": "bytes32"
        },
        {
          "internalType": "address",
          "name": "account",
          "type": "address"
        }
      ],
      "name": "grantRole",
      "outputs": [],
      "stateMutability": "nonpayable",
      "type": "function"
    },
    {
      "inputs": [
        {
          "internalType": "bytes32",
          "name": "role",
          "type": "bytes32"
        },
        {
          "internalType": "address",
          "name": "account",
          "type": "address"
        }
      ],
      "name": "hasRole",
      "outputs": [
        {
          "internalType": "bool",
          "name": "",
          "type": "bool"
        }
      ],
      "stateMutability": "view",
      "type": "function",
      "constant": true
    },
    {
      "inputs": [],
      "name": "lastOrderTimestamp",
      "outputs": [
        {
          "internalType": "uint256",
          "name": "",
          "type": "uint256"
        }
      ],
      "stateMutability": "view",
      "type": "function",
      "constant": true
    },
    {
      "inputs": [],
      "name": "lastPrice",
      "outputs": [
        {
          "internalType": "uint256",
          "name": "",
          "type": "uint256"
        }
      ],
      "stateMutability": "view",
      "type": "function",
      "constant": true
    },
    {
      "inputs": [],
      "name": "maxNFTCategory",
      "outputs": [
        {
          "internalType": "uint256",
          "name": "",
          "type": "uint256"
        }
      ],
      "stateMutability": "view",
      "type": "function",
      "constant": true
    },
    {
      "inputs": [],
      "name": "maxNFTItem",
      "outputs": [
        {
          "internalType": "uint256",
          "name": "",
          "type": "uint256"
        }
      ],
      "stateMutability": "view",
      "type": "function",
      "constant": true
    },
    {
      "inputs": [],
      "name": "maxNFTLevel",
      "outputs": [
        {
          "internalType": "uint256",
          "name": "",
          "type": "uint256"
        }
      ],
      "stateMutability": "view",
      "type": "function",
      "constant": true
    },
    {
      "inputs": [],
      "name": "maxNFTRandom",
      "outputs": [
        {
          "internalType": "uint256",
          "name": "",
          "type": "uint256"
        }
      ],
      "stateMutability": "view",
      "type": "function",
      "constant": true
    },
    {
      "inputs": [
        {
          "internalType": "address",
          "name": "",
          "type": "address"
        },
        {
          "internalType": "address",
          "name": "",
          "type": "address"
        },
        {
          "internalType": "uint256",
          "name": "",
          "type": "uint256"
        },
        {
          "internalType": "bytes",
          "name": "",
          "type": "bytes"
        }
      ],
      "name": "onERC721Received",
      "outputs": [
        {
          "internalType": "bytes4",
          "name": "",
          "type": "bytes4"
        }
      ],
      "stateMutability": "nonpayable",
      "type": "function"
    },
    {
      "inputs": [],
      "name": "priceDown0",
      "outputs": [
        {
          "internalType": "uint256",
          "name": "",
          "type": "uint256"
        }
      ],
      "stateMutability": "view",
      "type": "function",
      "constant": true
    },
    {
      "inputs": [],
      "name": "priceDown1",
      "outputs": [
        {
          "internalType": "uint256",
          "name": "",
          "type": "uint256"
        }
      ],
      "stateMutability": "view",
      "type": "function",
      "constant": true
    },
    {
      "inputs": [],
      "name": "priceUp0",
      "outputs": [
        {
          "internalType": "uint256",
          "name": "",
          "type": "uint256"
        }
      ],
      "stateMutability": "view",
      "type": "function",
      "constant": true
    },
    {
      "inputs": [],
      "name": "priceUp1",
      "outputs": [
        {
          "internalType": "uint256",
          "name": "",
          "type": "uint256"
        }
      ],
      "stateMutability": "view",
      "type": "function",
      "constant": true
    },
    {
      "inputs": [
        {
          "internalType": "bytes32",
          "name": "role",
          "type": "bytes32"
        },
        {
          "internalType": "address",
          "name": "account",
          "type": "address"
        }
      ],
      "name": "renounceRole",
      "outputs": [],
      "stateMutability": "nonpayable",
      "type": "function"
    },
    {
      "inputs": [
        {
          "internalType": "bytes32",
          "name": "role",
          "type": "bytes32"
        },
        {
          "internalType": "address",
          "name": "account",
          "type": "address"
        }
      ],
      "name": "revokeRole",
      "outputs": [],
      "stateMutability": "nonpayable",
      "type": "function"
    },
    {
      "inputs": [
        {
          "internalType": "address",
          "name": "",
          "type": "address"
        },
        {
          "internalType": "uint256",
          "name": "",
          "type": "uint256"
        }
      ],
      "name": "stakeInfo",
      "outputs": [
        {
          "internalType": "uint256",
          "name": "lockTime",
          "type": "uint256"
        },
        {
          "internalType": "uint256",
          "name": "startTime",
          "type": "uint256"
        },
        {
          "internalType": "uint256",
          "name": "stakeAmount",
          "type": "uint256"
        }
      ],
      "stateMutability": "view",
      "type": "function",
      "constant": true
    },
    {
      "inputs": [
        {
          "internalType": "uint256",
          "name": "",
          "type": "uint256"
        }
      ],
      "name": "stakePlan",
      "outputs": [
        {
          "internalType": "uint256",
          "name": "priceMul",
          "type": "uint256"
        },
        {
          "internalType": "uint256",
          "name": "priceDiv",
          "type": "uint256"
        },
        {
          "internalType": "uint256",
          "name": "lockTime",
          "type": "uint256"
        }
      ],
      "stateMutability": "view",
      "type": "function",
      "constant": true
    },
    {
      "inputs": [],
      "name": "stakePlanCount",
      "outputs": [
        {
          "internalType": "uint256",
          "name": "",
          "type": "uint256"
        }
      ],
      "stateMutability": "view",
      "type": "function",
      "constant": true
    },
    {
      "inputs": [
        {
          "internalType": "uint256",
          "name": "",
          "type": "uint256"
        }
      ],
      "name": "stakedAmount",
      "outputs": [
        {
          "internalType": "uint256",
          "name": "",
          "type": "uint256"
        }
      ],
      "stateMutability": "view",
      "type": "function",
      "constant": true
    },
    {
      "inputs": [],
      "name": "zooHarmony",
      "outputs": [
        {
          "internalType": "address",
          "name": "",
          "type": "address"
        }
      ],
      "stateMutability": "view",
      "type": "function",
      "constant": true
    },
    {
      "inputs": [],
      "name": "zooNFT",
      "outputs": [
        {
          "internalType": "address",
          "name": "",
          "type": "address"
        }
      ],
      "stateMutability": "view",
      "type": "function",
      "constant": true
    },
    {
      "inputs": [
        {
          "internalType": "address",
          "name": "admin",
          "type": "address"
        },
        {
          "internalType": "address",
          "name": "_zooHarmony",
          "type": "address"
        },
        {
          "internalType": "address",
          "name": "_zooNFT",
          "type": "address"
        }
      ],
      "name": "initialize",
      "outputs": [],
      "stateMutability": "payable",
      "type": "function",
      "payable": true
    },
    {
      "inputs": [
        {
          "internalType": "address",
          "name": "oracle",
          "type": "address"
        }
      ],
      "name": "configOracle",
      "outputs": [],
      "stateMutability": "nonpayable",
      "type": "function"
    },
    {
      "inputs": [
        {
          "internalType": "uint256",
          "name": "seed_",
          "type": "uint256"
        }
      ],
      "name": "inputSeed",
      "outputs": [],
      "stateMutability": "nonpayable",
      "type": "function"
    },
    {
      "inputs": [
        {
          "internalType": "address",
          "name": "_zooHarmony",
          "type": "address"
        },
        {
          "internalType": "address",
          "name": "_zooNFT",
          "type": "address"
        }
      ],
      "name": "configTokenAddress",
      "outputs": [],
      "stateMutability": "nonpayable",
      "type": "function"
    },
    {
      "inputs": [
        {
          "internalType": "uint256",
          "name": "_golden",
          "type": "uint256"
        }
      ],
      "name": "configChestPrice",
      "outputs": [],
      "stateMutability": "nonpayable",
      "type": "function"
    },
    {
      "inputs": [
        {
          "internalType": "uint256",
          "name": "_dynamicPriceTimeUnit",
          "type": "uint256"
        },
        {
          "internalType": "uint256",
          "name": "_dynamicMinPrice",
          "type": "uint256"
        },
        {
          "internalType": "uint256",
          "name": "_dynamicMaxPrice",
          "type": "uint256"
        }
      ],
      "name": "configDynamicPrice",
      "outputs": [],
      "stateMutability": "nonpayable",
      "type": "function"
    },
    {
      "inputs": [
        {
          "internalType": "uint256",
          "name": "_maxLevel",
          "type": "uint256"
        },
        {
          "internalType": "uint256",
          "name": "_maxNFTCategory",
          "type": "uint256"
        },
        {
          "internalType": "uint256",
          "name": "_maxNFTItem",
          "type": "uint256"
        },
        {
          "internalType": "uint256",
          "name": "_maxNFTRandom",
          "type": "uint256"
        }
      ],
      "name": "configNFTParams",
      "outputs": [],
      "stateMutability": "nonpayable",
      "type": "function"
    },
    {
      "inputs": [
        {
          "internalType": "uint256",
          "name": "_up0",
          "type": "uint256"
        },
        {
          "internalType": "uint256",
          "name": "_up1",
          "type": "uint256"
        },
        {
          "internalType": "uint256",
          "name": "_down0",
          "type": "uint256"
        },
        {
          "internalType": "uint256",
          "name": "_down1",
          "type": "uint256"
        }
      ],
      "name": "configPriceUpDownParams",
      "outputs": [],
      "stateMutability": "nonpayable",
      "type": "function"
    },
    {
      "inputs": [
        {
          "internalType": "uint256",
          "name": "_stakePlanCount",
          "type": "uint256"
        }
      ],
      "name": "configStakePlanCount",
      "outputs": [],
      "stateMutability": "nonpayable",
      "type": "function"
    },
    {
      "inputs": [
        {
          "internalType": "uint256",
          "name": "id",
          "type": "uint256"
        },
        {
          "internalType": "uint256",
          "name": "priceMul",
          "type": "uint256"
        },
        {
          "internalType": "uint256",
          "name": "priceDiv",
          "type": "uint256"
        },
        {
          "internalType": "uint256",
          "name": "lockTime",
          "type": "uint256"
        }
      ],
      "name": "configStakePlanInfo",
      "outputs": [],
      "stateMutability": "nonpayable",
      "type": "function"
    },
    {
      "inputs": [],
      "name": "buyGoldenChest",
      "outputs": [],
      "stateMutability": "nonpayable",
      "type": "function"
    },
    {
      "inputs": [],
      "name": "buySilverChest",
      "outputs": [],
      "stateMutability": "nonpayable",
      "type": "function"
    },
    {
      "inputs": [],
      "name": "queryGoldenPrice",
      "outputs": [
        {
          "internalType": "uint256",
          "name": "",
          "type": "uint256"
        }
      ],
      "stateMutability": "view",
      "type": "function",
      "constant": true
    },
    {
      "inputs": [
        {
          "internalType": "uint256",
          "name": "_type",
          "type": "uint256"
        }
      ],
      "name": "stakeZoo",
      "outputs": [],
      "stateMutability": "nonpayable",
      "type": "function"
    },
    {
      "inputs": [
        {
          "internalType": "uint256",
          "name": "_type",
          "type": "uint256"
        }
      ],
      "name": "isStakeable",
      "outputs": [
        {
          "internalType": "bool",
          "name": "",
          "type": "bool"
        }
      ],
      "stateMutability": "view",
      "type": "function",
      "constant": true
    },
    {
      "inputs": [
        {
          "internalType": "uint256",
          "name": "_type",
          "type": "uint256"
        }
      ],
      "name": "stakeClaim",
      "outputs": [],
      "stateMutability": "nonpayable",
      "type": "function"
    },
    {
      "inputs": [
        {
          "internalType": "uint256",
          "name": "_type",
          "type": "uint256"
        }
      ],
      "name": "isStakeFinished",
      "outputs": [
        {
          "internalType": "bool",
          "name": "",
          "type": "bool"
        }
      ],
      "stateMutability": "view",
      "type": "function",
      "constant": true
    }
  ],
  "bytecode": "0x608060405234801561001057600080fd5b50613209806100206000396000f3fe6080604052600436106102e45760003560e01c806378e004cd11610190578063ad553a63116100dc578063cb2c02fe11610095578063e406c2591161006f578063e406c25914610ad5578063e5ffad1f14610b11578063e6dfae9e14610b26578063f4a411fe14610b3b576102e4565b8063cb2c02fe14610a72578063d547741f14610a87578063de8e362914610ac0576102e4565b8063ad553a6314610962578063b05ffbbe1461099e578063be80fd85146109b3578063bf283312146109dd578063c0c53b8b14610a10578063ca15c87314610a48576102e4565b806391d1485411610149578063a5ca8f2e11610123578063a5ca8f2e146108c6578063ab0b8b64146108db578063abc8cc83146108f0578063abce457c1461092c576102e4565b806391d14854146108635780639b50c8161461089c578063a217fddf146108b1576102e4565b806378e004cd1461078257806378f78eb1146107975780637d2798fa146107ac578063862ef26c146107d65780638958d34c146108095780639010d07c14610833576102e4565b806347f94a5d1161024f57806358fcc6ed116102085780635b74ebbb116101e25780635b74ebbb1461071957806369e26ef51461072e5780636c928e9e146107435780636fa09f0114610758576102e4565b806358fcc6ed1461069f5780635a459ed4146106b45780635b365cb6146106de576102e4565b806347f94a5d146105b957806348d5a04a146105ce578063494c0d24146105e35780634c0659291461060d5780634e77ed2014610637578063560178a814610675576102e4565b80631ad954d0116102a15780631ad954d0146104855780631c43bd7d1461049a578063248a9ca3146104f15780632f2ff15d1461051b57806336568abe146105565780634363a0371461058f576102e4565b80630249aad8146102e9578063053f14da1461032557806307d7ca2b1461033a57806307e2cea51461036b578063150b7a02146103805780631a8a8f4214610470575b600080fd5b3480156102f557600080fd5b506103136004803603602081101561030c57600080fd5b5035610b65565b60408051918252519081900360200190f35b34801561033157600080fd5b50610313610b83565b34801561034657600080fd5b5061034f610b89565b604080516001600160a01b039092168252519081900360200190f35b34801561037757600080fd5b50610313610b98565b34801561038c57600080fd5b50610453600480360360808110156103a357600080fd5b6001600160a01b038235811692602081013590911691604082013591908101906080810160608201356401000000008111156103de57600080fd5b8201836020820111156103f057600080fd5b8035906020019184600183028401116401000000008311171561041257600080fd5b91908080601f016020809104026020016040519081016040528093929190818152602001838380828437600092019190915250929550610baa945050505050565b604080516001600160e01b03199092168252519081900360200190f35b34801561047c57600080fd5b50610313610bba565b34801561049157600080fd5b50610313610c54565b3480156104a657600080fd5b506104d3600480360360408110156104bd57600080fd5b506001600160a01b038135169060200135610c5a565b60408051938452602084019290925282820152519081900360600190f35b3480156104fd57600080fd5b506103136004803603602081101561051457600080fd5b5035610c82565b34801561052757600080fd5b506105546004803603604081101561053e57600080fd5b50803590602001356001600160a01b0316610c9a565b005b34801561056257600080fd5b506105546004803603604081101561057957600080fd5b50803590602001356001600160a01b0316610d06565b34801561059b57600080fd5b50610554600480360360208110156105b257600080fd5b5035610d67565b3480156105c557600080fd5b50610313610d80565b3480156105da57600080fd5b50610313610d86565b3480156105ef57600080fd5b506103136004803603602081101561060657600080fd5b5035610d8c565b34801561061957600080fd5b506105546004803603602081101561063057600080fd5b5035610d99565b34801561064357600080fd5b506106616004803603602081101561065a57600080fd5b5035610dbf565b604080519115158252519081900360200190f35b34801561068157600080fd5b506103136004803603602081101561069857600080fd5b5035610df2565b3480156106ab57600080fd5b50610313610dff565b3480156106c057600080fd5b50610313600480360360208110156106d757600080fd5b5035610e05565b3480156106ea57600080fd5b506105546004803603604081101561070157600080fd5b506001600160a01b0381358116916020013516610e17565b34801561072557600080fd5b50610313610e59565b34801561073a57600080fd5b50610313610e5f565b34801561074f57600080fd5b5061034f610e65565b34801561076457600080fd5b506104d36004803603602081101561077b57600080fd5b5035610e74565b34801561078e57600080fd5b50610554610e95565b3480156107a357600080fd5b50610313611295565b3480156107b857600080fd5b50610554600480360360208110156107cf57600080fd5b503561129b565b3480156107e257600080fd5b50610554600480360360208110156107f957600080fd5b50356001600160a01b031661166b565b34801561081557600080fd5b506105546004803603602081101561082c57600080fd5b50356116ef565b34801561083f57600080fd5b5061034f6004803603604081101561085657600080fd5b5080359060200135611904565b34801561086f57600080fd5b506106616004803603604081101561088657600080fd5b50803590602001356001600160a01b0316611925565b3480156108a857600080fd5b5061031361193d565b3480156108bd57600080fd5b50610313611943565b3480156108d257600080fd5b50610313611948565b3480156108e757600080fd5b5061031361194e565b3480156108fc57600080fd5b506105546004803603608081101561091357600080fd5b5080359060208101359060408101359060600135611954565b34801561093857600080fd5b506105546004803603606081101561094f57600080fd5b508035906020810135906040013561197c565b34801561096e57600080fd5b506105546004803603608081101561098557600080fd5b508035906020810135906040810135906060013561199e565b3480156109aa57600080fd5b506105546119cf565b3480156109bf57600080fd5b50610554600480360360208110156109d657600080fd5b5035611d32565b3480156109e957600080fd5b5061031360048036036020811015610a0057600080fd5b50356001600160a01b0316611d54565b61055460048036036060811015610a2657600080fd5b506001600160a01b038135811691602081013582169160409091013516611d66565b348015610a5457600080fd5b5061031360048036036020811015610a6b57600080fd5b503561213f565b348015610a7e57600080fd5b50610313612156565b348015610a9357600080fd5b5061055460048036036040811015610aaa57600080fd5b50803590602001356001600160a01b031661215c565b348015610acc57600080fd5b506103136121b5565b348015610ae157600080fd5b5061055460048036036080811015610af857600080fd5b50803590602081013590604081013590606001356121bb565b348015610b1d57600080fd5b506103136121e3565b348015610b3257600080fd5b506103136121e9565b348015610b4757600080fd5b5061066160048036036020811015610b5e57600080fd5b50356121ef565b60168181548110610b7257fe5b600091825260209091200154905081565b600c5481565b6007546001600160a01b031681565b60008051602061311a83398151915281565b630a85bd0160e11b949350505050565b6000600d5460001415610bd05750600554610c51565b6000610beb601354600d54420361222490919063ffffffff16565b905080610bfc575050600c54610c51565b600c5460005b82811015610c4c57610c2b601154610c256010548561228b90919063ffffffff16565b90612224565b9150601554821015610c44576015549350505050610c51565b600101610c02565b509150505b90565b60155481565b6002602081815260009384526040808520909152918352912080546001820154919092015483565b6000818152600160205260409020600201545b919050565b600082815260016020526040902060020154610cbd90610cb86122e4565b611925565b610cf85760405162461bcd60e51b815260040180806020018281038252602f815260200180613067602f913960400191505060405180910390fd5b610d0282826122e8565b5050565b610d0e6122e4565b6001600160a01b0316816001600160a01b031614610d5d5760405162461bcd60e51b815260040180806020018281038252602f8152602001806131a5602f913960400191505060405180910390fd5b610d028282612351565b610d72600033611925565b610d7b57600080fd5b601255565b60055481565b600f5481565b60178181548110610b7257fe5b610db160008051602061311a83398151915233611925565b610dba57600080fd5b601a55565b33600090815260026020908152604080832084845290915281208054600190910154610dea916123ba565b421192915050565b60188181548110610b7257fe5b60115481565b60196020526000908152604090205481565b610e22600033611925565b610e2b57600080fd5b600680546001600160a01b039384166001600160a01b03199182161790915560078054929093169116179055565b600e5481565b60135481565b6006546001600160a01b031681565b60046020526000908152604090208054600182015460029092015490919083565b333214610ee6576040805162461bcd60e51b815260206004820152601a60248201527918d85b881b9bdd0818d85b1b08199c9bdb4818dbdb9d1c9858dd60321b604482015290519081900360640190fd5b6000610ef0610bba565b42600d559050610eff81612414565b610f0a81600a612224565b600654604080516323b872dd60e01b81523360048201523060248201526044810184905290519293506001600160a01b03909116916323b872dd916064808201926020929091908290030181600087803b158015610f6757600080fd5b505af1158015610f7b573d6000803e3d6000fd5b505050506040513d6020811015610f9157600080fd5b505060065460408051630852cd8d60e31b81526004810184905290516001600160a01b03909216916342966c689160248082019260009290919082900301818387803b158015610fe057600080fd5b505af1158015610ff4573d6000803e3d6000fd5b505033600090815260036020526040812054909250600911905061101a57506001611025565b611022612465565b90505b60408051838152905133917fa5dd2014c0b73b051411541584d2e8926b0ac703f2c8e3fd21eeb41b677501bc919081900360200190a2806110ae57336000908152600360209081526040808320805460010190558051838152918201839052818101839052518291829160008051602061315b8339815191529181900360600190a45050611293565b336000908152600360205260408120819055808080806110cd816125de565b600754604080516315c7bf4560e31b815260048101889052602481018790526044810186905260648101859052608481018490529051969b5094995092975090955093506001600160a01b03169163ae3dfa289160a48082019260009290919082900301818387803b15801561114257600080fd5b505af1158015611156573d6000803e3d6000fd5b505060075460408051632142170760e11b8152306004820152336024820152604481018a905290516001600160a01b0390921693506342842e0e925060648082019260009290919082900301818387803b1580156111b357600080fd5b505af11580156111c7573d6000803e3d6000fd5b5050600754604080516342a9111b60e01b81526004810189905260248101889052604481018790529051600094506001600160a01b0390921692506342a9111b916064808301926020929190829003018186803b15801561122757600080fd5b505afa15801561123b573d6000803e3d6000fd5b505050506040513d602081101561125157600080fd5b50516040805184815260208101899052808201839052905191925084918691889160008051602061315b8339815191529181900360600190a450505050505050505b565b600a5481565b3332146112ec576040805162461bcd60e51b815260206004820152601a60248201527918d85b881b9bdd0818d85b1b08199c9bdb4818dbdb9d1c9858dd60321b604482015290519081900360640190fd5b6012548110611330576040805162461bcd60e51b815260206004820152600b60248201526a2fba3cb8329032b93937b960a91b604482015290519081900360640190fd5b61133981610dbf565b61138a576040805162461bcd60e51b815260206004820152601c60248201527f5468657265206973207374696c6c2070656e64696e67207374616b6500000000604482015290519081900360640190fd5b3360009081526002602081815260408084208585529091529091200154806113e4576040805162461bcd60e51b81526020600482015260086024820152676e6f207374616b6560c01b604482015290519081900360640190fd5b336000908152600260208181526040808420868552909152822082815560018082018490559101829055819081908190819061141f906125de565b600754604080516315c7bf4560e31b815260048101889052602481018790526044810186905260648101859052608481018490529051969b5094995092975090955093506001600160a01b03169163ae3dfa289160a48082019260009290919082900301818387803b15801561149457600080fd5b505af11580156114a8573d6000803e3d6000fd5b505060075460408051632142170760e11b8152306004820152336024820152604481018a905290516001600160a01b0390921693506342842e0e925060648082019260009290919082900301818387803b15801561150557600080fd5b505af1158015611519573d6000803e3d6000fd5b5050600754604080516342a9111b60e01b81526004810189905260248101889052604481018790529051600094506001600160a01b0390921692506342a9111b916064808301926020929190829003018186803b15801561157957600080fd5b505afa15801561158d573d6000803e3d6000fd5b505050506040513d60208110156115a357600080fd5b50516040805184815260208101899052808201839052905191925084918691889160008051602061315b8339815191529181900360600190a46006546115f3906001600160a01b031633896128d8565b60008881526019602052604090205461160c908861292f565b6000898152601960209081526040918290209290925580518981529182018a90528181018890525133917f27c8a80cb01ad7ad27e5a087cf062e9b48679ca14a673cc2f3adb58d5ba3b7d2919081900360600190a25050505050505050565b611676600033611925565b61167f57600080fd5b61169860008051602061311a833981519152600061298c565b6116b060008051602061311a83398151915282610c9a565b50604080513360208083019190915260001943014082840152416060808401919091528351808403909101815260809092019092528051910120601a55565b6116f881610dbf565b611749576040805162461bcd60e51b815260206004820152601c60248201527f5468657265206973207374696c6c2070656e64696e67207374616b6500000000604482015290519081900360640190fd5b601254811061178d576040805162461bcd60e51b815260206004820152600b60248201526a2fba3cb8329032b93937b960a91b604482015290519081900360640190fd5b6000611797610bba565b42600d5590506117a681612414565b336000908152600260209081526040808320858452825280832042600191820155600490925282209081015490546117e49190610c2590859061228b565b3360008181526002602081815260408084208985528083528185208085018890556004808552838720909501549184525560065481516323b872dd60e01b81529384019590955230602484015260448301869052519495506001600160a01b03909316936323b872dd9360648084019491938390030190829087803b15801561186c57600080fd5b505af1158015611880573d6000803e3d6000fd5b505050506040513d602081101561189657600080fd5b50506000838152601960205260409020546118b190826123ba565b600084815260196020908152604091829020929092558051838152918201859052805133927fe292920e16ea1e5db220c68286e3d1da1ad94aa5abb8304ea32420c9349f962992908290030190a2505050565b600082815260016020526040812061191c90836129de565b90505b92915050565b600082815260016020526040812061191c90836129ea565b60095481565b600081565b600d5481565b60145481565b61195f600033611925565b61196857600080fd5b600893909355600991909155600a55600b55565b611987600033611925565b61199057600080fd5b601392909255601555601455565b6119a9600033611925565b6119b257600080fd5b600093845260046020526040909320918255600182015560020155565b333214611a20576040805162461bcd60e51b815260206004820152601a60248201527918d85b881b9bdd0818d85b1b08199c9bdb4818dbdb9d1c9858dd60321b604482015290519081900360640190fd5b6000611a2a610bba565b42600d559050611a3981612414565b600654604080516323b872dd60e01b81523360048201523060248201526044810184905290516001600160a01b03909216916323b872dd916064808201926020929091908290030181600087803b158015611a9357600080fd5b505af1158015611aa7573d6000803e3d6000fd5b505050506040513d6020811015611abd57600080fd5b505060065460408051630852cd8d60e31b81526004810184905290516001600160a01b03909216916342966c689160248082019260009290919082900301818387803b158015611b0c57600080fd5b505af1158015611b20573d6000803e3d6000fd5b505050506000806000806000611b3660016125de565b600754604080516315c7bf4560e31b815260048101889052602481018790526044810186905260648101859052608481018490529051969b5094995092975090955093506001600160a01b03169163ae3dfa289160a48082019260009290919082900301818387803b158015611bab57600080fd5b505af1158015611bbf573d6000803e3d6000fd5b505060075460408051632142170760e11b8152306004820152336024820152604481018a905290516001600160a01b0390921693506342842e0e925060648082019260009290919082900301818387803b158015611c1c57600080fd5b505af1158015611c30573d6000803e3d6000fd5b5050600754604080516342a9111b60e01b81526004810189905260248101889052604481018790529051600094506001600160a01b0390921692506342a9111b916064808301926020929190829003018186803b158015611c9057600080fd5b505afa158015611ca4573d6000803e3d6000fd5b505050506040513d6020811015611cba57600080fd5b50516040805184815260208101899052808201839052905191925084918691889160008051602061315b8339815191529181900360600190a460408051888152905133917fcc5e195177a6f59b683c8534d529cd28136b257606a53e73b0e4f7cb90c07870919081900360200190a250505050505050565b611d3d600033611925565b611d4657600080fd5b600581905542600d55600c55565b60036020526000908152604090205481565b600054610100900460ff1680611d7f5750611d7f6129ff565b80611d8d575060005460ff16155b611dc85760405162461bcd60e51b815260040180806020018281038252602e8152602001806130ec602e913960400191505060405180910390fd5b600054610100900460ff16158015611df3576000805460ff1961ff0019909116610100171660011790555b611dfe600085610cf8565b69054b40b1f852bda0000060058181556004600881905560066009819055600a92835561012c600b5580546001600160a01b038089166001600160a01b03199283161790925560078054928816929091169190911790556065600e556064600f819055606360108190556011829055610e10601355683635c9adc5dea00000601555690a968163f0a57b40000060145542600d55600c9490945560036012556020919091527f17ef568e3e12ab5b9c7254a8d58478811de00f9e6eb34345acd53bf8fd09d3ec9190915560017f17ef568e3e12ab5b9c7254a8d58478811de00f9e6eb34345acd53bf8fd09d3ed8190556202a3007f17ef568e3e12ab5b9c7254a8d58478811de00f9e6eb34345acd53bf8fd09d3ee557fabd6e7cb50984ff9c2f3e18a2660c3353dadf4e3291deeb275dae2cd1e44fe058190557fabd6e7cb50984ff9c2f3e18a2660c3353dadf4e3291deeb275dae2cd1e44fe068190556213c6807fabd6e7cb50984ff9c2f3e18a2660c3353dadf4e3291deeb275dae2cd1e44fe07557f91da3fd0782e51c6b3986e9e672fd566868e71f3dbc2d6c2cd6fbb3e361af2a781905560027f91da3fd0782e51c6b3986e9e672fd566868e71f3dbc2d6c2cd6fbb3e361af2a85562278d007f91da3fd0782e51c6b3986e9e672fd566868e71f3dbc2d6c2cd6fbb3e361af2a955601680548083018255603c7fd833147d7dc355ba459fc788f669e58cfaf9dc25ddcd0702e87d69c7b51242899182015581548084018355605a90820181905582548085018455605f90830181905583548086019094559290910184905560178054808501825560287fc624b66cc0138b8fabc209247f72d758e1cf3343756d543badbf24212bed8c159182015581548086018355604990820155815480860183558101929092558054808501825560619083015580548085018255820195909555845480840190955593909301829055601880548083018255600082905260237fb13d2d76d1f4b7be834882e410b3e3a8afaf69f83600ae24db354391d2378d2e9182015581548084018355604190820155815480840183556055908201558154808401835581019490945580549182019055909101558015612139576000805461ff00191690555b50505050565b600081815260016020526040812061191f90612a10565b60125481565b60008281526001602052604090206002015461217a90610cb86122e4565b610d5d5760405162461bcd60e51b81526004018080602001828103825260308152602001806130bc6030913960400191505060405180910390fd5b60085481565b6121c6600033611925565b6121cf57600080fd5b600e93909355600f91909155601055601155565b600b5481565b60105481565b6000601254821061220257506000610c95565b5033600090815260026020818152604080842094845293905291902001541590565b600080821161227a576040805162461bcd60e51b815260206004820152601a60248201527f536166654d6174683a206469766973696f6e206279207a65726f000000000000604482015290519081900360640190fd5b81838161228357fe5b049392505050565b60008261229a5750600061191f565b828202828482816122a757fe5b041461191c5760405162461bcd60e51b815260040180806020018281038252602181526020018061313a6021913960400191505060405180910390fd5b3390565b60008281526001602052604090206123009082612a1b565b15610d025761230d6122e4565b6001600160a01b0316816001600160a01b0316837f2f8788117e7eff1d82e926ec794901d17c78024a50270940304540a733656f0d60405160405180910390a45050565b60008281526001602052604090206123699082612a30565b15610d02576123766122e4565b6001600160a01b0316816001600160a01b0316837ff6391f5c32d9c69d2a47ea670b442974b53935d1edc7fd64eb21e047a839171b60405160405180910390a45050565b60008282018381101561191c576040805162461bcd60e51b815260206004820152601b60248201527f536166654d6174683a206164646974696f6e206f766572666c6f770000000000604482015290519081900360640190fd5b601454612432600f54610c25600e548561228b90919063ffffffff16565b111561244357601454600c55612462565b61245e600f54610c25600e548461228b90919063ffffffff16565b600c555b50565b600080600760009054906101000a90046001600160a01b03166001600160a01b03166318160ddd6040518163ffffffff1660e01b815260040160206040518083038186803b1580156124b657600080fd5b505afa1580156124ca573d6000803e3d6000fd5b505050506040513d60208110156124e057600080fd5b505190506000336000194301404142856124f8612a45565b604080516001600160a01b0397881660208083019190915281830197909752949096166060850152608084019290925260a083015260c0808301919091528351808303909101815260e082018452805190830120610100808301829052845180840390910181526101208301855280519084012061014080840182905285518085039091018152610160909301909452815191909201209092506125be600a6125b86125a6846103e8612b3f565b6125b2866103e8612b3f565b906123ba565b90612b3f565b600614156125d3576001945050505050610c51565b600094505050505090565b600080600080600080600760009054906101000a90046001600160a01b03166001600160a01b03166318160ddd6040518163ffffffff1660e01b815260040160206040518083038186803b15801561263557600080fd5b505afa158015612649573d6000803e3d6000fd5b505050506040513d602081101561265f57600080fd5b5051600181019650905060008633600019430140414261267d612a45565b604080516020808201989098526001600160a01b039687168183015260608082019690965293909516608084015260a083019190915260c0808301919091528351808303909101815260e08201845280519085012061010080830182905284518084039091018152610120830185528051908601206101408084018290528551808503909101815261016084018652805190870120610180808501829052865180860390910181526101a0850187528051908801206101c0808601829052875180870390910181526101e090950190965283519390960192909220909550909392916127c49061276e908390612b3f565b60168054806020026020016040519081016040528092919081815260200182805480156127ba57602002820191906000526020600020905b8154815260200190600101908083116127a6575b5050505050612ba6565b600101995061282b6127d7836064612b3f565b60178054806020026020016040519081016040528092919081815260200182805480156127ba57602002820191906000526020600020908154815260200190600101908083116127a6575050505050612ba6565b60010198508b156128a257612898612844846064612b3f565b60188054806020026020016040519081016040528092919081815260200182805480156127ba57602002820191906000526020600020908154815260200190600101908083116127a6575050505050612ba6565b60010197506128b6565b6128b0612844856055612b3f565b60010197505b600b546128c4908690612b3f565b600101965050505050505091939590929450565b604080516001600160a01b038416602482015260448082018490528251808303909101815260649091019091526020810180516001600160e01b031663a9059cbb60e01b17905261292a908490612be4565b505050565b600082821115612986576040805162461bcd60e51b815260206004820152601e60248201527f536166654d6174683a207375627472616374696f6e206f766572666c6f770000604482015290519081900360640190fd5b50900390565b600082815260016020526040808220600201549051839285917fbd79b86ffe0ab8e8776151514217cd7cacd52c909f66475c3af44e129f0b00ff9190a460009182526001602052604090912060020155565b600061191c8383612c95565b600061191c836001600160a01b038416612cf9565b6000612a0a30612d11565b15905090565b600061191f82612d17565b600061191c836001600160a01b038416612d1b565b600061191c836001600160a01b038416612d65565b600080612a5f60008051602061311a83398151915261213f565b90506001811015612ab7576040805162461bcd60e51b815260206004820152601760248201527f6e6f2070726976617465206f7261636c6520666f756e64000000000000000000604482015290519081900360640190fd5b6000612ad460008051602061311a83398151915260018403611904565b9050806001600160a01b0316634c06592960016040518263ffffffff1660e01b815260040180828152602001915050600060405180830381600087803b158015612b1d57600080fd5b505af1158015612b31573d6000803e3d6000fd5b50505050601a549250505090565b6000808211612b95576040805162461bcd60e51b815260206004820152601860248201527f536166654d6174683a206d6f64756c6f206279207a65726f0000000000000000604482015290519081900360640190fd5b818381612b9e57fe5b069392505050565b6000805b8251811015612bdd57828181518110612bbf57fe5b6020026020010151841015612bd557905061191f565b600101612baa565b5092915050565b6060612c39826040518060400160405280602081526020017f5361666545524332303a206c6f772d6c6576656c2063616c6c206661696c6564815250856001600160a01b0316612e2b9092919063ffffffff16565b80519091501561292a57808060200190516020811015612c5857600080fd5b505161292a5760405162461bcd60e51b815260040180806020018281038252602a81526020018061317b602a913960400191505060405180910390fd5b81546000908210612cd75760405162461bcd60e51b81526004018080602001828103825260228152602001806130456022913960400191505060405180910390fd5b826000018281548110612ce657fe5b9060005260206000200154905092915050565b60009081526001919091016020526040902054151590565b3b151590565b5490565b6000612d278383612cf9565b612d5d5750815460018181018455600084815260208082209093018490558454848252828601909352604090209190915561191f565b50600061191f565b60008181526001830160205260408120548015612e215783546000198083019190810190600090879083908110612d9857fe5b9060005260206000200154905080876000018481548110612db557fe5b600091825260208083209091019290925582815260018981019092526040902090840190558654879080612de557fe5b6001900381819060005260206000200160009055905586600101600087815260200190815260200160002060009055600194505050505061191f565b600091505061191f565b6060612e3a8484600085612e44565b90505b9392505050565b606082471015612e855760405162461bcd60e51b81526004018080602001828103825260268152602001806130966026913960400191505060405180910390fd5b612e8e85612d11565b612edf576040805162461bcd60e51b815260206004820152601d60248201527f416464726573733a2063616c6c20746f206e6f6e2d636f6e7472616374000000604482015290519081900360640190fd5b60006060866001600160a01b031685876040518082805190602001908083835b60208310612f1e5780518252601f199092019160209182019101612eff565b6001836020036101000a03801982511681845116808217855250505050505090500191505060006040518083038185875af1925050503d8060008114612f80576040519150601f19603f3d011682016040523d82523d6000602084013e612f85565b606091505b5091509150612f95828286612fa0565b979650505050505050565b60608315612faf575081612e3d565b825115612fbf5782518084602001fd5b8160405162461bcd60e51b81526004018080602001828103825283818151815260200191508051906020019080838360005b83811015613009578181015183820152602001612ff1565b50505050905090810190601f1680156130365780820380516001836020036101000a031916815260200191505b509250505060405180910390fdfe456e756d657261626c655365743a20696e646578206f7574206f6620626f756e6473416363657373436f6e74726f6c3a2073656e646572206d75737420626520616e2061646d696e20746f206772616e74416464726573733a20696e73756666696369656e742062616c616e636520666f722063616c6c416363657373436f6e74726f6c3a2073656e646572206d75737420626520616e2061646d696e20746f207265766f6b65496e697469616c697a61626c653a20636f6e747261637420697320616c726561647920696e697469616c697a656468e79a7bf1e0bc45d0a330c573bc367f9cf464fd326078812f301165fbda4ef1536166654d6174683a206d756c7469706c69636174696f6e206f766572666c6f77e8ed935bec309d65650068c3f48b35c07f0e18325019d167552cadea908f524e5361666545524332303a204552433230206f7065726174696f6e20646964206e6f742073756363656564416363657373436f6e74726f6c3a2063616e206f6e6c792072656e6f756e636520726f6c657320666f722073656c66a2646970667358221220b4f9b95eafd36f83368c5b49831ea739cb84f83d81a4b871ba174b9944ad89bf64736f6c634300060c0033",
  "immutableReferences": {},
  "source": "// SPDX-License-Identifier: MIT\npragma solidity 0.6.12;\n\n\nimport \"@openzeppelin/contracts/token/ERC721/ERC721.sol\";\nimport \"@openzeppelin/contracts/token/ERC20/IERC20.sol\";\nimport \"@openzeppelin/contracts/token/ERC20/SafeERC20.sol\";\nimport \"@openzeppelin/contracts/access/AccessControl.sol\";\nimport \"@openzeppelin/contracts/proxy/Initializable.sol\";\nimport \"@openzeppelin/contracts/token/ERC721/ERC721Holder.sol\";\n\nimport \"./NFTFactoryStorageV2.sol\";\n\ninterface IZooHarmony {\n    function burn(uint256 _amount) external;\n}\n\ninterface IZooNFTMint {\n    function mint(uint tokenId, uint _level, uint _category, uint _item, uint _random) external;\n    function totalSupply() external view returns (uint);\n    function itemSupply(uint _level, uint _category, uint _item) external view returns (uint);\n}\n\ninterface IPrivateOracle {\n    function inputSeed(uint seed_) external;\n}\n\n// NFTFactory\ncontract NFTFactoryDelegate is Initializable, AccessControl, ERC721Holder, NFTFactoryStorageV2 {\n    using SafeERC20 for IERC20;\n\n    event MintNFT(uint indexed level, uint indexed category, uint indexed item, uint random, uint tokenId, uint itemSupply);\n\n    event GoldenBuy(address indexed user, uint price);\n    \n    event SilverBuy(address indexed user, uint price);\n\n    event ZooStake(address indexed user, uint price, uint _type);\n\n    event ZooClaim(address indexed user, uint price, uint _type, uint tokenId);\n\n    function initialize(address admin, address _zooHarmony, address _zooNFT) public payable initializer {\n        _setupRole(DEFAULT_ADMIN_ROLE, admin);\n        goldenChestPrice = 25000 ether;\n        maxNFTLevel = 4;\n        maxNFTCategory = 6;\n        maxNFTItem = 5;\n        maxNFTRandom = 300;\n        zooHarmony = _zooHarmony;\n        zooNFT = _zooNFT;\n        priceUp0 = 101;\n        priceUp1 = 100;\n        priceDown0 = 99;\n        priceDown1 = 100;\n        dynamicPriceTimeUnit = 1 hours;\n        dynamicMinPrice = 1000 ether;\n        dynamicMaxPrice = 50000 ether;\n        lastOrderTimestamp = block.timestamp;\n        lastPrice = goldenChestPrice;\n        stakePlanCount = 3;\n        stakePlan[0].priceMul = 10;\n        stakePlan[0].priceDiv = 1;\n        stakePlan[0].lockTime = 48 hours;\n        stakePlan[1].priceMul = 1;\n        stakePlan[1].priceDiv = 1;\n        stakePlan[1].lockTime = 15 days;\n        stakePlan[2].priceMul = 1;\n        stakePlan[2].priceDiv = 2;\n        stakePlan[2].lockTime = 30 days;\n\n        // 60%, 30%, 5%, 1%\n        LEVEL_MASK.push(60);\n        LEVEL_MASK.push(90);\n        LEVEL_MASK.push(95);\n        LEVEL_MASK.push(100);\n\n        // 40%, 33%, 17%, 7%, 2%, 1%\n        CATEGORY_MASK.push(40);\n        CATEGORY_MASK.push(73);\n        CATEGORY_MASK.push(90);\n        CATEGORY_MASK.push(97);\n        CATEGORY_MASK.push(99);\n        CATEGORY_MASK.push(100);\n\n        // 35%, 30%, 20%, 10%, 5%\n        ITEM_MASK.push(35);\n        ITEM_MASK.push(65);\n        ITEM_MASK.push(85);\n        ITEM_MASK.push(95);\n        ITEM_MASK.push(100);\n    }\n\n    function configOracle(address oracle) external {\n        require(hasRole(DEFAULT_ADMIN_ROLE, msg.sender));\n        _setRoleAdmin(ORACLE_ROLE, DEFAULT_ADMIN_ROLE);\n        grantRole(ORACLE_ROLE, oracle);\n        _foundationSeed = uint(keccak256(abi.encode(msg.sender, blockhash(block.number - 1), block.coinbase)));\n    }\n\n    function inputSeed(uint seed_) external {\n        require(hasRole(ORACLE_ROLE, msg.sender));\n        _foundationSeed = seed_;\n    }\n\n    function configTokenAddress(address _zooHarmony, address _zooNFT) external {\n        require(hasRole(DEFAULT_ADMIN_ROLE, msg.sender));\n        zooHarmony = _zooHarmony;\n        zooNFT = _zooNFT;\n    }\n\n    function configChestPrice(uint _golden) external {\n        require(hasRole(DEFAULT_ADMIN_ROLE, msg.sender));\n        goldenChestPrice = _golden;\n        lastOrderTimestamp = block.timestamp;\n        lastPrice = goldenChestPrice;\n    }\n\n    function configDynamicPrice(uint _dynamicPriceTimeUnit, uint _dynamicMinPrice, uint _dynamicMaxPrice) external {\n        require(hasRole(DEFAULT_ADMIN_ROLE, msg.sender));\n        dynamicPriceTimeUnit = _dynamicPriceTimeUnit;\n        dynamicMinPrice = _dynamicMinPrice;\n        dynamicMaxPrice = _dynamicMaxPrice;\n    }\n\n    function configNFTParams(uint _maxLevel, uint _maxNFTCategory, uint _maxNFTItem, uint _maxNFTRandom) external {\n        require(hasRole(DEFAULT_ADMIN_ROLE, msg.sender));\n        maxNFTLevel = _maxLevel;\n        maxNFTCategory = _maxNFTCategory;\n        maxNFTItem = _maxNFTItem;\n        maxNFTRandom = _maxNFTRandom;\n    }\n\n    function configPriceUpDownParams(uint _up0, uint _up1, uint _down0, uint _down1) external {\n        require(hasRole(DEFAULT_ADMIN_ROLE, msg.sender));\n        priceUp0 = _up0;\n        priceUp1 = _up1;\n        priceDown0 = _down0;\n        priceDown1 = _down1;\n    }\n\n    function configStakePlanCount(uint _stakePlanCount) external {\n        require(hasRole(DEFAULT_ADMIN_ROLE, msg.sender));\n        stakePlanCount = _stakePlanCount;\n    }\n\n    function configStakePlanInfo(uint id, uint priceMul, uint priceDiv, uint lockTime) external {\n        require(hasRole(DEFAULT_ADMIN_ROLE, msg.sender));\n        stakePlan[id].priceMul = priceMul;\n        stakePlan[id].priceDiv = priceDiv;\n        stakePlan[id].lockTime = lockTime;\n    }\n\n    function buyGoldenChest() public {\n        require(msg.sender == tx.origin, \"can not call from contract\");\n        uint currentPrice = queryGoldenPrice();\n        lastOrderTimestamp = block.timestamp;\n        priceRaise(currentPrice);\n\n        IERC20(zooHarmony).transferFrom(msg.sender, address(this), currentPrice);\n        IZooHarmony(zooHarmony).burn(currentPrice);\n        uint tokenId;\n        uint level;\n        uint category;\n        uint item;\n        uint random;\n        (tokenId, level, category, item, random) = randomNFT(true);\n\n        IZooNFTMint(zooNFT).mint(tokenId, level, category, item, random);\n        IERC721(zooNFT).safeTransferFrom(address(this), msg.sender, tokenId);\n\n        uint itemSupply = IZooNFTMint(zooNFT).itemSupply(level, category, item);\n        emit MintNFT(level, category, item, random, tokenId, itemSupply);\n        emit GoldenBuy(msg.sender, currentPrice);\n    }\n\n    function buySilverChest() public {\n        require(msg.sender == tx.origin, \"can not call from contract\");\n        uint currentPrice = queryGoldenPrice();\n        lastOrderTimestamp = block.timestamp;\n        // every 1 order, the price goes up 1%\n        priceRaise(currentPrice);\n\n        // silver chest price is 1/10 golden chest price\n        currentPrice = currentPrice.div(10);\n\n        IERC20(zooHarmony).transferFrom(msg.sender, address(this), currentPrice);\n        IZooHarmony(zooHarmony).burn(currentPrice);\n\n        bool success = false;\n        if (emptyTimes[msg.sender] >= 9) {\n            success = true;\n        } else {\n            success = isSilverSuccess();\n        }\n\n        emit SilverBuy(msg.sender, currentPrice);\n\n        if (!success) {\n            emptyTimes[msg.sender]++;\n            emit MintNFT(0, 0, 0, 0, 0, 0);\n            return;\n        }\n\n        emptyTimes[msg.sender] = 0;\n\n        uint tokenId;\n        uint level;\n        uint category;\n        uint item;\n        uint random;\n        (tokenId, level, category, item, random) = randomNFT(false);\n\n        IZooNFTMint(zooNFT).mint(tokenId, level, category, item, random);\n        IERC721(zooNFT).safeTransferFrom(address(this), msg.sender, tokenId);\n        uint itemSupply = IZooNFTMint(zooNFT).itemSupply(level, category, item);\n        emit MintNFT(level, category, item, random, tokenId, itemSupply);\n    }\n\n    function queryGoldenPrice() public view returns (uint) {\n        if (lastOrderTimestamp == 0) {\n            return goldenChestPrice;\n        }\n\n        uint hourPassed = (block.timestamp - lastOrderTimestamp).div(dynamicPriceTimeUnit);\n        if (hourPassed == 0) {\n            return lastPrice;\n        }\n\n        // every 1 hour idle, price goes down 1%\n        uint newPrice = lastPrice;\n        for (uint i=0; i<hourPassed; i++) {\n            newPrice = newPrice.mul(priceDown0).div(priceDown1);\n            if (newPrice < dynamicMinPrice) {\n                return dynamicMinPrice;\n            }\n        }\n        return newPrice;\n    }\n\n    function priceRaise(uint currentPrice) private {\n        if (currentPrice.mul(priceUp0).div(priceUp1) > dynamicMaxPrice) {\n            lastPrice = dynamicMaxPrice;\n        } else {\n            lastPrice = currentPrice.mul(priceUp0).div(priceUp1);\n        }\n    }\n\n    /// @dev Stake ZOO to get NFT\n    /// @param _type value: \n    /// 0: lock x10 48 hours to get golden chest\n    /// 1: lock x1 15 days to get golden chest\n    /// 2: lock x0.5 30 days to get golden chest\n    function stakeZoo(uint _type) public {\n        require(isStakeFinished(_type), \"There is still pending stake\");\n        require(_type < stakePlanCount, \"_type error\");\n\n        uint currentPrice = queryGoldenPrice();\n        lastOrderTimestamp = block.timestamp;\n        // every 1 order, the price goes up 1%\n        priceRaise(currentPrice);\n\n        stakeInfo[msg.sender][_type].startTime = block.timestamp;\n\n        uint stakePrice = currentPrice.mul(stakePlan[_type].priceMul).div(stakePlan[_type].priceDiv);\n        stakeInfo[msg.sender][_type].stakeAmount = stakePrice;\n        stakeInfo[msg.sender][_type].lockTime = stakePlan[_type].lockTime;\n\n        IERC20(zooHarmony).transferFrom(msg.sender, address(this), stakePrice);\n\n        stakedAmount[_type] = stakedAmount[_type].add(stakePrice);\n\n        emit ZooStake(msg.sender, stakePrice, _type);\n    }\n\n    /// @dev must have no stake in it\n    function isStakeable(uint _type) public view returns (bool) {\n        if (_type >= stakePlanCount) {\n            return false;\n        }\n\n        return stakeInfo[msg.sender][_type].stakeAmount == 0;\n    }\n\n    function stakeClaim(uint _type) public {\n        require(msg.sender == tx.origin, \"can not call from contract\");\n        require(_type < stakePlanCount, \"_type error\");\n        require(isStakeFinished(_type), \"There is still pending stake\");\n\n        uint amount = stakeInfo[msg.sender][_type].stakeAmount;\n        require(amount > 0, \"no stake\");\n\n        delete stakeInfo[msg.sender][_type];\n\n        //mint NFT\n        uint tokenId;\n        uint level;\n        uint category;\n        uint item;\n        uint random;\n        (tokenId, level, category, item, random) = randomNFT(true);\n\n        IZooNFTMint(zooNFT).mint(tokenId, level, category, item, random);\n        IERC721(zooNFT).safeTransferFrom(address(this), msg.sender, tokenId);\n        \n        uint itemSupply = IZooNFTMint(zooNFT).itemSupply(level, category, item);\n        emit MintNFT(level, category, item, random, tokenId, itemSupply);\n\n        IERC20(zooHarmony).safeTransfer(msg.sender, amount);\n\n        stakedAmount[_type] = stakedAmount[_type].sub(amount);\n\n        emit ZooClaim(msg.sender, amount, _type, tokenId);\n    }\n\n    function isStakeFinished(uint _type) public view returns (bool) {\n        return block.timestamp > (stakeInfo[msg.sender][_type].startTime.add(stakeInfo[msg.sender][_type].lockTime));\n    }\n\n    function isSilverSuccess() private returns (bool) {\n        uint totalSupply = IZooNFTMint(zooNFT).totalSupply();\n        uint random1 = uint(keccak256(abi.encode(msg.sender, blockhash(block.number - 1), block.coinbase, block.timestamp, totalSupply, getRandomSeed())));\n        uint random2 = uint(keccak256(abi.encode(random1)));\n        uint random3 = uint(keccak256(abi.encode(random2)));\n        if (random2.mod(1000).add(random3.mod(1000)).mod(10) == 6) {\n            return true;\n        }\n        return false;\n    } \n\n    // mint special level NFT\n    function mintLeveledNFT(uint _level) private returns (uint tokenId, uint level, uint category, uint item, uint random) {\n        uint totalSupply = IZooNFTMint(zooNFT).totalSupply();\n        tokenId = totalSupply + 1;\n        uint random1 = uint(keccak256(abi.encode(tokenId, msg.sender, blockhash(block.number - 1), block.coinbase, block.timestamp, getRandomSeed())));\n        uint random2 = uint(keccak256(abi.encode(random1)));\n        uint random3 = uint(keccak256(abi.encode(random2)));\n        uint random4 = uint(keccak256(abi.encode(random3)));\n\n        level = _level;\n        category = getMaskValue(random4.mod(100), CATEGORY_MASK) + 1;\n        item = getMaskValue(random3.mod(100), ITEM_MASK) + 1;\n        random = random1.mod(maxNFTRandom) + 1;\n    }\n\n    function randomNFT(bool golden) private returns (uint tokenId, uint level, uint category, uint item, uint random) {\n        uint totalSupply = IZooNFTMint(zooNFT).totalSupply();\n        tokenId = totalSupply + 1;\n        uint random1 = uint(keccak256(abi.encode(tokenId, msg.sender, blockhash(block.number - 1), block.coinbase, block.timestamp, getRandomSeed())));\n        uint random2 = uint(keccak256(abi.encode(random1)));\n        uint random3 = uint(keccak256(abi.encode(random2)));\n        uint random4 = uint(keccak256(abi.encode(random3)));\n        uint random5 = uint(keccak256(abi.encode(random4)));\n\n        // mod 100 -> 96 is used for fix the total chance is 96% not 100% issue.\n        level = getMaskValue(random5.mod(96), LEVEL_MASK) + 1;\n        category = getMaskValue(random4.mod(100), CATEGORY_MASK) + 1;\n        if (golden) {\n            item = getMaskValue(random3.mod(100), ITEM_MASK) + 1;\n        } else {\n            item = getMaskValue(random2.mod(85), ITEM_MASK) + 1;\n        }\n        random = random1.mod(maxNFTRandom) + 1;\n    }\n\n    function getMaskValue(uint random, uint[] memory mask) private pure returns (uint) {\n        for (uint i=0; i<mask.length; i++) {\n            if (random < mask[i]) {\n                return i;\n            }\n        }\n    }\n\n    function getRandomSeed() internal returns (uint) {\n        uint count = getRoleMemberCount(ORACLE_ROLE);\n        require(count >= 1, \"no private oracle found\");\n        address privateOracle = getRoleMember(ORACLE_ROLE, count-1);\n        IPrivateOracle(privateOracle).inputSeed(1);\n        return _foundationSeed;\n    }\n}\n",
  "sourcePath": "/mnt/d/Zoo/zoo-keeper-contracts-main/contracts/NFTFactory/NFTFactoryDelegate.sol",
  "compiler": {
    "name": "solc",
    "version": "0.6.12+commit.27d51765.Emscripten.clang"
  },
  "schemaVersion": "3.3.4",
  "updatedAt": "2021-12-10T08:43:10.761Z",
  "networkType": "ethereum",
  "devdoc": {
    "kind": "dev",
    "methods": {
      "getRoleAdmin(bytes32)": {
        "details": "Returns the admin role that controls `role`. See {grantRole} and {revokeRole}. To change a role's admin, use {_setRoleAdmin}."
      },
      "getRoleMember(bytes32,uint256)": {
        "details": "Returns one of the accounts that have `role`. `index` must be a value between 0 and {getRoleMemberCount}, non-inclusive. Role bearers are not sorted in any particular way, and their ordering may change at any point. WARNING: When using {getRoleMember} and {getRoleMemberCount}, make sure you perform all queries on the same block. See the following https://forum.openzeppelin.com/t/iterating-over-elements-on-enumerableset-in-openzeppelin-contracts/2296[forum post] for more information."
      },
      "getRoleMemberCount(bytes32)": {
        "details": "Returns the number of accounts that have `role`. Can be used together with {getRoleMember} to enumerate all bearers of a role."
      },
      "grantRole(bytes32,address)": {
        "details": "Grants `role` to `account`. If `account` had not been already granted `role`, emits a {RoleGranted} event. Requirements: - the caller must have ``role``'s admin role."
      },
      "hasRole(bytes32,address)": {
        "details": "Returns `true` if `account` has been granted `role`."
      },
      "isStakeable(uint256)": {
        "details": "must have no stake in it"
      },
      "onERC721Received(address,address,uint256,bytes)": {
        "details": "See {IERC721Receiver-onERC721Received}. Always returns `IERC721Receiver.onERC721Received.selector`."
      },
      "renounceRole(bytes32,address)": {
        "details": "Revokes `role` from the calling account. Roles are often managed via {grantRole} and {revokeRole}: this function's purpose is to provide a mechanism for accounts to lose their privileges if they are compromised (such as when a trusted device is misplaced). If the calling account had been granted `role`, emits a {RoleRevoked} event. Requirements: - the caller must be `account`."
      },
      "revokeRole(bytes32,address)": {
        "details": "Revokes `role` from `account`. If `account` had been granted `role`, emits a {RoleRevoked} event. Requirements: - the caller must have ``role``'s admin role."
      },
      "stakeZoo(uint256)": {
        "details": "Stake ZOO to get NFT",
        "params": {
          "_type": "value:  0: lock x10 48 hours to get golden chest 1: lock x1 15 days to get golden chest 2: lock x0.5 30 days to get golden chest"
        }
      }
    },
    "version": 1
  },
  "userdoc": {
    "kind": "user",
    "methods": {},
    "version": 1
  }
}