{
  "contractName": "NFTFactoryStorage",
  "abi": [
    {
      "inputs": [
        {
          "internalType": "uint256",
          "name": "",
          "type": "uint256"
        }
      ],
      "name": "CATEGORY_MASK",
      "outputs": [
        {
          "internalType": "uint256",
          "name": "",
          "type": "uint256"
        }
      ],
      "stateMutability": "view",
      "type": "function"
    },
    {
      "inputs": [
        {
          "internalType": "uint256",
          "name": "",
          "type": "uint256"
        }
      ],
      "name": "ITEM_MASK",
      "outputs": [
        {
          "internalType": "uint256",
          "name": "",
          "type": "uint256"
        }
      ],
      "stateMutability": "view",
      "type": "function"
    },
    {
      "inputs": [
        {
          "internalType": "uint256",
          "name": "",
          "type": "uint256"
        }
      ],
      "name": "LEVEL_MASK",
      "outputs": [
        {
          "internalType": "uint256",
          "name": "",
          "type": "uint256"
        }
      ],
      "stateMutability": "view",
      "type": "function"
    },
    {
      "inputs": [],
      "name": "dynamicMaxPrice",
      "outputs": [
        {
          "internalType": "uint256",
          "name": "",
          "type": "uint256"
        }
      ],
      "stateMutability": "view",
      "type": "function"
    },
    {
      "inputs": [],
      "name": "dynamicMinPrice",
      "outputs": [
        {
          "internalType": "uint256",
          "name": "",
          "type": "uint256"
        }
      ],
      "stateMutability": "view",
      "type": "function"
    },
    {
      "inputs": [],
      "name": "dynamicPriceTimeUnit",
      "outputs": [
        {
          "internalType": "uint256",
          "name": "",
          "type": "uint256"
        }
      ],
      "stateMutability": "view",
      "type": "function"
    },
    {
      "inputs": [
        {
          "internalType": "address",
          "name": "",
          "type": "address"
        }
      ],
      "name": "emptyTimes",
      "outputs": [
        {
          "internalType": "uint256",
          "name": "",
          "type": "uint256"
        }
      ],
      "stateMutability": "view",
      "type": "function"
    },
    {
      "inputs": [],
      "name": "goldenChestPrice",
      "outputs": [
        {
          "internalType": "uint256",
          "name": "",
          "type": "uint256"
        }
      ],
      "stateMutability": "view",
      "type": "function"
    },
    {
      "inputs": [],
      "name": "lastOrderTimestamp",
      "outputs": [
        {
          "internalType": "uint256",
          "name": "",
          "type": "uint256"
        }
      ],
      "stateMutability": "view",
      "type": "function"
    },
    {
      "inputs": [],
      "name": "lastPrice",
      "outputs": [
        {
          "internalType": "uint256",
          "name": "",
          "type": "uint256"
        }
      ],
      "stateMutability": "view",
      "type": "function"
    },
    {
      "inputs": [],
      "name": "maxNFTCategory",
      "outputs": [
        {
          "internalType": "uint256",
          "name": "",
          "type": "uint256"
        }
      ],
      "stateMutability": "view",
      "type": "function"
    },
    {
      "inputs": [],
      "name": "maxNFTItem",
      "outputs": [
        {
          "internalType": "uint256",
          "name": "",
          "type": "uint256"
        }
      ],
      "stateMutability": "view",
      "type": "function"
    },
    {
      "inputs": [],
      "name": "maxNFTLevel",
      "outputs": [
        {
          "internalType": "uint256",
          "name": "",
          "type": "uint256"
        }
      ],
      "stateMutability": "view",
      "type": "function"
    },
    {
      "inputs": [],
      "name": "maxNFTRandom",
      "outputs": [
        {
          "internalType": "uint256",
          "name": "",
          "type": "uint256"
        }
      ],
      "stateMutability": "view",
      "type": "function"
    },
    {
      "inputs": [],
      "name": "priceDown0",
      "outputs": [
        {
          "internalType": "uint256",
          "name": "",
          "type": "uint256"
        }
      ],
      "stateMutability": "view",
      "type": "function"
    },
    {
      "inputs": [],
      "name": "priceDown1",
      "outputs": [
        {
          "internalType": "uint256",
          "name": "",
          "type": "uint256"
        }
      ],
      "stateMutability": "view",
      "type": "function"
    },
    {
      "inputs": [],
      "name": "priceUp0",
      "outputs": [
        {
          "internalType": "uint256",
          "name": "",
          "type": "uint256"
        }
      ],
      "stateMutability": "view",
      "type": "function"
    },
    {
      "inputs": [],
      "name": "priceUp1",
      "outputs": [
        {
          "internalType": "uint256",
          "name": "",
          "type": "uint256"
        }
      ],
      "stateMutability": "view",
      "type": "function"
    },
    {
      "inputs": [
        {
          "internalType": "address",
          "name": "",
          "type": "address"
        },
        {
          "internalType": "uint256",
          "name": "",
          "type": "uint256"
        }
      ],
      "name": "stakeInfo",
      "outputs": [
        {
          "internalType": "uint256",
          "name": "lockTime",
          "type": "uint256"
        },
        {
          "internalType": "uint256",
          "name": "startTime",
          "type": "uint256"
        },
        {
          "internalType": "uint256",
          "name": "stakeAmount",
          "type": "uint256"
        }
      ],
      "stateMutability": "view",
      "type": "function"
    },
    {
      "inputs": [
        {
          "internalType": "uint256",
          "name": "",
          "type": "uint256"
        }
      ],
      "name": "stakePlan",
      "outputs": [
        {
          "internalType": "uint256",
          "name": "priceMul",
          "type": "uint256"
        },
        {
          "internalType": "uint256",
          "name": "priceDiv",
          "type": "uint256"
        },
        {
          "internalType": "uint256",
          "name": "lockTime",
          "type": "uint256"
        }
      ],
      "stateMutability": "view",
      "type": "function"
    },
    {
      "inputs": [],
      "name": "stakePlanCount",
      "outputs": [
        {
          "internalType": "uint256",
          "name": "",
          "type": "uint256"
        }
      ],
      "stateMutability": "view",
      "type": "function"
    },
    {
      "inputs": [
        {
          "internalType": "uint256",
          "name": "",
          "type": "uint256"
        }
      ],
      "name": "stakedAmount",
      "outputs": [
        {
          "internalType": "uint256",
          "name": "",
          "type": "uint256"
        }
      ],
      "stateMutability": "view",
      "type": "function"
    },
    {
      "inputs": [],
      "name": "zooHarmony",
      "outputs": [
        {
          "internalType": "address",
          "name": "",
          "type": "address"
        }
      ],
      "stateMutability": "view",
      "type": "function"
    },
    {
      "inputs": [],
      "name": "zooNFT",
      "outputs": [
        {
          "internalType": "address",
          "name": "",
          "type": "address"
        }
      ],
      "stateMutability": "view",
      "type": "function"
    }
  ],
  "bytecode": "0x608060405234801561001057600080fd5b50610467806100206000396000f3fe608060405234801561001057600080fd5b50600436106101585760003560e01c806369e26ef5116100c3578063ab0b8b641161007c578063ab0b8b64146102c6578063bf283312146102ce578063cb2c02fe146102f4578063de8e3629146102fc578063e5ffad1f14610304578063e6dfae9e1461030c57610158565b806369e26ef5146102815780636c928e9e146102895780636fa09f011461029157806378f78eb1146102ae5780639b50c816146102b6578063a5ca8f2e146102be57610158565b806348d5a04a1161011557806348d5a04a14610212578063494c0d241461021a578063560178a81461023757806358fcc6ed146102545780635a459ed41461025c5780635b74ebbb1461027957610158565b80630249aad81461015d578063053f14da1461018c57806307d7ca2b146101945780631ad954d0146101b85780631c43bd7d146101c057806347f94a5d1461020a575b600080fd5b61017a6004803603602081101561017357600080fd5b5035610314565b60408051918252519081900360200190f35b61017a610332565b61019c610338565b604080516001600160a01b039092168252519081900360200190f35b61017a610347565b6101ec600480360360408110156101d657600080fd5b506001600160a01b03813516906020013561034d565b60408051938452602084019290925282820152519081900360600190f35b61017a610376565b61017a61037c565b61017a6004803603602081101561023057600080fd5b5035610382565b61017a6004803603602081101561024d57600080fd5b503561038f565b61017a61039c565b61017a6004803603602081101561027257600080fd5b50356103a2565b61017a6103b4565b61017a6103ba565b61019c6103c0565b6101ec600480360360208110156102a757600080fd5b50356103cf565b61017a6103ef565b61017a6103f5565b61017a6103fb565b61017a610401565b61017a600480360360208110156102e457600080fd5b50356001600160a01b0316610407565b61017a610419565b61017a61041f565b61017a610425565b61017a61042b565b6014818154811061032157fe5b600091825260209091200154905081565b600a5481565b6005546001600160a01b031681565b60135481565b600060208181529281526040808220909352908152208054600182015460029092015490919083565b60035481565b600d5481565b6015818154811061032157fe5b6016818154811061032157fe5b600f5481565b60176020526000908152604090205481565b600c5481565b60115481565b6004546001600160a01b031681565b600260208190526000918252604090912080546001820154919092015483565b60085481565b60075481565b600b5481565b60125481565b60016020526000908152604090205481565b60105481565b60065481565b60095481565b600e548156fea26469706673582212206502bc469518ef11ab2d37e86bbcb035beb9ffb5516644423c079edfad9aaab264736f6c634300060c0033",
  "immutableReferences": {},
  "source": "// SPDX-License-Identifier: MIT\npragma solidity 0.6.12;\n\nimport \"@openzeppelin/contracts/math/SafeMath.sol\";\n\ncontract NFTFactoryStorage {\n    using SafeMath for uint256;\n\n    struct StakeInfo {\n        uint lockTime;\n        uint startTime;\n        uint stakeAmount;\n    }\n\n    struct StakePlan {\n        uint priceMul;\n        uint priceDiv;\n        uint lockTime;\n    }\n\n    // user => stake type => stake info\n    mapping(address => mapping(uint => StakeInfo)) public stakeInfo;\n\n    mapping(address => uint) public emptyTimes;\n\n    // id => plan\n    mapping(uint => StakePlan) public stakePlan;\n\n    uint public goldenChestPrice;\n\n    address public zooHarmony;\n\n    address public zooNFT;\n\n    uint public maxNFTLevel;\n\n    uint public maxNFTCategory;\n\n    uint public maxNFTItem;\n\n    uint public maxNFTRandom;\n\n    uint public lastPrice;\n\n    uint public lastOrderTimestamp;\n\n    uint public priceUp0;\n\n    uint public priceUp1;\n\n    uint public priceDown0;\n\n    uint public priceDown1;\n\n    uint public stakePlanCount;\n\n    uint public dynamicPriceTimeUnit;\n\n    uint public dynamicMaxPrice;\n\n    uint public dynamicMinPrice;\n    \n    uint[] public LEVEL_MASK; // 60%, 30%, 5%, 1%\n\n    uint[] public CATEGORY_MASK; // 40%, 33%, 17%, 7%, 2%, 1%\n    \n    uint[] public ITEM_MASK; // 35%, 30%, 20%, 10%, 5%\n\n    // planId => stakeZooAmount\n    mapping(uint => uint) public stakedAmount;\n}\n",
  "sourcePath": "/mnt/d/Zoo/zoo-keeper-contracts-main/contracts/NFTFactory/NFTFactoryStorage.sol",
  "compiler": {
    "name": "solc",
    "version": "0.6.12+commit.27d51765.Emscripten.clang"
  },
  "schemaVersion": "3.3.4",
  "updatedAt": "2021-12-10T08:12:25.869Z",
  "devdoc": {
    "kind": "dev",
    "methods": {},
    "version": 1
  },
  "userdoc": {
    "kind": "user",
    "methods": {},
    "version": 1
  }
}