{
  "contractName": "NFTFactoryStorageV2",
  "abi": [
    {
      "inputs": [
        {
          "internalType": "uint256",
          "name": "",
          "type": "uint256"
        }
      ],
      "name": "CATEGORY_MASK",
      "outputs": [
        {
          "internalType": "uint256",
          "name": "",
          "type": "uint256"
        }
      ],
      "stateMutability": "view",
      "type": "function"
    },
    {
      "inputs": [
        {
          "internalType": "uint256",
          "name": "",
          "type": "uint256"
        }
      ],
      "name": "ITEM_MASK",
      "outputs": [
        {
          "internalType": "uint256",
          "name": "",
          "type": "uint256"
        }
      ],
      "stateMutability": "view",
      "type": "function"
    },
    {
      "inputs": [
        {
          "internalType": "uint256",
          "name": "",
          "type": "uint256"
        }
      ],
      "name": "LEVEL_MASK",
      "outputs": [
        {
          "internalType": "uint256",
          "name": "",
          "type": "uint256"
        }
      ],
      "stateMutability": "view",
      "type": "function"
    },
    {
      "inputs": [],
      "name": "ORACLE_ROLE",
      "outputs": [
        {
          "internalType": "bytes32",
          "name": "",
          "type": "bytes32"
        }
      ],
      "stateMutability": "view",
      "type": "function"
    },
    {
      "inputs": [],
      "name": "dynamicMaxPrice",
      "outputs": [
        {
          "internalType": "uint256",
          "name": "",
          "type": "uint256"
        }
      ],
      "stateMutability": "view",
      "type": "function"
    },
    {
      "inputs": [],
      "name": "dynamicMinPrice",
      "outputs": [
        {
          "internalType": "uint256",
          "name": "",
          "type": "uint256"
        }
      ],
      "stateMutability": "view",
      "type": "function"
    },
    {
      "inputs": [],
      "name": "dynamicPriceTimeUnit",
      "outputs": [
        {
          "internalType": "uint256",
          "name": "",
          "type": "uint256"
        }
      ],
      "stateMutability": "view",
      "type": "function"
    },
    {
      "inputs": [
        {
          "internalType": "address",
          "name": "",
          "type": "address"
        }
      ],
      "name": "emptyTimes",
      "outputs": [
        {
          "internalType": "uint256",
          "name": "",
          "type": "uint256"
        }
      ],
      "stateMutability": "view",
      "type": "function"
    },
    {
      "inputs": [],
      "name": "goldenChestPrice",
      "outputs": [
        {
          "internalType": "uint256",
          "name": "",
          "type": "uint256"
        }
      ],
      "stateMutability": "view",
      "type": "function"
    },
    {
      "inputs": [],
      "name": "lastOrderTimestamp",
      "outputs": [
        {
          "internalType": "uint256",
          "name": "",
          "type": "uint256"
        }
      ],
      "stateMutability": "view",
      "type": "function"
    },
    {
      "inputs": [],
      "name": "lastPrice",
      "outputs": [
        {
          "internalType": "uint256",
          "name": "",
          "type": "uint256"
        }
      ],
      "stateMutability": "view",
      "type": "function"
    },
    {
      "inputs": [],
      "name": "maxNFTCategory",
      "outputs": [
        {
          "internalType": "uint256",
          "name": "",
          "type": "uint256"
        }
      ],
      "stateMutability": "view",
      "type": "function"
    },
    {
      "inputs": [],
      "name": "maxNFTItem",
      "outputs": [
        {
          "internalType": "uint256",
          "name": "",
          "type": "uint256"
        }
      ],
      "stateMutability": "view",
      "type": "function"
    },
    {
      "inputs": [],
      "name": "maxNFTLevel",
      "outputs": [
        {
          "internalType": "uint256",
          "name": "",
          "type": "uint256"
        }
      ],
      "stateMutability": "view",
      "type": "function"
    },
    {
      "inputs": [],
      "name": "maxNFTRandom",
      "outputs": [
        {
          "internalType": "uint256",
          "name": "",
          "type": "uint256"
        }
      ],
      "stateMutability": "view",
      "type": "function"
    },
    {
      "inputs": [],
      "name": "priceDown0",
      "outputs": [
        {
          "internalType": "uint256",
          "name": "",
          "type": "uint256"
        }
      ],
      "stateMutability": "view",
      "type": "function"
    },
    {
      "inputs": [],
      "name": "priceDown1",
      "outputs": [
        {
          "internalType": "uint256",
          "name": "",
          "type": "uint256"
        }
      ],
      "stateMutability": "view",
      "type": "function"
    },
    {
      "inputs": [],
      "name": "priceUp0",
      "outputs": [
        {
          "internalType": "uint256",
          "name": "",
          "type": "uint256"
        }
      ],
      "stateMutability": "view",
      "type": "function"
    },
    {
      "inputs": [],
      "name": "priceUp1",
      "outputs": [
        {
          "internalType": "uint256",
          "name": "",
          "type": "uint256"
        }
      ],
      "stateMutability": "view",
      "type": "function"
    },
    {
      "inputs": [
        {
          "internalType": "address",
          "name": "",
          "type": "address"
        },
        {
          "internalType": "uint256",
          "name": "",
          "type": "uint256"
        }
      ],
      "name": "stakeInfo",
      "outputs": [
        {
          "internalType": "uint256",
          "name": "lockTime",
          "type": "uint256"
        },
        {
          "internalType": "uint256",
          "name": "startTime",
          "type": "uint256"
        },
        {
          "internalType": "uint256",
          "name": "stakeAmount",
          "type": "uint256"
        }
      ],
      "stateMutability": "view",
      "type": "function"
    },
    {
      "inputs": [
        {
          "internalType": "uint256",
          "name": "",
          "type": "uint256"
        }
      ],
      "name": "stakePlan",
      "outputs": [
        {
          "internalType": "uint256",
          "name": "priceMul",
          "type": "uint256"
        },
        {
          "internalType": "uint256",
          "name": "priceDiv",
          "type": "uint256"
        },
        {
          "internalType": "uint256",
          "name": "lockTime",
          "type": "uint256"
        }
      ],
      "stateMutability": "view",
      "type": "function"
    },
    {
      "inputs": [],
      "name": "stakePlanCount",
      "outputs": [
        {
          "internalType": "uint256",
          "name": "",
          "type": "uint256"
        }
      ],
      "stateMutability": "view",
      "type": "function"
    },
    {
      "inputs": [
        {
          "internalType": "uint256",
          "name": "",
          "type": "uint256"
        }
      ],
      "name": "stakedAmount",
      "outputs": [
        {
          "internalType": "uint256",
          "name": "",
          "type": "uint256"
        }
      ],
      "stateMutability": "view",
      "type": "function"
    },
    {
      "inputs": [],
      "name": "zooHarmony",
      "outputs": [
        {
          "internalType": "address",
          "name": "",
          "type": "address"
        }
      ],
      "stateMutability": "view",
      "type": "function"
    },
    {
      "inputs": [],
      "name": "zooNFT",
      "outputs": [
        {
          "internalType": "address",
          "name": "",
          "type": "address"
        }
      ],
      "stateMutability": "view",
      "type": "function"
    }
  ],
  "bytecode": "0x608060405234801561001057600080fd5b506104ae806100206000396000f3fe608060405234801561001057600080fd5b50600436106101735760003560e01c80635b74ebbb116100de578063a5ca8f2e11610097578063cb2c02fe11610071578063cb2c02fe14610317578063de8e36291461031f578063e5ffad1f14610327578063e6dfae9e1461032f57610173565b8063a5ca8f2e146102e1578063ab0b8b64146102e9578063bf283312146102f157610173565b80635b74ebbb1461029c57806369e26ef5146102a45780636c928e9e146102ac5780636fa09f01146102b457806378f78eb1146102d15780639b50c816146102d957610173565b806347f94a5d1161013057806347f94a5d1461022d57806348d5a04a14610235578063494c0d241461023d578063560178a81461025a57806358fcc6ed146102775780635a459ed41461027f57610173565b80630249aad814610178578063053f14da146101a757806307d7ca2b146101af57806307e2cea5146101d35780631ad954d0146101db5780631c43bd7d146101e3575b600080fd5b6101956004803603602081101561018e57600080fd5b5035610337565b60408051918252519081900360200190f35b610195610355565b6101b761035b565b604080516001600160a01b039092168252519081900360200190f35b61019561036a565b61019561038e565b61020f600480360360408110156101f957600080fd5b506001600160a01b038135169060200135610394565b60408051938452602084019290925282820152519081900360600190f35b6101956103bd565b6101956103c3565b6101956004803603602081101561025357600080fd5b50356103c9565b6101956004803603602081101561027057600080fd5b50356103d6565b6101956103e3565b6101956004803603602081101561029557600080fd5b50356103e9565b6101956103fb565b610195610401565b6101b7610407565b61020f600480360360208110156102ca57600080fd5b5035610416565b610195610436565b61019561043c565b610195610442565b610195610448565b6101956004803603602081101561030757600080fd5b50356001600160a01b031661044e565b610195610460565b610195610466565b61019561046c565b610195610472565b6014818154811061034457fe5b600091825260209091200154905081565b600a5481565b6005546001600160a01b031681565b7f68e79a7bf1e0bc45d0a330c573bc367f9cf464fd326078812f301165fbda4ef181565b60135481565b600060208181529281526040808220909352908152208054600182015460029092015490919083565b60035481565b600d5481565b6015818154811061034457fe5b6016818154811061034457fe5b600f5481565b60176020526000908152604090205481565b600c5481565b60115481565b6004546001600160a01b031681565b600260208190526000918252604090912080546001820154919092015483565b60085481565b60075481565b600b5481565b60125481565b60016020526000908152604090205481565b60105481565b60065481565b60095481565b600e548156fea2646970667358221220a13914f9471100fadcea5282c9a7b5aac9758fe1f01e2996f627c7a3484aa0a564736f6c634300060c0033",
  "immutableReferences": {},
  "source": "// SPDX-License-Identifier: MIT\npragma solidity 0.6.12;\n\nimport \"./NFTFactoryStorage.sol\";\n\ncontract NFTFactoryStorageV2 is NFTFactoryStorage {\n    uint internal _foundationSeed;\n\n    bytes32 public constant ORACLE_ROLE = keccak256(\"ORACLE_ROLE\");\n}\n\n",
  "sourcePath": "/mnt/d/Zoo/zoo-keeper-contracts-main/contracts/NFTFactory/NFTFactoryStorageV2.sol",
  "compiler": {
    "name": "solc",
    "version": "0.6.12+commit.27d51765.Emscripten.clang"
  },
  "schemaVersion": "3.3.4",
  "updatedAt": "2021-12-10T08:12:25.886Z",
  "devdoc": {
    "kind": "dev",
    "methods": {},
    "version": 1
  },
  "userdoc": {
    "kind": "user",
    "methods": {},
    "version": 1
  }
}