{
  "contractName": "SafariDelegate",
  "abi": [
    {
      "anonymous": false,
      "inputs": [
        {
          "indexed": true,
          "internalType": "address",
          "name": "user",
          "type": "address"
        },
        {
          "indexed": true,
          "internalType": "uint256",
          "name": "pid",
          "type": "uint256"
        },
        {
          "indexed": false,
          "internalType": "uint256",
          "name": "amount",
          "type": "uint256"
        }
      ],
      "name": "Deposit",
      "type": "event"
    },
    {
      "anonymous": false,
      "inputs": [
        {
          "indexed": false,
          "internalType": "address",
          "name": "to",
          "type": "address"
        },
        {
          "indexed": false,
          "internalType": "uint256",
          "name": "amount",
          "type": "uint256"
        }
      ],
      "name": "EmergencyQuitDexSwapDex",
      "type": "event"
    },
    {
      "anonymous": false,
      "inputs": [
        {
          "indexed": true,
          "internalType": "address",
          "name": "user",
          "type": "address"
        },
        {
          "indexed": true,
          "internalType": "uint256",
          "name": "pid",
          "type": "uint256"
        },
        {
          "indexed": false,
          "internalType": "uint256",
          "name": "amount",
          "type": "uint256"
        }
      ],
      "name": "EmergencyWithdraw",
      "type": "event"
    },
    {
      "anonymous": false,
      "inputs": [
        {
          "indexed": false,
          "internalType": "address",
          "name": "to",
          "type": "address"
        },
        {
          "indexed": false,
          "internalType": "uint256",
          "name": "amount",
          "type": "uint256"
        }
      ],
      "name": "QuitDexSwapDex",
      "type": "event"
    },
    {
      "anonymous": false,
      "inputs": [
        {
          "indexed": true,
          "internalType": "bytes32",
          "name": "role",
          "type": "bytes32"
        },
        {
          "indexed": true,
          "internalType": "bytes32",
          "name": "previousAdminRole",
          "type": "bytes32"
        },
        {
          "indexed": true,
          "internalType": "bytes32",
          "name": "newAdminRole",
          "type": "bytes32"
        }
      ],
      "name": "RoleAdminChanged",
      "type": "event"
    },
    {
      "anonymous": false,
      "inputs": [
        {
          "indexed": true,
          "internalType": "bytes32",
          "name": "role",
          "type": "bytes32"
        },
        {
          "indexed": true,
          "internalType": "address",
          "name": "account",
          "type": "address"
        },
        {
          "indexed": true,
          "internalType": "address",
          "name": "sender",
          "type": "address"
        }
      ],
      "name": "RoleGranted",
      "type": "event"
    },
    {
      "anonymous": false,
      "inputs": [
        {
          "indexed": true,
          "internalType": "bytes32",
          "name": "role",
          "type": "bytes32"
        },
        {
          "indexed": true,
          "internalType": "address",
          "name": "account",
          "type": "address"
        },
        {
          "indexed": true,
          "internalType": "address",
          "name": "sender",
          "type": "address"
        }
      ],
      "name": "RoleRevoked",
      "type": "event"
    },
    {
      "anonymous": false,
      "inputs": [
        {
          "indexed": true,
          "internalType": "address",
          "name": "user",
          "type": "address"
        },
        {
          "indexed": true,
          "internalType": "uint256",
          "name": "pid",
          "type": "uint256"
        },
        {
          "indexed": false,
          "internalType": "uint256",
          "name": "amount",
          "type": "uint256"
        }
      ],
      "name": "Withdraw",
      "type": "event"
    },
    {
      "inputs": [],
      "name": "DEFAULT_ADMIN_ROLE",
      "outputs": [
        {
          "internalType": "bytes32",
          "name": "",
          "type": "bytes32"
        }
      ],
      "stateMutability": "view",
      "type": "function",
      "constant": true
    },
    {
      "inputs": [
        {
          "internalType": "bytes32",
          "name": "role",
          "type": "bytes32"
        }
      ],
      "name": "getRoleAdmin",
      "outputs": [
        {
          "internalType": "bytes32",
          "name": "",
          "type": "bytes32"
        }
      ],
      "stateMutability": "view",
      "type": "function",
      "constant": true
    },
    {
      "inputs": [
        {
          "internalType": "bytes32",
          "name": "role",
          "type": "bytes32"
        },
        {
          "internalType": "uint256",
          "name": "index",
          "type": "uint256"
        }
      ],
      "name": "getRoleMember",
      "outputs": [
        {
          "internalType": "address",
          "name": "",
          "type": "address"
        }
      ],
      "stateMutability": "view",
      "type": "function",
      "constant": true
    },
    {
      "inputs": [
        {
          "internalType": "bytes32",
          "name": "role",
          "type": "bytes32"
        }
      ],
      "name": "getRoleMemberCount",
      "outputs": [
        {
          "internalType": "uint256",
          "name": "",
          "type": "uint256"
        }
      ],
      "stateMutability": "view",
      "type": "function",
      "constant": true
    },
    {
      "inputs": [
        {
          "internalType": "bytes32",
          "name": "role",
          "type": "bytes32"
        },
        {
          "internalType": "address",
          "name": "account",
          "type": "address"
        }
      ],
      "name": "grantRole",
      "outputs": [],
      "stateMutability": "nonpayable",
      "type": "function"
    },
    {
      "inputs": [
        {
          "internalType": "bytes32",
          "name": "role",
          "type": "bytes32"
        },
        {
          "internalType": "address",
          "name": "account",
          "type": "address"
        }
      ],
      "name": "hasRole",
      "outputs": [
        {
          "internalType": "bool",
          "name": "",
          "type": "bool"
        }
      ],
      "stateMutability": "view",
      "type": "function",
      "constant": true
    },
    {
      "inputs": [
        {
          "internalType": "uint256",
          "name": "",
          "type": "uint256"
        }
      ],
      "name": "poolInfo",
      "outputs": [
        {
          "internalType": "contract IERC20",
          "name": "lpToken",
          "type": "address"
        },
        {
          "internalType": "uint256",
          "name": "currentSupply",
          "type": "uint256"
        },
        {
          "internalType": "uint256",
          "name": "bonusStartBlock",
          "type": "uint256"
        },
        {
          "internalType": "uint256",
          "name": "bonusEndBlock",
          "type": "uint256"
        },
        {
          "internalType": "uint256",
          "name": "lastRewardBlock",
          "type": "uint256"
        },
        {
          "internalType": "uint256",
          "name": "accRewardPerShare",
          "type": "uint256"
        },
        {
          "internalType": "uint256",
          "name": "rewardPerBlock",
          "type": "uint256"
        },
        {
          "internalType": "address",
          "name": "rewardToken",
          "type": "address"
        }
      ],
      "stateMutability": "view",
      "type": "function",
      "constant": true
    },
    {
      "inputs": [
        {
          "internalType": "bytes32",
          "name": "role",
          "type": "bytes32"
        },
        {
          "internalType": "address",
          "name": "account",
          "type": "address"
        }
      ],
      "name": "renounceRole",
      "outputs": [],
      "stateMutability": "nonpayable",
      "type": "function"
    },
    {
      "inputs": [
        {
          "internalType": "bytes32",
          "name": "role",
          "type": "bytes32"
        },
        {
          "internalType": "address",
          "name": "account",
          "type": "address"
        }
      ],
      "name": "revokeRole",
      "outputs": [],
      "stateMutability": "nonpayable",
      "type": "function"
    },
    {
      "inputs": [
        {
          "internalType": "uint256",
          "name": "",
          "type": "uint256"
        },
        {
          "internalType": "address",
          "name": "",
          "type": "address"
        }
      ],
      "name": "userInfo",
      "outputs": [
        {
          "internalType": "uint256",
          "name": "amount",
          "type": "uint256"
        },
        {
          "internalType": "uint256",
          "name": "rewardDebt",
          "type": "uint256"
        }
      ],
      "stateMutability": "view",
      "type": "function",
      "constant": true
    },
    {
      "inputs": [],
      "name": "wone",
      "outputs": [
        {
          "internalType": "contract IWONE",
          "name": "",
          "type": "address"
        }
      ],
      "stateMutability": "view",
      "type": "function",
      "constant": true
    },
    {
      "stateMutability": "payable",
      "type": "receive",
      "payable": true
    },
    {
      "inputs": [
        {
          "internalType": "address",
          "name": "admin",
          "type": "address"
        },
        {
          "internalType": "contract IWONE",
          "name": "_wone",
          "type": "address"
        }
      ],
      "name": "initialize",
      "outputs": [],
      "stateMutability": "payable",
      "type": "function",
      "payable": true
    },
    {
      "inputs": [],
      "name": "poolLength",
      "outputs": [
        {
          "internalType": "uint256",
          "name": "",
          "type": "uint256"
        }
      ],
      "stateMutability": "view",
      "type": "function",
      "constant": true
    },
    {
      "inputs": [
        {
          "internalType": "contract IERC20",
          "name": "_lpToken",
          "type": "address"
        },
        {
          "internalType": "uint256",
          "name": "_bonusStartBlock",
          "type": "uint256"
        },
        {
          "internalType": "uint256",
          "name": "_bonusEndBlock",
          "type": "uint256"
        },
        {
          "internalType": "uint256",
          "name": "_rewardPerBlock",
          "type": "uint256"
        },
        {
          "internalType": "address",
          "name": "_rewardToken",
          "type": "address"
        }
      ],
      "name": "add",
      "outputs": [],
      "stateMutability": "nonpayable",
      "type": "function"
    },
    {
      "inputs": [
        {
          "internalType": "uint256",
          "name": "_pid",
          "type": "uint256"
        },
        {
          "internalType": "uint256",
          "name": "_rewardPerBlock",
          "type": "uint256"
        },
        {
          "internalType": "uint256",
          "name": "_bonusEndBlock",
          "type": "uint256"
        },
        {
          "internalType": "bool",
          "name": "_withUpdate",
          "type": "bool"
        }
      ],
      "name": "set",
      "outputs": [],
      "stateMutability": "nonpayable",
      "type": "function"
    },
    {
      "inputs": [],
      "name": "massUpdatePools",
      "outputs": [],
      "stateMutability": "nonpayable",
      "type": "function"
    },
    {
      "inputs": [
        {
          "internalType": "uint256",
          "name": "_pid",
          "type": "uint256"
        },
        {
          "internalType": "address",
          "name": "_user",
          "type": "address"
        }
      ],
      "name": "pendingReward",
      "outputs": [
        {
          "internalType": "uint256",
          "name": "",
          "type": "uint256"
        },
        {
          "internalType": "uint256",
          "name": "",
          "type": "uint256"
        }
      ],
      "stateMutability": "view",
      "type": "function",
      "constant": true
    },
    {
      "inputs": [
        {
          "internalType": "uint256",
          "name": "_pid",
          "type": "uint256"
        },
        {
          "internalType": "uint256",
          "name": "_amount",
          "type": "uint256"
        }
      ],
      "name": "deposit",
      "outputs": [],
      "stateMutability": "nonpayable",
      "type": "function"
    },
    {
      "inputs": [
        {
          "internalType": "uint256",
          "name": "_pid",
          "type": "uint256"
        },
        {
          "internalType": "uint256",
          "name": "_amount",
          "type": "uint256"
        }
      ],
      "name": "withdraw",
      "outputs": [],
      "stateMutability": "nonpayable",
      "type": "function"
    },
    {
      "inputs": [
        {
          "internalType": "uint256",
          "name": "_pid",
          "type": "uint256"
        }
      ],
      "name": "emergencyWithdraw",
      "outputs": [],
      "stateMutability": "nonpayable",
      "type": "function"
    },
    {
      "inputs": [
        {
          "internalType": "address payable",
          "name": "_to",
          "type": "address"
        },
        {
          "internalType": "address",
          "name": "rewardToken",
          "type": "address"
        }
      ],
      "name": "quitRewardToken",
      "outputs": [],
      "stateMutability": "nonpayable",
      "type": "function"
    }
  ],
  "bytecode": "0x608060405234801561001057600080fd5b506120da806100206000396000f3fe60806040526004361061012e5760003560e01c80638862445a116100ab5780639c489cbe1161006f5780639c489cbe1461050f578063a217fddf1461055e578063ca15c87314610573578063d547741f1461059d578063d6afc464146105d6578063e2bbb158146105eb57610194565b80638862445a146103ad5780639010d07c146103eb57806391d148541461043757806393f1a40b1461048457806398969e82146104d657610194565b806336568abe116100f257806336568abe146102d7578063441a3e7014610310578063485cc955146103405780635312ea8e1461036e578063630b5ba11461039857610194565b8063081e3eda1461019957806312eefa31146101c05780631526fe27146101fb578063248a9ca3146102745780632f2ff15d1461029e57610194565b36610194576000546001600160a01b03163314610192576040805162461bcd60e51b815260206004820152601c60248201527f4f6e6c7920737570706f72742076616c75652066726f6d20574f4e4500000000604482015290519081900360640190fd5b005b600080fd5b3480156101a557600080fd5b506101ae61061b565b60408051918252519081900360200190f35b3480156101cc57600080fd5b50610192600480360360408110156101e357600080fd5b506001600160a01b0381358116916020013516610621565b34801561020757600080fd5b506102256004803603602081101561021e57600080fd5b50356107c6565b604080516001600160a01b03998a1681526020810198909852878101969096526060870194909452608086019290925260a085015260c084015290921660e08201529051908190036101000190f35b34801561028057600080fd5b506101ae6004803603602081101561029757600080fd5b5035610826565b3480156102aa57600080fd5b50610192600480360360408110156102c157600080fd5b50803590602001356001600160a01b031661083b565b3480156102e357600080fd5b50610192600480360360408110156102fa57600080fd5b50803590602001356001600160a01b03166108a7565b34801561031c57600080fd5b506101926004803603604081101561033357600080fd5b5080359060200135610908565b6101926004803603604081101561035657600080fd5b506001600160a01b0381358116916020013516610c39565b34801561037a57600080fd5b506101926004803603602081101561039157600080fd5b5035610d02565b3480156103a457600080fd5b50610192610e05565b3480156103b957600080fd5b50610192600480360360808110156103d057600080fd5b50803590602081013590604081013590606001351515610e24565b3480156103f757600080fd5b5061041b6004803603604081101561040e57600080fd5b5080359060200135610e92565b604080516001600160a01b039092168252519081900360200190f35b34801561044357600080fd5b506104706004803603604081101561045a57600080fd5b50803590602001356001600160a01b0316610eb3565b604080519115158252519081900360200190f35b34801561049057600080fd5b506104bd600480360360408110156104a757600080fd5b50803590602001356001600160a01b0316610ecb565b6040805192835260208301919091528051918290030190f35b3480156104e257600080fd5b506104bd600480360360408110156104f957600080fd5b50803590602001356001600160a01b0316610eef565b34801561051b57600080fd5b50610192600480360360a081101561053257600080fd5b506001600160a01b03813581169160208101359160408201359160608101359160809091013516611049565b34801561056a57600080fd5b506101ae6112f9565b34801561057f57600080fd5b506101ae6004803603602081101561059657600080fd5b50356112fe565b3480156105a957600080fd5b50610192600480360360408110156105c057600080fd5b50803590602001356001600160a01b0316611315565b3480156105e257600080fd5b5061041b61136e565b3480156105f757600080fd5b506101926004803603604081101561060e57600080fd5b508035906020013561137d565b60015490565b61062c600033610eb3565b61063557600080fd5b6001600160a01b03821661067b576040805162461bcd60e51b815260206004820152600860248201526705f746f203d3d20360c41b604482015290519081900360640190fd5b6000816001600160a01b03166370a08231306040518263ffffffff1660e01b815260040180826001600160a01b0316815260200191505060206040518083038186803b1580156106ca57600080fd5b505afa1580156106de573d6000803e3d6000fd5b505050506040513d60208110156106f457600080fd5b50516040805163a9059cbb60e01b81526001600160a01b0386811660048301526024820184905291519293509084169163a9059cbb916044808201926020929091908290030181600087803b15801561074c57600080fd5b505af1158015610760573d6000803e3d6000fd5b505050506040513d602081101561077657600080fd5b50516107c1576040805162461bcd60e51b81526020600482015260156024820152741d1c985b9cd9995c881d1bdad95b8819985a5b1959605a1b604482015290519081900360640190fd5b505050565b600181815481106107d357fe5b6000918252602090912060089091020180546001820154600283015460038401546004850154600586015460068701546007909701546001600160a01b0396871698509496939592949193909290911688565b60009081526004602052604090206002015490565b60008281526004602052604090206002015461085e90610859611695565b610eb3565b6108995760405162461bcd60e51b815260040180806020018281038252602f815260200180611f56602f913960400191505060405180910390fd5b6108a38282611699565b5050565b6108af611695565b6001600160a01b0316816001600160a01b0316146108fe5760405162461bcd60e51b815260040180806020018281038252602f815260200180612076602f913960400191505060405180910390fd5b6108a38282611702565b6001548210610957576040805162461bcd60e51b81526020600482015260166024820152750e0d2c8407c7a40e0deded892dcccde5cd8cadccee8d60531b604482015290519081900360640190fd5b60006001838154811061096657fe5b6000918252602080832086845260028252604080852033865290925292208054600890920290920192508311156109d9576040805162461bcd60e51b81526020600482015260126024820152711dda5d1a191c985dce881b9bdd0819dbdbd960721b604482015290519081900360640190fd5b6109e28461176b565b6000610a1c8260010154610a1664e8d4a51000610a108760050154876000015461183790919063ffffffff16565b90611890565b906118f7565b90508315610a5c578154610a3090856118f7565b82556001830154610a4190856118f7565b60018401558254610a5c906001600160a01b03163386611954565b60058301548254610a779164e8d4a5100091610a1091611837565b60018301558015610bfb5760005460078401546001600160a01b0390811691161415610b30576000805460408051632e1a7d4d60e01b81526004810185905290516001600160a01b0390921692632e1a7d4d9260248084019382900301818387803b158015610ae557600080fd5b505af1158015610af9573d6000803e3d6000fd5b505060405133925083156108fc02915083906000818181858888f19350505050158015610b2a573d6000803e3d6000fd5b50610bfb565b60078301546040805163a9059cbb60e01b81523360048201526024810184905290516001600160a01b039092169163a9059cbb916044808201926020929091908290030181600087803b158015610b8657600080fd5b505af1158015610b9a573d6000803e3d6000fd5b505050506040513d6020811015610bb057600080fd5b5051610bfb576040805162461bcd60e51b81526020600482015260156024820152741d1c985b9cd9995c881d1bdad95b8819985a5b1959605a1b604482015290519081900360640190fd5b604080518581529051869133917ff279e6a1f5e320cca91135676d9cb6e44ca8a08c0b88342bcdb1144f6511b5689181900360200190a35050505050565b600354610100900460ff1680610c525750610c526119a6565b80610c60575060035460ff16155b610c9b5760405162461bcd60e51b815260040180806020018281038252602e815260200180611ffd602e913960400191505060405180910390fd5b600354610100900460ff16158015610cc6576003805460ff1961ff0019909116610100171660011790555b610cd1600084610899565b600080546001600160a01b0319166001600160a01b03841617905580156107c1576003805461ff0019169055505050565b6001548110610d51576040805162461bcd60e51b81526020600482015260166024820152750e0d2c8407c7a40e0deded892dcccde5cd8cadccee8d60531b604482015290519081900360640190fd5b600060018281548110610d6057fe5b6000918252602080832085845260028252604080852033865290925292208054600890920290920192508015610dc85781546001840154610da0916118f7565b6001808501919091556000808455908301558254610dc8906001600160a01b03163383611954565b604080518281529051859133917fbb757047c2b5f3974fe26b7c10f732e7bce710b0952a71082702781e62ae05959181900360200190a350505050565b60015460005b818110156108a357610e1c8161176b565b600101610e0b565b610e2f600033610eb3565b610e3857600080fd5b8015610e4657610e46610e05565b8260018581548110610e5457fe5b9060005260206000209060080201600601819055508160018581548110610e7757fe5b90600052602060002090600802016003018190555050505050565b6000828152600460205260408120610eaa90836119b7565b90505b92915050565b6000828152600460205260408120610eaa90836119c3565b60026020908152600092835260408084209091529082529020805460019091015482565b60015460009081908410610f43576040805162461bcd60e51b81526020600482015260166024820152750e0d2c8407c7a40e0deded892dcccde5cd8cadccee8d60531b604482015290519081900360640190fd5b600060018581548110610f5257fe5b600091825260208083208884526002825260408085206001600160a01b038a16865290925290832060089290920201600581015460038201549194509192904310610fa1578360030154610fa3565b435b9050836004015481118015610fbb5750600184015415155b1561101c576000610fd08560040154836119d8565b90506000610feb86600601548361183790919063ffffffff16565b90506110176110108760010154610a1064e8d4a510008561183790919063ffffffff16565b85906119e4565b935050505b8254600184015461103a90610a1664e8d4a51000610a108588611837565b95509550505050509250929050565b611054600033610eb3565b61105d57600080fd5b8243106110b1576040805162461bcd60e51b815260206004820152601d60248201527f626c6f636b2e6e756d626572203e3d20626f6e7573456e64426c6f636b000000604482015290519081900360640190fd5b8284106110ef5760405162461bcd60e51b8152600401808060200182810382526022815260200180611fdb6022913960400191505060405180910390fd5b6001600160a01b03851661113a576040805162461bcd60e51b815260206004820152600d60248201526c05f6c70546f6b656e203d3d203609c1b604482015290519081900360640190fd5b6000844311611149578461114b565b435b60408051610100810182526001600160a01b039889168152600060208201818152928201988952606082019788526080820193845260a0820181815260c08301978852958a1660e083019081526001805480820182559252915160089091027fb10e2d527612073b26eecdfd717e6a320cf44b4afac2b0732d9fcbe2b7fa0cf681018054928c166001600160a01b031993841617905592517fb10e2d527612073b26eecdfd717e6a320cf44b4afac2b0732d9fcbe2b7fa0cf784015597517fb10e2d527612073b26eecdfd717e6a320cf44b4afac2b0732d9fcbe2b7fa0cf883015595517fb10e2d527612073b26eecdfd717e6a320cf44b4afac2b0732d9fcbe2b7fa0cf982015590517fb10e2d527612073b26eecdfd717e6a320cf44b4afac2b0732d9fcbe2b7fa0cfa82015591517fb10e2d527612073b26eecdfd717e6a320cf44b4afac2b0732d9fcbe2b7fa0cfb8301555090517fb10e2d527612073b26eecdfd717e6a320cf44b4afac2b0732d9fcbe2b7fa0cfc82015590517fb10e2d527612073b26eecdfd717e6a320cf44b4afac2b0732d9fcbe2b7fa0cfd9091018054919093169116179055565b600081565b6000818152600460205260408120610ead90611a3e565b60008281526004602052604090206002015461133390610859611695565b6108fe5760405162461bcd60e51b8152600401808060200182810382526030815260200180611fab6030913960400191505060405180910390fd5b6000546001600160a01b031681565b60015482106113cc576040805162461bcd60e51b81526020600482015260166024820152750e0d2c8407c7a40e0deded892dcccde5cd8cadccee8d60531b604482015290519081900360640190fd5b6000600183815481106113db57fe5b9060005260206000209060080201905080600301544310611431576040805162461bcd60e51b815260206004820152600b60248201526a185b1c9958591e48195b9960aa1b604482015290519081900360640190fd5b61143a8361176b565b6000838152600260209081526040808320338452909152812060018101546005840154825492939261147c9291610a169164e8d4a5100091610a109190611837565b8354909150611496906001600160a01b0316333087611a49565b81546114a290856119e4565b825560018301546114b390856119e4565b6001840155600583015482546114d39164e8d4a5100091610a1091611837565b600183015580156116575760005460078401546001600160a01b039081169116141561158c576000805460408051632e1a7d4d60e01b81526004810185905290516001600160a01b0390921692632e1a7d4d9260248084019382900301818387803b15801561154157600080fd5b505af1158015611555573d6000803e3d6000fd5b505060405133925083156108fc02915083906000818181858888f19350505050158015611586573d6000803e3d6000fd5b50611657565b60078301546040805163a9059cbb60e01b81523360048201526024810184905290516001600160a01b039092169163a9059cbb916044808201926020929091908290030181600087803b1580156115e257600080fd5b505af11580156115f6573d6000803e3d6000fd5b505050506040513d602081101561160c57600080fd5b5051611657576040805162461bcd60e51b81526020600482015260156024820152741d1c985b9cd9995c881d1bdad95b8819985a5b1959605a1b604482015290519081900360640190fd5b604080518581529051869133917f90890809c654f11d6e72a28fa60149770a0d11ec6c92319d6ceb2bb0a4ea1a159181900360200190a35050505050565b3390565b60008281526004602052604090206116b19082611aa9565b156108a3576116be611695565b6001600160a01b0316816001600160a01b0316837f2f8788117e7eff1d82e926ec794901d17c78024a50270940304540a733656f0d60405160405180910390a45050565b600082815260046020526040902061171a9082611abe565b156108a357611727611695565b6001600160a01b0316816001600160a01b0316837ff6391f5c32d9c69d2a47ea670b442974b53935d1edc7fd64eb21e047a839171b60405160405180910390a45050565b60006001828154811061177a57fe5b906000526020600020906008020190506000816003015443106117a15781600301546117a3565b435b9050816004015481116117b7575050611834565b60018201546117cb57600490910155611834565b60006117db8360040154836119d8565b905060006117f684600601548361183790919063ffffffff16565b905061182661181b8560010154610a1064e8d4a510008561183790919063ffffffff16565b6005860154906119e4565b600585015550506004909101555b50565b60008261184657506000610ead565b8282028284828161185357fe5b0414610eaa5760405162461bcd60e51b815260040180806020018281038252602181526020018061202b6021913960400191505060405180910390fd5b60008082116118e6576040805162461bcd60e51b815260206004820152601a60248201527f536166654d6174683a206469766973696f6e206279207a65726f000000000000604482015290519081900360640190fd5b8183816118ef57fe5b049392505050565b60008282111561194e576040805162461bcd60e51b815260206004820152601e60248201527f536166654d6174683a207375627472616374696f6e206f766572666c6f770000604482015290519081900360640190fd5b50900390565b604080516001600160a01b038416602482015260448082018490528251808303909101815260649091019091526020810180516001600160e01b031663a9059cbb60e01b1790526107c1908490611ad3565b60006119b130611b84565b15905090565b6000610eaa8383611b8a565b6000610eaa836001600160a01b038416611bee565b6000610eaa82846118f7565b600082820183811015610eaa576040805162461bcd60e51b815260206004820152601b60248201527f536166654d6174683a206164646974696f6e206f766572666c6f770000000000604482015290519081900360640190fd5b6000610ead82611c06565b604080516001600160a01b0380861660248301528416604482015260648082018490528251808303909101815260849091019091526020810180516001600160e01b03166323b872dd60e01b179052611aa3908590611ad3565b50505050565b6000610eaa836001600160a01b038416611c0a565b6000610eaa836001600160a01b038416611c54565b6060611b28826040518060400160405280602081526020017f5361666545524332303a206c6f772d6c6576656c2063616c6c206661696c6564815250856001600160a01b0316611d1a9092919063ffffffff16565b8051909150156107c157808060200190516020811015611b4757600080fd5b50516107c15760405162461bcd60e51b815260040180806020018281038252602a81526020018061204c602a913960400191505060405180910390fd5b3b151590565b81546000908210611bcc5760405162461bcd60e51b8152600401808060200182810382526022815260200180611f346022913960400191505060405180910390fd5b826000018281548110611bdb57fe5b9060005260206000200154905092915050565b60009081526001919091016020526040902054151590565b5490565b6000611c168383611bee565b611c4c57508154600181810184556000848152602080822090930184905584548482528286019093526040902091909155610ead565b506000610ead565b60008181526001830160205260408120548015611d105783546000198083019190810190600090879083908110611c8757fe5b9060005260206000200154905080876000018481548110611ca457fe5b600091825260208083209091019290925582815260018981019092526040902090840190558654879080611cd457fe5b60019003818190600052602060002001600090559055866001016000878152602001908152602001600020600090556001945050505050610ead565b6000915050610ead565b6060611d298484600085611d33565b90505b9392505050565b606082471015611d745760405162461bcd60e51b8152600401808060200182810382526026815260200180611f856026913960400191505060405180910390fd5b611d7d85611b84565b611dce576040805162461bcd60e51b815260206004820152601d60248201527f416464726573733a2063616c6c20746f206e6f6e2d636f6e7472616374000000604482015290519081900360640190fd5b60006060866001600160a01b031685876040518082805190602001908083835b60208310611e0d5780518252601f199092019160209182019101611dee565b6001836020036101000a03801982511681845116808217855250505050505090500191505060006040518083038185875af1925050503d8060008114611e6f576040519150601f19603f3d011682016040523d82523d6000602084013e611e74565b606091505b5091509150611e84828286611e8f565b979650505050505050565b60608315611e9e575081611d2c565b825115611eae5782518084602001fd5b8160405162461bcd60e51b81526004018080602001828103825283818151815260200191508051906020019080838360005b83811015611ef8578181015183820152602001611ee0565b50505050905090810190601f168015611f255780820380516001836020036101000a031916815260200191505b509250505060405180910390fdfe456e756d657261626c655365743a20696e646578206f7574206f6620626f756e6473416363657373436f6e74726f6c3a2073656e646572206d75737420626520616e2061646d696e20746f206772616e74416464726573733a20696e73756666696369656e742062616c616e636520666f722063616c6c416363657373436f6e74726f6c3a2073656e646572206d75737420626520616e2061646d696e20746f207265766f6b655f626f6e75735374617274426c6f636b203e3d205f626f6e7573456e64426c6f636b496e697469616c697a61626c653a20636f6e747261637420697320616c726561647920696e697469616c697a6564536166654d6174683a206d756c7469706c69636174696f6e206f766572666c6f775361666545524332303a204552433230206f7065726174696f6e20646964206e6f742073756363656564416363657373436f6e74726f6c3a2063616e206f6e6c792072656e6f756e636520726f6c657320666f722073656c66a264697066735822122084d5b0fc4b87e72c48eb7c3c73ef0cd402019e91bf259ed387fe8a6b1556af1564736f6c634300060c0033",
  "immutableReferences": {},
  "source": "// SPDX-License-Identifier: MIT\npragma solidity 0.6.12;\n\n\nimport \"@openzeppelin/contracts/access/AccessControl.sol\";\nimport \"@openzeppelin/contracts/proxy/Initializable.sol\";\nimport \"./SafariStorage.sol\";\n\n\ncontract SafariDelegate is SafariStorage, Initializable, AccessControl {\n\n    event Deposit(address indexed user, uint256 indexed pid, uint256 amount);\n    event Withdraw(address indexed user, uint256 indexed pid, uint256 amount);\n    event EmergencyWithdraw(address indexed user, uint256 indexed pid, uint256 amount);\n    event QuitDexSwapDex(address to, uint256 amount);\n    event EmergencyQuitDexSwapDex(address to, uint256 amount);\n\n    function initialize(address admin, IWONE _wone) public payable initializer {\n        _setupRole(DEFAULT_ADMIN_ROLE, admin);\n        wone = _wone;\n    }\n\n    function poolLength() external view returns (uint256) {\n        return poolInfo.length;\n    }\n\n    // Add a new lp to the pool. Can only be called by the owner.\n    // XXX DO NOT add the same LP token more than once. Rewards will be messed up if you do.\n    function add(IERC20 _lpToken,\n                 uint256 _bonusStartBlock,\n                 uint256 _bonusEndBlock,\n                 uint256 _rewardPerBlock,\n                 address _rewardToken\n                 ) public {\n        require(hasRole(DEFAULT_ADMIN_ROLE, msg.sender));\n        require(block.number < _bonusEndBlock, \"block.number >= bonusEndBlock\");\n        require(_bonusStartBlock < _bonusEndBlock, \"_bonusStartBlock >= _bonusEndBlock\");\n        require(address(_lpToken) != address(0), \"_lpToken == 0\");\n\n        uint256 lastRewardBlock = block.number > _bonusStartBlock ? block.number : _bonusStartBlock;\n        poolInfo.push(PoolInfo({\n            lpToken: _lpToken,\n            currentSupply: 0,\n            bonusStartBlock: _bonusStartBlock,\n            bonusEndBlock: _bonusEndBlock,\n            lastRewardBlock: lastRewardBlock,\n            accRewardPerShare: 0,\n            rewardPerBlock: _rewardPerBlock,\n            rewardToken: _rewardToken\n        }));\n    }\n\n    // Update the given pool's. Can only be called by the owner.\n    function set(uint256 _pid, uint256 _rewardPerBlock, uint256 _bonusEndBlock, bool _withUpdate) public {\n        require(hasRole(DEFAULT_ADMIN_ROLE, msg.sender));\n        if (_withUpdate) {\n            massUpdatePools();\n        }\n        poolInfo[_pid].rewardPerBlock = _rewardPerBlock;\n        poolInfo[_pid].bonusEndBlock = _bonusEndBlock;\n    }\n\n    // Update reward vairables for all pools. Be careful of gas spending!\n    function massUpdatePools() public {\n        uint256 length = poolInfo.length;\n        for (uint256 pid = 0; pid < length; ++pid) {\n            updatePool(pid);\n        }\n    }\n\n    // Return reward multiplier over the given _from to _to block.\n    function getMultiplier(uint256 _from, uint256 _to) internal pure returns (uint256) {\n        return _to.sub(_from);\n    }\n\n    // View function to see pending DexSwapDex on frontend.\n    function pendingReward(uint256 _pid, address _user) external view returns (uint256, uint256) {\n        require(_pid < poolInfo.length,\"pid >= poolInfo.length\");\n        PoolInfo storage pool = poolInfo[_pid];\n        UserInfo storage user = userInfo[_pid][_user];\n        uint256 accRewardPerShare = pool.accRewardPerShare;\n\n        uint256 curBlockNumber = (block.number < pool.bonusEndBlock) ? block.number : pool.bonusEndBlock;\n        if (curBlockNumber > pool.lastRewardBlock && pool.currentSupply != 0) {\n            uint256 multiplier = getMultiplier(pool.lastRewardBlock, curBlockNumber);\n            uint256 tokenReward = multiplier.mul(pool.rewardPerBlock);\n            accRewardPerShare = accRewardPerShare.add(tokenReward.mul(1e12).div(pool.currentSupply));\n        }\n        return (user.amount, user.amount.mul(accRewardPerShare).div(1e12).sub(user.rewardDebt));\n    }\n\n    // Update reward variables of the given pool to be up-to-date.\n    function updatePool(uint256 _pid) internal {\n        PoolInfo storage pool = poolInfo[_pid];\n        uint256 curBlockNumber = (block.number < pool.bonusEndBlock) ? block.number : pool.bonusEndBlock;\n        if (curBlockNumber <= pool.lastRewardBlock) {\n            return;\n        }\n\n        if (pool.currentSupply == 0) {\n            pool.lastRewardBlock = curBlockNumber;\n            return;\n        }\n\n        uint256 multiplier = getMultiplier(pool.lastRewardBlock, curBlockNumber);\n        uint256 tokenReward = multiplier.mul(pool.rewardPerBlock);\n        pool.accRewardPerShare = pool.accRewardPerShare.add(tokenReward.mul(1e12).div(pool.currentSupply));\n        pool.lastRewardBlock = curBlockNumber;\n    }\n\n    function deposit(uint256 _pid, uint256 _amount) public {\n        require(_pid < poolInfo.length, \"pid >= poolInfo.length\");\n        PoolInfo storage pool = poolInfo[_pid];\n        require(block.number < pool.bonusEndBlock,\"already end\");\n\n        updatePool(_pid);\n        \n        UserInfo storage user = userInfo[_pid][msg.sender];\n\n        uint256 pending = user.amount.mul(pool.accRewardPerShare).div(1e12).sub(user.rewardDebt);\n        \n        pool.lpToken.safeTransferFrom(address(msg.sender), address(this), _amount);\n        user.amount = user.amount.add(_amount);\n        pool.currentSupply = pool.currentSupply.add(_amount);\n\n        user.rewardDebt = user.amount.mul(pool.accRewardPerShare).div(1e12);\n\n        if(pending > 0) {\n            if (pool.rewardToken == address(wone)) { // convert wone to WONE/ONE \n                wone.withdraw(pending);\n                msg.sender.transfer(pending);\n            } else {\n                require(IERC20(pool.rewardToken).transfer(msg.sender, pending), 'transfer token failed');\n            }\n        }\n        emit Deposit(msg.sender, _pid, _amount);\n    }\n\n    // Withdraw LP tokens from MasterChef.\n    function withdraw(uint256 _pid, uint256 _amount) public {\n        require(_pid < poolInfo.length, \"pid >= poolInfo.length\");\n        PoolInfo storage pool = poolInfo[_pid];\n        UserInfo storage user = userInfo[_pid][msg.sender];\n        require(user.amount >= _amount, \"withdraw: not good\");\n        updatePool(_pid);\n        uint256 pending = user.amount.mul(pool.accRewardPerShare).div(1e12).sub(user.rewardDebt);\n        \n        if(_amount > 0) {\n            user.amount = user.amount.sub(_amount);\n            pool.currentSupply = pool.currentSupply.sub(_amount);\n            pool.lpToken.safeTransfer(address(msg.sender), _amount);\n        }\n\n        user.rewardDebt = user.amount.mul(pool.accRewardPerShare).div(1e12);\n        if(pending > 0) {\n            if (pool.rewardToken == address(wone)) { // convert wone to WONE/ONE \n                wone.withdraw(pending);\n                msg.sender.transfer(pending);\n            } else {\n                require(IERC20(pool.rewardToken).transfer(msg.sender, pending), 'transfer token failed');\n            }\n        }\n        emit Withdraw(msg.sender, _pid, _amount);\n    }\n\n    // Withdraw without caring about rewards. EMERGENCY ONLY.\n    function emergencyWithdraw(uint256 _pid) public {\n        require(_pid < poolInfo.length, \"pid >= poolInfo.length\");\n        PoolInfo storage pool = poolInfo[_pid];\n        UserInfo storage user = userInfo[_pid][msg.sender];\n        uint256 amount = user.amount;\n        if(user.amount > 0){\n            pool.currentSupply = pool.currentSupply.sub(user.amount);\n            user.amount = 0;\n            user.rewardDebt = 0;\n            pool.lpToken.safeTransfer(address(msg.sender), amount);\n        }\n        emit EmergencyWithdraw(msg.sender, _pid, amount);\n    }\n\n    function quitRewardToken(address payable _to, address rewardToken) public {\n        require(hasRole(DEFAULT_ADMIN_ROLE, msg.sender));\n        require(_to != address(0), \"_to == 0\");\n        uint balance = IERC20(rewardToken).balanceOf(address(this));\n        require(IERC20(rewardToken).transfer(_to, balance), 'transfer token failed');\n    }\n\n    receive() external payable {\n        require(msg.sender == address(wone), \"Only support value from WONE\"); // only accept ONE via fallback from the WONE contract\n    }\n}\n",
  "sourcePath": "/mnt/d/Zoo/zoo-keeper-contracts-main/contracts/Safari/SafariDelegate.sol",
  "compiler": {
    "name": "solc",
    "version": "0.6.12+commit.27d51765.Emscripten.clang"
  },
  "schemaVersion": "3.3.4",
  "updatedAt": "2021-12-10T08:45:50.786Z",
  "networkType": "ethereum",
  "devdoc": {
    "kind": "dev",
    "methods": {
      "getRoleAdmin(bytes32)": {
        "details": "Returns the admin role that controls `role`. See {grantRole} and {revokeRole}. To change a role's admin, use {_setRoleAdmin}."
      },
      "getRoleMember(bytes32,uint256)": {
        "details": "Returns one of the accounts that have `role`. `index` must be a value between 0 and {getRoleMemberCount}, non-inclusive. Role bearers are not sorted in any particular way, and their ordering may change at any point. WARNING: When using {getRoleMember} and {getRoleMemberCount}, make sure you perform all queries on the same block. See the following https://forum.openzeppelin.com/t/iterating-over-elements-on-enumerableset-in-openzeppelin-contracts/2296[forum post] for more information."
      },
      "getRoleMemberCount(bytes32)": {
        "details": "Returns the number of accounts that have `role`. Can be used together with {getRoleMember} to enumerate all bearers of a role."
      },
      "grantRole(bytes32,address)": {
        "details": "Grants `role` to `account`. If `account` had not been already granted `role`, emits a {RoleGranted} event. Requirements: - the caller must have ``role``'s admin role."
      },
      "hasRole(bytes32,address)": {
        "details": "Returns `true` if `account` has been granted `role`."
      },
      "renounceRole(bytes32,address)": {
        "details": "Revokes `role` from the calling account. Roles are often managed via {grantRole} and {revokeRole}: this function's purpose is to provide a mechanism for accounts to lose their privileges if they are compromised (such as when a trusted device is misplaced). If the calling account had been granted `role`, emits a {RoleRevoked} event. Requirements: - the caller must be `account`."
      },
      "revokeRole(bytes32,address)": {
        "details": "Revokes `role` from `account`. If `account` had been granted `role`, emits a {RoleRevoked} event. Requirements: - the caller must have ``role``'s admin role."
      }
    },
    "version": 1
  },
  "userdoc": {
    "kind": "user",
    "methods": {},
    "version": 1
  }
}