{
  "contractName": "ZooHelperStorage",
  "abi": [
    {
      "inputs": [],
      "name": "nftFactory",
      "outputs": [
        {
          "internalType": "address",
          "name": "",
          "type": "address"
        }
      ],
      "stateMutability": "view",
      "type": "function"
    },
    {
      "inputs": [],
      "name": "safari",
      "outputs": [
        {
          "internalType": "address",
          "name": "",
          "type": "address"
        }
      ],
      "stateMutability": "view",
      "type": "function"
    },
    {
      "inputs": [],
      "name": "zooFarming",
      "outputs": [
        {
          "internalType": "address",
          "name": "",
          "type": "address"
        }
      ],
      "stateMutability": "view",
      "type": "function"
    },
    {
      "inputs": [],
      "name": "zooHarmony",
      "outputs": [
        {
          "internalType": "address",
          "name": "",
          "type": "address"
        }
      ],
      "stateMutability": "view",
      "type": "function"
    },
    {
      "inputs": [],
      "name": "zooPair",
      "outputs": [
        {
          "internalType": "address",
          "name": "",
          "type": "address"
        }
      ],
      "stateMutability": "view",
      "type": "function"
    }
  ],
  "bytecode": "0x608060405234801561001057600080fd5b50610110806100206000396000f3fe6080604052348015600f57600080fd5b506004361060505760003560e01c80635d15887a14605557806369e02d411460775780636c928e9e14607d578063a7e18cfc146083578063d63843cd146089575b600080fd5b605b608f565b604080516001600160a01b039092168252519081900360200190f35b605b609e565b605b60ad565b605b60bc565b605b60cb565b6004546001600160a01b031681565b6001546001600160a01b031681565b6000546001600160a01b031681565b6002546001600160a01b031681565b6003546001600160a01b03168156fea26469706673582212203b9883537c3dae2bc53026d5be7489db8835a08a00e2a43b7919485ed1509ba964736f6c634300060c0033",
  "immutableReferences": {},
  "source": "// SPDX-License-Identifier: MIT\npragma solidity 0.6.12;\n\nimport \"@openzeppelin/contracts/math/SafeMath.sol\";\n\ncontract ZooHelperStorage {\n    using SafeMath for uint256;\n\n    address public zooHarmony;\n    address public zooFarming;\n    address public zooPair;\n    address public nftFactory;\n    address public safari;\n}",
  "sourcePath": "/mnt/d/Zoo/zoo-keeper-contracts-main/contracts/helper/ZooHelperStorage.sol",
  "compiler": {
    "name": "solc",
    "version": "0.6.12+commit.27d51765.Emscripten.clang"
  },
  "schemaVersion": "3.3.4",
  "updatedAt": "2021-12-10T08:12:26.216Z",
  "devdoc": {
    "kind": "dev",
    "methods": {},
    "version": 1
  },
  "userdoc": {
    "kind": "user",
    "methods": {},
    "version": 1
  }
}