{
  "contractName": "ZooNFT",
  "abi": [
    {
      "anonymous": false,
      "inputs": [
        {
          "indexed": true,
          "internalType": "address",
          "name": "owner",
          "type": "address"
        },
        {
          "indexed": true,
          "internalType": "address",
          "name": "approved",
          "type": "address"
        },
        {
          "indexed": true,
          "internalType": "uint256",
          "name": "tokenId",
          "type": "uint256"
        }
      ],
      "name": "Approval",
      "type": "event"
    },
    {
      "anonymous": false,
      "inputs": [
        {
          "indexed": true,
          "internalType": "address",
          "name": "owner",
          "type": "address"
        },
        {
          "indexed": true,
          "internalType": "address",
          "name": "operator",
          "type": "address"
        },
        {
          "indexed": false,
          "internalType": "bool",
          "name": "approved",
          "type": "bool"
        }
      ],
      "name": "ApprovalForAll",
      "type": "event"
    },
    {
      "anonymous": false,
      "inputs": [
        {
          "indexed": true,
          "internalType": "bytes32",
          "name": "role",
          "type": "bytes32"
        },
        {
          "indexed": true,
          "internalType": "bytes32",
          "name": "previousAdminRole",
          "type": "bytes32"
        },
        {
          "indexed": true,
          "internalType": "bytes32",
          "name": "newAdminRole",
          "type": "bytes32"
        }
      ],
      "name": "RoleAdminChanged",
      "type": "event"
    },
    {
      "anonymous": false,
      "inputs": [
        {
          "indexed": true,
          "internalType": "bytes32",
          "name": "role",
          "type": "bytes32"
        },
        {
          "indexed": true,
          "internalType": "address",
          "name": "account",
          "type": "address"
        },
        {
          "indexed": true,
          "internalType": "address",
          "name": "sender",
          "type": "address"
        }
      ],
      "name": "RoleGranted",
      "type": "event"
    },
    {
      "anonymous": false,
      "inputs": [
        {
          "indexed": true,
          "internalType": "bytes32",
          "name": "role",
          "type": "bytes32"
        },
        {
          "indexed": true,
          "internalType": "address",
          "name": "account",
          "type": "address"
        },
        {
          "indexed": true,
          "internalType": "address",
          "name": "sender",
          "type": "address"
        }
      ],
      "name": "RoleRevoked",
      "type": "event"
    },
    {
      "anonymous": false,
      "inputs": [
        {
          "indexed": true,
          "internalType": "address",
          "name": "from",
          "type": "address"
        },
        {
          "indexed": true,
          "internalType": "address",
          "name": "to",
          "type": "address"
        },
        {
          "indexed": true,
          "internalType": "uint256",
          "name": "tokenId",
          "type": "uint256"
        }
      ],
      "name": "Transfer",
      "type": "event"
    },
    {
      "inputs": [
        {
          "internalType": "uint256",
          "name": "",
          "type": "uint256"
        }
      ],
      "name": "CATEGORY_CHANCE",
      "outputs": [
        {
          "internalType": "uint256",
          "name": "",
          "type": "uint256"
        }
      ],
      "stateMutability": "view",
      "type": "function",
      "constant": true
    },
    {
      "inputs": [],
      "name": "DEFAULT_ADMIN_ROLE",
      "outputs": [
        {
          "internalType": "bytes32",
          "name": "",
          "type": "bytes32"
        }
      ],
      "stateMutability": "view",
      "type": "function",
      "constant": true
    },
    {
      "inputs": [
        {
          "internalType": "uint256",
          "name": "",
          "type": "uint256"
        }
      ],
      "name": "ITEM_CHANCE",
      "outputs": [
        {
          "internalType": "uint256",
          "name": "",
          "type": "uint256"
        }
      ],
      "stateMutability": "view",
      "type": "function",
      "constant": true
    },
    {
      "inputs": [
        {
          "internalType": "uint256",
          "name": "",
          "type": "uint256"
        }
      ],
      "name": "LEVEL_CHANCE",
      "outputs": [
        {
          "internalType": "uint256",
          "name": "",
          "type": "uint256"
        }
      ],
      "stateMutability": "view",
      "type": "function",
      "constant": true
    },
    {
      "inputs": [],
      "name": "MULTIPLIER_SCALE",
      "outputs": [
        {
          "internalType": "uint256",
          "name": "",
          "type": "uint256"
        }
      ],
      "stateMutability": "view",
      "type": "function",
      "constant": true
    },
    {
      "inputs": [],
      "name": "NFT_FACTORY_ROLE",
      "outputs": [
        {
          "internalType": "bytes32",
          "name": "",
          "type": "bytes32"
        }
      ],
      "stateMutability": "view",
      "type": "function",
      "constant": true
    },
    {
      "inputs": [
        {
          "internalType": "address",
          "name": "to",
          "type": "address"
        },
        {
          "internalType": "uint256",
          "name": "tokenId",
          "type": "uint256"
        }
      ],
      "name": "approve",
      "outputs": [],
      "stateMutability": "nonpayable",
      "type": "function"
    },
    {
      "inputs": [
        {
          "internalType": "address",
          "name": "owner",
          "type": "address"
        }
      ],
      "name": "balanceOf",
      "outputs": [
        {
          "internalType": "uint256",
          "name": "",
          "type": "uint256"
        }
      ],
      "stateMutability": "view",
      "type": "function",
      "constant": true
    },
    {
      "inputs": [],
      "name": "baseURI",
      "outputs": [
        {
          "internalType": "string",
          "name": "",
          "type": "string"
        }
      ],
      "stateMutability": "view",
      "type": "function",
      "constant": true
    },
    {
      "inputs": [
        {
          "internalType": "uint256",
          "name": "",
          "type": "uint256"
        }
      ],
      "name": "boostMap",
      "outputs": [
        {
          "internalType": "uint256",
          "name": "",
          "type": "uint256"
        }
      ],
      "stateMutability": "view",
      "type": "function",
      "constant": true
    },
    {
      "inputs": [
        {
          "internalType": "uint256",
          "name": "tokenId",
          "type": "uint256"
        }
      ],
      "name": "getApproved",
      "outputs": [
        {
          "internalType": "address",
          "name": "",
          "type": "address"
        }
      ],
      "stateMutability": "view",
      "type": "function",
      "constant": true
    },
    {
      "inputs": [
        {
          "internalType": "bytes32",
          "name": "role",
          "type": "bytes32"
        }
      ],
      "name": "getRoleAdmin",
      "outputs": [
        {
          "internalType": "bytes32",
          "name": "",
          "type": "bytes32"
        }
      ],
      "stateMutability": "view",
      "type": "function",
      "constant": true
    },
    {
      "inputs": [
        {
          "internalType": "bytes32",
          "name": "role",
          "type": "bytes32"
        },
        {
          "internalType": "uint256",
          "name": "index",
          "type": "uint256"
        }
      ],
      "name": "getRoleMember",
      "outputs": [
        {
          "internalType": "address",
          "name": "",
          "type": "address"
        }
      ],
      "stateMutability": "view",
      "type": "function",
      "constant": true
    },
    {
      "inputs": [
        {
          "internalType": "bytes32",
          "name": "role",
          "type": "bytes32"
        }
      ],
      "name": "getRoleMemberCount",
      "outputs": [
        {
          "internalType": "uint256",
          "name": "",
          "type": "uint256"
        }
      ],
      "stateMutability": "view",
      "type": "function",
      "constant": true
    },
    {
      "inputs": [
        {
          "internalType": "bytes32",
          "name": "role",
          "type": "bytes32"
        },
        {
          "internalType": "address",
          "name": "account",
          "type": "address"
        }
      ],
      "name": "grantRole",
      "outputs": [],
      "stateMutability": "nonpayable",
      "type": "function"
    },
    {
      "inputs": [
        {
          "internalType": "bytes32",
          "name": "role",
          "type": "bytes32"
        },
        {
          "internalType": "address",
          "name": "account",
          "type": "address"
        }
      ],
      "name": "hasRole",
      "outputs": [
        {
          "internalType": "bool",
          "name": "",
          "type": "bool"
        }
      ],
      "stateMutability": "view",
      "type": "function",
      "constant": true
    },
    {
      "inputs": [
        {
          "internalType": "address",
          "name": "owner",
          "type": "address"
        },
        {
          "internalType": "address",
          "name": "operator",
          "type": "address"
        }
      ],
      "name": "isApprovedForAll",
      "outputs": [
        {
          "internalType": "bool",
          "name": "",
          "type": "bool"
        }
      ],
      "stateMutability": "view",
      "type": "function",
      "constant": true
    },
    {
      "inputs": [
        {
          "internalType": "uint256",
          "name": "",
          "type": "uint256"
        },
        {
          "internalType": "uint256",
          "name": "",
          "type": "uint256"
        },
        {
          "internalType": "uint256",
          "name": "",
          "type": "uint256"
        }
      ],
      "name": "itemSupply",
      "outputs": [
        {
          "internalType": "uint256",
          "name": "",
          "type": "uint256"
        }
      ],
      "stateMutability": "view",
      "type": "function",
      "constant": true
    },
    {
      "inputs": [],
      "name": "name",
      "outputs": [
        {
          "internalType": "string",
          "name": "",
          "type": "string"
        }
      ],
      "stateMutability": "view",
      "type": "function",
      "constant": true
    },
    {
      "inputs": [
        {
          "internalType": "uint256",
          "name": "",
          "type": "uint256"
        },
        {
          "internalType": "uint256",
          "name": "",
          "type": "uint256"
        },
        {
          "internalType": "uint256",
          "name": "",
          "type": "uint256"
        }
      ],
      "name": "nftURI",
      "outputs": [
        {
          "internalType": "string",
          "name": "",
          "type": "string"
        }
      ],
      "stateMutability": "view",
      "type": "function",
      "constant": true
    },
    {
      "inputs": [
        {
          "internalType": "uint256",
          "name": "tokenId",
          "type": "uint256"
        }
      ],
      "name": "ownerOf",
      "outputs": [
        {
          "internalType": "address",
          "name": "",
          "type": "address"
        }
      ],
      "stateMutability": "view",
      "type": "function",
      "constant": true
    },
    {
      "inputs": [
        {
          "internalType": "uint256",
          "name": "",
          "type": "uint256"
        }
      ],
      "name": "reduceMap",
      "outputs": [
        {
          "internalType": "uint256",
          "name": "",
          "type": "uint256"
        }
      ],
      "stateMutability": "view",
      "type": "function",
      "constant": true
    },
    {
      "inputs": [
        {
          "internalType": "bytes32",
          "name": "role",
          "type": "bytes32"
        },
        {
          "internalType": "address",
          "name": "account",
          "type": "address"
        }
      ],
      "name": "renounceRole",
      "outputs": [],
      "stateMutability": "nonpayable",
      "type": "function"
    },
    {
      "inputs": [
        {
          "internalType": "bytes32",
          "name": "role",
          "type": "bytes32"
        },
        {
          "internalType": "address",
          "name": "account",
          "type": "address"
        }
      ],
      "name": "revokeRole",
      "outputs": [],
      "stateMutability": "nonpayable",
      "type": "function"
    },
    {
      "inputs": [
        {
          "internalType": "address",
          "name": "from",
          "type": "address"
        },
        {
          "internalType": "address",
          "name": "to",
          "type": "address"
        },
        {
          "internalType": "uint256",
          "name": "tokenId",
          "type": "uint256"
        }
      ],
      "name": "safeTransferFrom",
      "outputs": [],
      "stateMutability": "nonpayable",
      "type": "function"
    },
    {
      "inputs": [
        {
          "internalType": "address",
          "name": "from",
          "type": "address"
        },
        {
          "internalType": "address",
          "name": "to",
          "type": "address"
        },
        {
          "internalType": "uint256",
          "name": "tokenId",
          "type": "uint256"
        },
        {
          "internalType": "bytes",
          "name": "_data",
          "type": "bytes"
        }
      ],
      "name": "safeTransferFrom",
      "outputs": [],
      "stateMutability": "nonpayable",
      "type": "function"
    },
    {
      "inputs": [
        {
          "internalType": "address",
          "name": "operator",
          "type": "address"
        },
        {
          "internalType": "bool",
          "name": "approved",
          "type": "bool"
        }
      ],
      "name": "setApprovalForAll",
      "outputs": [],
      "stateMutability": "nonpayable",
      "type": "function"
    },
    {
      "inputs": [
        {
          "internalType": "bytes4",
          "name": "interfaceId",
          "type": "bytes4"
        }
      ],
      "name": "supportsInterface",
      "outputs": [
        {
          "internalType": "bool",
          "name": "",
          "type": "bool"
        }
      ],
      "stateMutability": "view",
      "type": "function",
      "constant": true
    },
    {
      "inputs": [],
      "name": "symbol",
      "outputs": [
        {
          "internalType": "string",
          "name": "",
          "type": "string"
        }
      ],
      "stateMutability": "view",
      "type": "function",
      "constant": true
    },
    {
      "inputs": [
        {
          "internalType": "uint256",
          "name": "index",
          "type": "uint256"
        }
      ],
      "name": "tokenByIndex",
      "outputs": [
        {
          "internalType": "uint256",
          "name": "",
          "type": "uint256"
        }
      ],
      "stateMutability": "view",
      "type": "function",
      "constant": true
    },
    {
      "inputs": [
        {
          "internalType": "uint256",
          "name": "",
          "type": "uint256"
        }
      ],
      "name": "tokenInfo",
      "outputs": [
        {
          "internalType": "uint256",
          "name": "level",
          "type": "uint256"
        },
        {
          "internalType": "uint256",
          "name": "category",
          "type": "uint256"
        },
        {
          "internalType": "uint256",
          "name": "item",
          "type": "uint256"
        },
        {
          "internalType": "uint256",
          "name": "random",
          "type": "uint256"
        }
      ],
      "stateMutability": "view",
      "type": "function",
      "constant": true
    },
    {
      "inputs": [
        {
          "internalType": "address",
          "name": "owner",
          "type": "address"
        },
        {
          "internalType": "uint256",
          "name": "index",
          "type": "uint256"
        }
      ],
      "name": "tokenOfOwnerByIndex",
      "outputs": [
        {
          "internalType": "uint256",
          "name": "",
          "type": "uint256"
        }
      ],
      "stateMutability": "view",
      "type": "function",
      "constant": true
    },
    {
      "inputs": [
        {
          "internalType": "uint256",
          "name": "tokenId",
          "type": "uint256"
        }
      ],
      "name": "tokenURI",
      "outputs": [
        {
          "internalType": "string",
          "name": "",
          "type": "string"
        }
      ],
      "stateMutability": "view",
      "type": "function",
      "constant": true
    },
    {
      "inputs": [],
      "name": "totalSupply",
      "outputs": [
        {
          "internalType": "uint256",
          "name": "",
          "type": "uint256"
        }
      ],
      "stateMutability": "view",
      "type": "function",
      "constant": true
    },
    {
      "inputs": [
        {
          "internalType": "address",
          "name": "from",
          "type": "address"
        },
        {
          "internalType": "address",
          "name": "to",
          "type": "address"
        },
        {
          "internalType": "uint256",
          "name": "tokenId",
          "type": "uint256"
        }
      ],
      "name": "transferFrom",
      "outputs": [],
      "stateMutability": "nonpayable",
      "type": "function"
    },
    {
      "inputs": [
        {
          "internalType": "address",
          "name": "admin",
          "type": "address"
        }
      ],
      "name": "initialize",
      "outputs": [],
      "stateMutability": "payable",
      "type": "function",
      "payable": true
    },
    {
      "inputs": [
        {
          "internalType": "address",
          "name": "_nftFactory",
          "type": "address"
        }
      ],
      "name": "setNFTFactory",
      "outputs": [],
      "stateMutability": "nonpayable",
      "type": "function"
    },
    {
      "inputs": [
        {
          "internalType": "string",
          "name": "_baseURI",
          "type": "string"
        }
      ],
      "name": "setBaseURI",
      "outputs": [],
      "stateMutability": "nonpayable",
      "type": "function"
    },
    {
      "inputs": [
        {
          "internalType": "uint256",
          "name": "level",
          "type": "uint256"
        },
        {
          "internalType": "uint256",
          "name": "category",
          "type": "uint256"
        },
        {
          "internalType": "uint256",
          "name": "item",
          "type": "uint256"
        },
        {
          "internalType": "string",
          "name": "URI",
          "type": "string"
        }
      ],
      "name": "setNftURI",
      "outputs": [],
      "stateMutability": "nonpayable",
      "type": "function"
    },
    {
      "inputs": [
        {
          "internalType": "uint256[]",
          "name": "levels",
          "type": "uint256[]"
        },
        {
          "internalType": "uint256[]",
          "name": "categorys",
          "type": "uint256[]"
        },
        {
          "internalType": "uint256[]",
          "name": "items",
          "type": "uint256[]"
        },
        {
          "internalType": "string[]",
          "name": "URIs",
          "type": "string[]"
        }
      ],
      "name": "setMultiNftURI",
      "outputs": [],
      "stateMutability": "nonpayable",
      "type": "function"
    },
    {
      "inputs": [
        {
          "internalType": "uint256",
          "name": "level",
          "type": "uint256"
        },
        {
          "internalType": "uint256",
          "name": "category",
          "type": "uint256"
        },
        {
          "internalType": "uint256",
          "name": "item",
          "type": "uint256"
        }
      ],
      "name": "getNftURI",
      "outputs": [
        {
          "internalType": "string",
          "name": "",
          "type": "string"
        }
      ],
      "stateMutability": "view",
      "type": "function",
      "constant": true
    },
    {
      "inputs": [
        {
          "internalType": "uint256[]",
          "name": "chances",
          "type": "uint256[]"
        },
        {
          "internalType": "uint256[]",
          "name": "boosts",
          "type": "uint256[]"
        },
        {
          "internalType": "uint256[]",
          "name": "reduces",
          "type": "uint256[]"
        }
      ],
      "name": "setBoostMap",
      "outputs": [],
      "stateMutability": "nonpayable",
      "type": "function"
    },
    {
      "inputs": [
        {
          "internalType": "uint256",
          "name": "_tokenId",
          "type": "uint256"
        }
      ],
      "name": "getBoosting",
      "outputs": [
        {
          "internalType": "uint256",
          "name": "",
          "type": "uint256"
        }
      ],
      "stateMutability": "view",
      "type": "function",
      "constant": true
    },
    {
      "inputs": [
        {
          "internalType": "uint256",
          "name": "_tokenId",
          "type": "uint256"
        }
      ],
      "name": "getLockTimeReduce",
      "outputs": [
        {
          "internalType": "uint256",
          "name": "",
          "type": "uint256"
        }
      ],
      "stateMutability": "view",
      "type": "function",
      "constant": true
    },
    {
      "inputs": [
        {
          "internalType": "uint256",
          "name": "tokenId",
          "type": "uint256"
        },
        {
          "internalType": "uint256",
          "name": "_level",
          "type": "uint256"
        },
        {
          "internalType": "uint256",
          "name": "_category",
          "type": "uint256"
        },
        {
          "internalType": "uint256",
          "name": "_item",
          "type": "uint256"
        },
        {
          "internalType": "uint256",
          "name": "_random",
          "type": "uint256"
        }
      ],
      "name": "mint",
      "outputs": [],
      "stateMutability": "nonpayable",
      "type": "function"
    },
    {
      "inputs": [
        {
          "internalType": "uint256",
          "name": "tokenId",
          "type": "uint256"
        }
      ],
      "name": "getTokenChance",
      "outputs": [
        {
          "internalType": "uint256",
          "name": "chance",
          "type": "uint256"
        }
      ],
      "stateMutability": "view",
      "type": "function",
      "constant": true
    },
    {
      "inputs": [
        {
          "internalType": "uint256",
          "name": "level",
          "type": "uint256"
        },
        {
          "internalType": "uint256",
          "name": "category",
          "type": "uint256"
        },
        {
          "internalType": "uint256",
          "name": "item",
          "type": "uint256"
        }
      ],
      "name": "getLevelChance",
      "outputs": [
        {
          "internalType": "uint256",
          "name": "chance",
          "type": "uint256"
        }
      ],
      "stateMutability": "view",
      "type": "function",
      "constant": true
    }
  ],
  "bytecode": "0x60806040523480156200001157600080fd5b50604080518082018252600680825265169bdbd3919560d21b602080840182905284518086019095529184529083015290620000546301ffc9a760e01b620000be565b81516200006990600690602085019062000119565b5080516200007f90600790602084019062000119565b50620000926380ac58cd60e01b620000be565b620000a4635b5e139f60e01b620000be565b620000b663780e9d6360e01b620000be565b5050620001ec565b6001600160e01b03198082161415620000f45760405162461bcd60e51b8152600401620000eb90620001b5565b60405180910390fd5b6001600160e01b0319166000908152602081905260409020805460ff19166001179055565b828054600181600116156101000203166002900490600052602060002090601f016020900481019282601f106200015c57805160ff19168380011785556200018c565b828001600101855582156200018c579182015b828111156200018c5782518255916020019190600101906200016f565b506200019a9291506200019e565b5090565b5b808211156200019a57600081556001016200019f565b6020808252601c908201527f4552433136353a20696e76616c696420696e7465726661636520696400000000604082015260600190565b61341c80620001fc6000396000f3fe6080604052600436106102885760003560e01c806370a082311161015a578063a5600901116100c1578063cb2d93ce1161007a578063cb2d93ce14610792578063cc33c875146107b2578063d547741f146107e2578063db69323a14610802578063e985e9c514610822578063fff7bb501461084257610288565b8063a5600901146106df578063ae3dfa28146106ff578063b88d4fde1461071f578063c4d66de81461073f578063c87b56dd14610752578063ca15c8731461077257610288565b806392c872d31161011357806392c872d31461063557806393f6c2c61461065557806395d89b4114610675578063a1c908d81461068a578063a217fddf146106aa578063a22cb465146106bf57610288565b806370a082311461058057806377410f99146105a05780637a45fe83146105c057806387426b7a146105d55780639010d07c146105f557806391d148541461061557610288565b806336568abe116101fe57806355f804b3116101b757806355f804b3146104d657806357314870146104f65780635880eca51461050b5780636352211e1461052b5780636a28d92b1461054b5780636c0360eb1461056b57610288565b806336568abe14610416578063372c36791461043657806342842e0e1461045657806342a9111b14610476578063447646d2146104965780634f6ccce7146104b657610288565b806318160ddd1161025057806318160ddd1461036157806323b872dd14610376578063248a9ca3146103965780632f2ff15d146103b65780632f745c59146103d657806330cb529d146103f657610288565b806301ffc9a71461028d578063050509bd146102c357806306fdde03146102f0578063081812fc14610312578063095ea7b31461033f575b600080fd5b34801561029957600080fd5b506102ad6102a83660046129ab565b610862565b6040516102ba9190612b79565b60405180910390f35b3480156102cf57600080fd5b506102e36102de36600461294e565b610885565b6040516102ba9190612b84565b3480156102fc57600080fd5b50610305610897565b6040516102ba9190612b8d565b34801561031e57600080fd5b5061033261032d36600461294e565b61092d565b6040516102ba9190612b32565b34801561034b57600080fd5b5061035f61035a3660046127aa565b610979565b005b34801561036d57600080fd5b506102e3610a11565b34801561038257600080fd5b5061035f6103913660046126c7565b610a22565b3480156103a257600080fd5b506102e36103b136600461294e565b610a5a565b3480156103c257600080fd5b5061035f6103d1366004612966565b610a6f565b3480156103e257600080fd5b506102e36103f13660046127aa565b610ab7565b34801561040257600080fd5b506102e361041136600461294e565b610ae2565b34801561042257600080fd5b5061035f610431366004612966565b610af4565b34801561044257600080fd5b506102e361045136600461294e565b610b36565b34801561046257600080fd5b5061035f6104713660046126c7565b610b48565b34801561048257600080fd5b506102e3610491366004612a16565b610b63565b3480156104a257600080fd5b506102e36104b136600461294e565b610b86565b3480156104c257600080fd5b506102e36104d136600461294e565b610b98565b3480156104e257600080fd5b5061035f6104f13660046129e3565b610bae565b34801561050257600080fd5b506102e3610bce565b34801561051757600080fd5b506102e3610526366004612a16565b610bd7565b34801561053757600080fd5b5061033261054636600461294e565b610c62565b34801561055757600080fd5b5061035f610566366004612858565b610c8a565b34801561057757600080fd5b50610305610d4f565b34801561058c57600080fd5b506102e361059b366004612678565b610db0565b3480156105ac57600080fd5b506102e36105bb36600461294e565b610df9565b3480156105cc57600080fd5b506102e3610e5a565b3480156105e157600080fd5b5061035f6105f0366004612a41565b610e6c565b34801561060157600080fd5b5061033261061036600461298a565b610eaf565b34801561062157600080fd5b506102ad610630366004612966565b610ec7565b34801561064157600080fd5b506102e361065036600461294e565b610edf565b34801561066157600080fd5b50610305610670366004612a16565b610f04565b34801561068157600080fd5b50610305610fb7565b34801561069657600080fd5b506102e36106a536600461294e565b611018565b3480156106b657600080fd5b506102e361102a565b3480156106cb57600080fd5b5061035f6106da36600461276f565b61102f565b3480156106eb57600080fd5b5061035f6106fa3660046127d4565b6110fd565b34801561070b57600080fd5b5061035f61071a366004612a81565b6111a8565b34801561072b57600080fd5b5061035f61073a366004612707565b6112fd565b61035f61074d366004612678565b611336565b34801561075e57600080fd5b5061030561076d36600461294e565b611636565b34801561077e57600080fd5b506102e361078d36600461294e565b61177c565b34801561079e57600080fd5b5061035f6107ad366004612678565b611793565b3480156107be57600080fd5b506107d26107cd36600461294e565b6117ab565b6040516102ba94939291906132b2565b3480156107ee57600080fd5b5061035f6107fd366004612966565b6117d2565b34801561080e57600080fd5b5061030561081d366004612a16565b61180c565b34801561082e57600080fd5b506102ad61083d366004612693565b6118b8565b34801561084e57600080fd5b506102e361085d36600461294e565b6118e6565b6001600160e01b0319811660009081526020819052604090205460ff165b919050565b600f6020526000908152604090205481565b60068054604080516020601f60026000196101006001881615020190951694909404938401819004810282018101909252828152606093909290918301828280156109235780601f106108f857610100808354040283529160200191610923565b820191906000526020600020905b81548152906001019060200180831161090657829003601f168201915b5050505050905090565b60006109388261193d565b61095d5760405162461bcd60e51b815260040161095490613023565b60405180910390fd5b506000908152600460205260409020546001600160a01b031690565b600061098482610c62565b9050806001600160a01b0316836001600160a01b031614156109b85760405162461bcd60e51b815260040161095490613153565b806001600160a01b03166109ca61194a565b6001600160a01b031614806109e657506109e68161083d61194a565b610a025760405162461bcd60e51b815260040161095490612e76565b610a0c838361194e565b505050565b6000610a1d60026119bc565b905090565b610a33610a2d61194a565b826119c7565b610a4f5760405162461bcd60e51b8152600401610954906131db565b610a0c838383611a4c565b6000908152600b602052604090206002015490565b6000828152600b6020526040902060020154610a8d9061063061194a565b610aa95760405162461bcd60e51b815260040161095490612be2565b610ab38282611b5a565b5050565b6001600160a01b0382166000908152600160205260408120610ad99083611bc3565b90505b92915050565b60116020526000908152604090205481565b610afc61194a565b6001600160a01b0316816001600160a01b031614610b2c5760405162461bcd60e51b815260040161095490613263565b610ab38282611bcf565b60106020526000908152604090205481565b610a0c838383604051806020016040528060008152506112fd565b601360209081526000938452604080852082529284528284209052825290205481565b600e6020526000908152604090205481565b600080610ba6600284611c38565b509392505050565b610bb9600033610ec7565b610bc257600080fd5b610bcb81611c54565b50565b64e8d4a5100081565b6000831580610be4575082155b80610bed575081155b15610bfa57506000610c5b565b6000198083016000908152601060209081526040808320548785018452600f8352818420549489018452600e90925290912054610c589264e8d4a5100092610c4c929091610c52918591859190611c67565b90611ca1565b90611c67565b90505b9392505050565b6000610adc826040518060600160405280602981526020016133be6029913960029190611cd3565b610c95600033610ec7565b610c9e57600080fd5b60005b8451811015610d4857818181518110610cb657fe5b6020026020010151600d6000878481518110610cce57fe5b602002602001015181526020019081526020016000206000868481518110610cf257fe5b602002602001015181526020019081526020016000206000858481518110610d1657fe5b602002602001015181526020019081526020016000209080519060200190610d3f9291906124f7565b50600101610ca1565b5050505050565b60098054604080516020601f60026000196101006001881615020190951694909404938401819004810282018101909252828152606093909290918301828280156109235780601f106108f857610100808354040283529160200191610923565b60006001600160a01b038216610dd85760405162461bcd60e51b815260040161095490612ed3565b6001600160a01b0382166000908152600160205260409020610adc906119bc565b600080610e0583610edf565b600081815260116020908152604080832054878452600c909252909120600301549192509064e8d4a51000610e50610e408362989680611c67565b610e4a8386611ce0565b90611ce0565b9695505050505050565b60008051602061339e83398151915281565b610e77600033610ec7565b610e8057600080fd5b6000848152600d60209081526040808320868452825280832085845282529091208251610d48928401906124f7565b6000828152600b60205260408120610ad99083611bc3565b6000828152600b60205260408120610ad99083611d05565b6000818152600c6020526040812080546001820154600290920154610adc9290610bd7565b6000838152600d60209081526040808320858452825280832084845282529182902080548351601f6002600019610100600186161502019093169290920491820184900484028101840190945280845260609392830182828015610fa95780601f10610f7e57610100808354040283529160200191610fa9565b820191906000526020600020905b815481529060010190602001808311610f8c57829003601f168201915b505050505090509392505050565b60078054604080516020601f60026000196101006001881615020190951694909404938401819004810282018101909252828152606093909290918301828280156109235780601f106108f857610100808354040283529160200191610923565b60126020526000908152604090205481565b600081565b61103761194a565b6001600160a01b0316826001600160a01b031614156110685760405162461bcd60e51b815260040161095490612d35565b806005600061107561194a565b6001600160a01b03908116825260208083019390935260409182016000908120918716808252919093529120805460ff1916921515929092179091556110b961194a565b6001600160a01b03167f17307eab39ab6107e8899845ad3d59bd9653f200f220920489ca2b5937696c31836040516110f19190612b79565b60405180910390a35050565b611108600033610ec7565b61111157600080fd5b60005b83518110156111a25782818151811061112957fe5b60200260200101516011600086848151811061114157fe5b602002602001015181526020019081526020016000208190555081818151811061116757fe5b60200260200101516012600086848151811061117f57fe5b602090810291909101810151825281019190915260400160002055600101611114565b50505050565b6111c060008051602061339e83398151915233610ec7565b6111c957600080fd5b6111d33386611d1a565b6000841180156111e35750600584105b6111ff5760405162461bcd60e51b815260040161095490613194565b6000858152600c60209081526040808320878155600180820188905560028083018890556003909201869055888552600d84528285208886528452828520878652845293829020805483519581161561010002600019011691909104601f81018490048402850184019092528184526112d29389939092908301828280156112c85780601f1061129d576101008083540402835291602001916112c8565b820191906000526020600020905b8154815290600101906020018083116112ab57829003601f168201915b5050505050611d34565b5060009283526013602090815260408085209385529281528284209184525290208054600101905550565b61130e61130861194a565b836119c7565b61132a5760405162461bcd60e51b8152600401610954906131db565b6111a284848484611d78565b600a54610100900460ff168061134f575061134f611dab565b8061135d5750600a5460ff16155b6113795760405162461bcd60e51b815260040161095490612f1d565b600a54610100900460ff161580156113a457600a805460ff1961ff0019909116610100171660011790555b6113af600083610aa9565b6113c860008051602061339e8339815191526000611dbc565b648bb2c970007fe710864318d4a32f37d6ce54cb3fadbef648dd12d8dbdf53973564d56b7f881c556445d964b8007fa7c5ba7114a813b50159add3a36832908dc83db71d0b9a24c2ad0f83be958207819055640ba43b74007f9adb202b1492743bc00c81d33cdc6423fa8c79109027eb6a845391e8fc1f04818190556402540be4007fe0283e559c29e31ee7f56467acc9dd307779c843a883aeeb3bf5c6128c908144819055645d21dba0007ff4803e074bd026baaf6ed2e288c9515f68c72fb7216eebdd7cae1718a53ec37555644cd58864007f169f97de0d9a84d840042b17d3c6b9638b3d6fd9024c9eb0c7a306a17b49f88f55642794ca24007fa74ba3945261e09fde15ba3db55005b205e61eeb4ad811ac0faa2b315bffeead5564104c533c007f45f76dafbbad695564362934e24d72eedc57f9fc1a65f39bca62176cc8296828556404a817c8007f367ccd2d0ac16bf7110a5dffe0801fdc9452a95a1adb7e1a12fe97dd3e9a4edd557f6bda57492eba051cb4a12a1e19df47c9755d78165341d4009b1d09b3f361620455601060205264517da02c007f6e0956cda88cad152e89927e53611735b61a5c762d1428573c6931b0a5efcb01557f8c6065603763fec3f5742441d3833f3f43b982453612d76adb39a885e3006b5f91909155642e90edd0007f853b2fefe141400fef543280f93d98bd49996069f632d0d20236afeeed8e46a25564174876e8007fb3edd0d534d647cffdae9f1294f11ad21f3fcf2814bea44c92bbb8d384a57d9e5560046000527f1588ac671d87f82adc0e6ae8ab009c0de98f92a20243897597e566bc59b9c126558015610ab357600a805461ff00191690555050565b60606116418261193d565b61165d5760405162461bcd60e51b815260040161095490613104565b60008281526008602090815260409182902080548351601f60026000196101006001861615020190931692909204918201849004840281018401909452808452606093928301828280156116f25780601f106116c7576101008083540402835291602001916116f2565b820191906000526020600020905b8154815290600101906020018083116116d557829003601f168201915b505050505090506060611703610d4f565b905080516000141561171757509050610880565b815115611749578082604051602001611731929190612b03565b60405160208183030381529060405292505050610880565b8061175385611e0e565b604051602001611764929190612b03565b60405160208183030381529060405292505050919050565b6000818152600b60205260408120610adc906119bc565b610bcb60008051602061339e83398151915282610a6f565b600c6020526000908152604090208054600182015460028301546003909301549192909184565b6000828152600b60205260409020600201546117f09061063061194a565b610b2c5760405162461bcd60e51b815260040161095490612e26565b600d60209081526000938452604080852082529284528284208152908352918190208054825160026001831615610100026000190190921691909104601f8101859004850282018501909352828152929091908301828280156118b05780601f10611885576101008083540402835291602001916118b0565b820191906000526020600020905b81548152906001019060200180831161189357829003601f168201915b505050505081565b6001600160a01b03918216600090815260056020908152604080832093909416825291909152205460ff1690565b6000806118f283610edf565b600081815260126020908152604080832054878452600c909252909120600301549192509064e8d4a51000610e5061192d8362989680611c67565b6119378386611ee9565b90611ee9565b6000610adc600283611f11565b3390565b600081815260046020526040902080546001600160a01b0319166001600160a01b038416908117909155819061198382610c62565b6001600160a01b03167f8c5be1e5ebec7d5bd14f71427d1e84f3dd0314c0f7b2291e5b200ac8c7c3b92560405160405180910390a45050565b6000610adc82611f1d565b60006119d28261193d565b6119ee5760405162461bcd60e51b815260040161095490612da3565b60006119f983610c62565b9050806001600160a01b0316846001600160a01b03161480611a345750836001600160a01b0316611a298461092d565b6001600160a01b0316145b80611a445750611a4481856118b8565b949350505050565b826001600160a01b0316611a5f82610c62565b6001600160a01b031614611a855760405162461bcd60e51b8152600401610954906130bb565b6001600160a01b038216611aab5760405162461bcd60e51b815260040161095490612cf1565b611ab6838383610a0c565b611ac160008261194e565b6001600160a01b0383166000908152600160205260409020611ae39082611f21565b506001600160a01b0382166000908152600160205260409020611b069082611f2d565b50611b1360028284611f39565b5080826001600160a01b0316846001600160a01b03167fddf252ad1be2c89b69c2b068fc378daa952ba7f163c4a11628f55a4df523b3ef60405160405180910390a4505050565b6000828152600b60205260409020611b729082611f4f565b15610ab357611b7f61194a565b6001600160a01b0316816001600160a01b0316837f2f8788117e7eff1d82e926ec794901d17c78024a50270940304540a733656f0d60405160405180910390a45050565b6000610ad98383611f64565b6000828152600b60205260409020611be79082611fa9565b15610ab357611bf461194a565b6001600160a01b0316816001600160a01b0316837ff6391f5c32d9c69d2a47ea670b442974b53935d1edc7fd64eb21e047a839171b60405160405180910390a45050565b6000808080611c478686611fbe565b9097909650945050505050565b8051610ab39060099060208401906124f7565b600082611c7657506000610adc565b82820282848281611c8357fe5b0414610ad95760405162461bcd60e51b815260040161095490612fe2565b6000808211611cc25760405162461bcd60e51b815260040161095490612def565b818381611ccb57fe5b049392505050565b6000610c5884848461201a565b600082820183811015610ad95760405162461bcd60e51b815260040161095490612cba565b6000610ad9836001600160a01b038416612079565b610ab3828260405180602001604052806000815250612091565b611d3d8261193d565b611d595760405162461bcd60e51b81526004016109549061306f565b60008281526008602090815260409091208251610a0c928401906124f7565b611d83848484611a4c565b611d8f848484846120c4565b6111a25760405162461bcd60e51b815260040161095490612c31565b6000611db6306121a3565b15905090565b6000828152600b6020526040808220600201549051839285917fbd79b86ffe0ab8e8776151514217cd7cacd52c909f66475c3af44e129f0b00ff9190a46000918252600b602052604090912060020155565b606081611e3357506040805180820190915260018152600360fc1b6020820152610880565b8160005b8115611e4b57600101600a82049150611e37565b60608167ffffffffffffffff81118015611e6457600080fd5b506040519080825280601f01601f191660200182016040528015611e8f576020820181803683370190505b50859350905060001982015b8315611ee057600a840660300160f81b82828060019003935081518110611ebe57fe5b60200101906001600160f81b031916908160001a905350600a84049350611e9b565b50949350505050565b600082821115611f0b5760405162461bcd60e51b815260040161095490612d6c565b50900390565b6000610ad98383612079565b5490565b6000610ad983836121a9565b6000610ad9838361226f565b6000610c5884846001600160a01b0385166122b9565b6000610ad9836001600160a01b03841661226f565b81546000908210611f875760405162461bcd60e51b815260040161095490612ba0565b826000018281548110611f9657fe5b9060005260206000200154905092915050565b6000610ad9836001600160a01b0384166121a9565b815460009081908310611fe35760405162461bcd60e51b815260040161095490612f6b565b6000846000018481548110611ff457fe5b906000526020600020906002020190508060000154816001015492509250509250929050565b6000828152600184016020526040812054828161204a5760405162461bcd60e51b81526004016109549190612b8d565b5084600001600182038154811061205d57fe5b9060005260206000209060020201600101549150509392505050565b60009081526001919091016020526040902054151590565b61209b8383612350565b6120a860008484846120c4565b610a0c5760405162461bcd60e51b815260040161095490612c31565b60006120d8846001600160a01b03166121a3565b6120e457506001611a44565b606061216c630a85bd0160e11b6120f961194a565b88878760405160240161210f9493929190612b46565b604051602081830303815290604052906001600160e01b0319166020820180516001600160e01b03838183161783525050505060405180606001604052806032815260200161336c603291396001600160a01b0388169190612414565b905060008180602001905181019061218491906129c7565b6001600160e01b031916630a85bd0160e11b1492505050949350505050565b3b151590565b6000818152600183016020526040812054801561226557835460001980830191908101906000908790839081106121dc57fe5b90600052602060002001549050808760000184815481106121f957fe5b60009182526020808320909101929092558281526001898101909252604090209084019055865487908061222957fe5b60019003818190600052602060002001600090559055866001016000878152602001908152602001600020600090556001945050505050610adc565b6000915050610adc565b600061227b8383612079565b6122b157508154600181810184556000848152602080822090930184905584548482528286019093526040902091909155610adc565b506000610adc565b60008281526001840160205260408120548061231e575050604080518082018252838152602080820184815286546001818101895560008981528481209551600290930290950191825591519082015586548684528188019092529290912055610c5b565b8285600001600183038154811061233157fe5b9060005260206000209060020201600101819055506000915050610c5b565b6001600160a01b0382166123765760405162461bcd60e51b815260040161095490612fad565b61237f8161193d565b1561239c5760405162461bcd60e51b815260040161095490612c83565b6123a860008383610a0c565b6001600160a01b03821660009081526001602052604090206123ca9082611f2d565b506123d760028284611f39565b5060405181906001600160a01b038416906000907fddf252ad1be2c89b69c2b068fc378daa952ba7f163c4a11628f55a4df523b3ef908290a45050565b6060610c58848460008585612428856121a3565b6124445760405162461bcd60e51b81526004016109549061322c565b60006060866001600160a01b031685876040516124619190612ae7565b60006040518083038185875af1925050503d806000811461249e576040519150601f19603f3d011682016040523d82523d6000602084013e6124a3565b606091505b50915091506124b38282866124be565b979650505050505050565b606083156124cd575081610c5b565b8251156124dd5782518084602001fd5b8160405162461bcd60e51b81526004016109549190612b8d565b828054600181600116156101000203166002900490600052602060002090601f016020900481019282601f1061253857805160ff1916838001178555612565565b82800160010185558215612565579182015b8281111561256557825182559160200191906001019061254a565b50612571929150612575565b5090565b5b808211156125715760008155600101612576565b80356001600160a01b0381168114610adc57600080fd5b600082601f8301126125b1578081fd5b81356125c46125bf826132f4565b6132cd565b8181529150602080830190848101818402860182018710156125e557600080fd5b60005b84811015612604578135845292820192908201906001016125e8565b505050505092915050565b600082601f83011261261f578081fd5b813567ffffffffffffffff811115612635578182fd5b612648601f8201601f19166020016132cd565b915080825283602082850101111561265f57600080fd5b8060208401602084013760009082016020015292915050565b600060208284031215612689578081fd5b610ad9838361258a565b600080604083850312156126a5578081fd5b6126af848461258a565b91506126be846020850161258a565b90509250929050565b6000806000606084860312156126db578081fd5b83356126e681613340565b925060208401356126f681613340565b929592945050506040919091013590565b6000806000806080858703121561271c578081fd5b612726868661258a565b9350612735866020870161258a565b925060408501359150606085013567ffffffffffffffff811115612757578182fd5b6127638782880161260f565b91505092959194509250565b60008060408385031215612781578182fd5b61278b848461258a565b91506020830135801515811461279f578182fd5b809150509250929050565b600080604083850312156127bc578182fd5b6127c6848461258a565b946020939093013593505050565b6000806000606084860312156127e8578283fd5b833567ffffffffffffffff808211156127ff578485fd5b61280b878388016125a1565b94506020860135915080821115612820578384fd5b61282c878388016125a1565b93506040860135915080821115612841578283fd5b5061284e868287016125a1565b9150509250925092565b6000806000806080858703121561286d578384fd5b843567ffffffffffffffff80821115612884578586fd5b612890888389016125a1565b95506020915081870135818111156128a6578586fd5b6128b289828a016125a1565b9550506040870135818111156128c6578485fd5b6128d289828a016125a1565b9450506060870135818111156128e6578384fd5b87019050601f810188136128f8578283fd5b80356129066125bf826132f4565b81815283810190838501865b8481101561293b576129298d88843589010161260f565b84529286019290860190600101612912565b5050809550505050505092959194509250565b60006020828403121561295f578081fd5b5035919050565b60008060408385031215612978578182fd5b82359150602083013561279f81613340565b6000806040838503121561299c578182fd5b50508035926020909101359150565b6000602082840312156129bc578081fd5b8135610ad981613355565b6000602082840312156129d8578081fd5b8151610ad981613355565b6000602082840312156129f4578081fd5b813567ffffffffffffffff811115612a0a578182fd5b611a448482850161260f565b600080600060608486031215612a2a578081fd5b505081359360208301359350604090920135919050565b60008060008060808587031215612a56578182fd5b843593506020850135925060408501359150606085013567ffffffffffffffff811115612757578182fd5b600080600080600060a08688031215612a98578283fd5b505083359560208501359550604085013594606081013594506080013592509050565b60008151808452612ad3816020860160208601613314565b601f01601f19169290920160200192915050565b60008251612af9818460208701613314565b9190910192915050565b60008351612b15818460208801613314565b835190830190612b29818360208801613314565b01949350505050565b6001600160a01b0391909116815260200190565b6001600160a01b0385811682528416602082015260408101839052608060608201819052600090610e5090830184612abb565b901515815260200190565b90815260200190565b600060208252610ad96020830184612abb565b60208082526022908201527f456e756d657261626c655365743a20696e646578206f7574206f6620626f756e604082015261647360f01b606082015260800190565b6020808252602f908201527f416363657373436f6e74726f6c3a2073656e646572206d75737420626520616e60408201526e0818591b5a5b881d1bc819dc985b9d608a1b606082015260800190565b60208082526032908201527f4552433732313a207472616e7366657220746f206e6f6e20455243373231526560408201527131b2b4bb32b91034b6b83632b6b2b73a32b960711b606082015260800190565b6020808252601c908201527f4552433732313a20746f6b656e20616c7265616479206d696e74656400000000604082015260600190565b6020808252601b908201527f536166654d6174683a206164646974696f6e206f766572666c6f770000000000604082015260600190565b60208082526024908201527f4552433732313a207472616e7366657220746f20746865207a65726f206164646040820152637265737360e01b606082015260800190565b60208082526019908201527f4552433732313a20617070726f766520746f2063616c6c657200000000000000604082015260600190565b6020808252601e908201527f536166654d6174683a207375627472616374696f6e206f766572666c6f770000604082015260600190565b6020808252602c908201527f4552433732313a206f70657261746f7220717565727920666f72206e6f6e657860408201526b34b9ba32b73a103a37b5b2b760a11b606082015260800190565b6020808252601a908201527f536166654d6174683a206469766973696f6e206279207a65726f000000000000604082015260600190565b60208082526030908201527f416363657373436f6e74726f6c3a2073656e646572206d75737420626520616e60408201526f2061646d696e20746f207265766f6b6560801b606082015260800190565b60208082526038908201527f4552433732313a20617070726f76652063616c6c6572206973206e6f74206f7760408201527f6e6572206e6f7220617070726f76656420666f7220616c6c0000000000000000606082015260800190565b6020808252602a908201527f4552433732313a2062616c616e636520717565727920666f7220746865207a65604082015269726f206164647265737360b01b606082015260800190565b6020808252602e908201527f496e697469616c697a61626c653a20636f6e747261637420697320616c72656160408201526d191e481a5b9a5d1a585b1a5e995960921b606082015260800190565b60208082526022908201527f456e756d657261626c654d61703a20696e646578206f7574206f6620626f756e604082015261647360f01b606082015260800190565b6020808252818101527f4552433732313a206d696e7420746f20746865207a65726f2061646472657373604082015260600190565b60208082526021908201527f536166654d6174683a206d756c7469706c69636174696f6e206f766572666c6f6040820152607760f81b606082015260800190565b6020808252602c908201527f4552433732313a20617070726f76656420717565727920666f72206e6f6e657860408201526b34b9ba32b73a103a37b5b2b760a11b606082015260800190565b6020808252602c908201527f4552433732314d657461646174613a2055524920736574206f66206e6f6e657860408201526b34b9ba32b73a103a37b5b2b760a11b606082015260800190565b60208082526029908201527f4552433732313a207472616e73666572206f6620746f6b656e2074686174206960408201526839903737ba1037bbb760b91b606082015260800190565b6020808252602f908201527f4552433732314d657461646174613a2055524920717565727920666f72206e6f60408201526e3732bc34b9ba32b73a103a37b5b2b760891b606082015260800190565b60208082526021908201527f4552433732313a20617070726f76616c20746f2063757272656e74206f776e656040820152603960f91b606082015260800190565b60208082526027908201527f6c6576656c206d757374206c6172676572207468616e20302c206c6573736572604082015266207468616e203560c81b606082015260800190565b60208082526031908201527f4552433732313a207472616e736665722063616c6c6572206973206e6f74206f6040820152701ddb995c881b9bdc88185c1c1c9bdd9959607a1b606082015260800190565b6020808252601d908201527f416464726573733a2063616c6c20746f206e6f6e2d636f6e7472616374000000604082015260600190565b6020808252602f908201527f416363657373436f6e74726f6c3a2063616e206f6e6c792072656e6f756e636560408201526e103937b632b9903337b91039b2b63360891b606082015260800190565b93845260208401929092526040830152606082015260800190565b60405181810167ffffffffffffffff811182821017156132ec57600080fd5b604052919050565b600067ffffffffffffffff82111561330a578081fd5b5060209081020190565b60005b8381101561332f578181015183820152602001613317565b838111156111a25750506000910152565b6001600160a01b0381168114610bcb57600080fd5b6001600160e01b031981168114610bcb57600080fdfe4552433732313a207472616e7366657220746f206e6f6e20455243373231526563656976657220696d706c656d656e7465725eef2d0cdce42042b2a1881ea7f51ddbc3df94d471ed2a17f74c02f01f8301e34552433732313a206f776e657220717565727920666f72206e6f6e6578697374656e7420746f6b656ea26469706673582212205ac5f980e9f7349abcab4fe0fd62b01a7fe7ba4a7e052d6daeab6d663a4e9fbc64736f6c634300060c0033",
  "immutableReferences": {},
  "source": "// SPDX-License-Identifier: MIT\npragma experimental ABIEncoderV2;\npragma solidity 0.6.12;\n\nimport \"@openzeppelin/contracts/math/SafeMath.sol\";\nimport \"@openzeppelin/contracts/token/ERC721/ERC721.sol\";\nimport \"@openzeppelin/contracts/access/AccessControl.sol\";\nimport \"@openzeppelin/contracts/proxy/Initializable.sol\";\n\n// ZooNFT\ncontract ZooNFT is\n    ERC721(\"ZooNFT\", \"ZooNFT\"),\n    Initializable,\n    AccessControl\n{\n    using SafeMath for uint256;\n\n    struct TokenInfo {\n        uint256 level;\n        uint256 category;\n        uint256 item;\n        uint256 random;\n    }\n\n    // tokenId => tokenInfo\n    mapping(uint => TokenInfo) public tokenInfo;\n\n    // level => category => item => tokenURI\n    mapping(uint => mapping(uint => mapping(uint => string))) public nftURI;\n\n    // chance scaled 1e12\n    // level => chance\n    mapping(uint => uint) public LEVEL_CHANCE;         // 60%, 30%, 5%, 1%\n\n    mapping(uint => uint) public CATEGORY_CHANCE;      // 40%, 33%, 17%, 7%, 2%, 1%\n\n    mapping(uint => uint) public ITEM_CHANCE;          // 35%, 30%, 20%, 10%, 5%\n\n    // chance => boost\n    mapping(uint => uint) public boostMap;\n\n    // chance => lockTime reduce\n    mapping(uint => uint) public reduceMap;\n\n    // NFT item's total supply\n    mapping(uint => mapping(uint => mapping(uint => uint))) public itemSupply;\n\n    bytes32 public constant NFT_FACTORY_ROLE =\n        keccak256(\"FARMING_CONTRACT_ROLE\");\n\n    uint256 public constant MULTIPLIER_SCALE = 1e12;\n\n    function initialize(address admin) public payable initializer {\n        _setupRole(DEFAULT_ADMIN_ROLE, admin);\n        _setRoleAdmin(NFT_FACTORY_ROLE, DEFAULT_ADMIN_ROLE);\n\n        // 60%, 30%, 5%, 1%\n        LEVEL_CHANCE[0] = 6e11;\n        LEVEL_CHANCE[1] = 3e11;\n        LEVEL_CHANCE[2] = 5e10;\n        LEVEL_CHANCE[3] = 1e10;\n\n        // 40%, 33%, 17%, 7%, 2%, 1%\n        CATEGORY_CHANCE[0] = 4e11;\n        CATEGORY_CHANCE[1] = 33e10;\n        CATEGORY_CHANCE[2] = 17e10;\n        CATEGORY_CHANCE[3] = 7e10;\n        CATEGORY_CHANCE[4] = 2e10;\n        CATEGORY_CHANCE[5] = 1e10;\n\n        // 35%, 30%, 20%, 10%, 5%\n        ITEM_CHANCE[0] = 35e10;\n        ITEM_CHANCE[1] = 3e11;\n        ITEM_CHANCE[2] = 2e11;\n        ITEM_CHANCE[3] = 1e11;\n        ITEM_CHANCE[4] = 5e10;\n    }\n\n    function setNFTFactory(address _nftFactory) external {\n        grantRole(NFT_FACTORY_ROLE, _nftFactory);\n    }\n\n    function setBaseURI(string memory _baseURI) external {\n        require(hasRole(DEFAULT_ADMIN_ROLE, msg.sender));\n        _setBaseURI(_baseURI);\n    }\n\n    function setNftURI(\n        uint256 level,\n        uint256 category,\n        uint256 item,\n        string memory URI\n    ) external {\n        require(hasRole(DEFAULT_ADMIN_ROLE, msg.sender));\n        nftURI[level][category][item] = URI;\n    }\n\n    function setMultiNftURI(\n        uint256[] memory levels,\n        uint256[] memory categorys,\n        uint256[] memory items,\n        string[] memory URIs\n    ) external {\n        require(hasRole(DEFAULT_ADMIN_ROLE, msg.sender));\n        for (uint256 i = 0; i < levels.length; i++) {\n            nftURI[levels[i]][categorys[i]][items[i]] = URIs[i];\n        }\n    }\n\n    function getNftURI(\n        uint256 level,\n        uint256 category,\n        uint256 item\n    ) public view returns (string memory) {\n        return nftURI[level][category][item];\n    }\n\n    function setBoostMap(\n        uint256[] memory chances,\n        uint256[] memory boosts,\n        uint256[] memory reduces\n    ) external {\n        require(hasRole(DEFAULT_ADMIN_ROLE, msg.sender));\n        for (uint256 i = 0; i < chances.length; i++) {\n            boostMap[chances[i]] = boosts[i];\n            reduceMap[chances[i]] = reduces[i];\n        }\n    }\n\n    // Use for get boosting\n    // scale: 1e12\n    function getBoosting(uint256 _tokenId) external view returns (uint256) {\n        uint256 chance = getTokenChance(_tokenId);\n        uint256 boosting = boostMap[chance];\n        uint256 random = tokenInfo[_tokenId].random;\n        uint256 base = MULTIPLIER_SCALE;\n        return base.add(boosting).add(random.mul(1e7));\n    }\n\n    function getLockTimeReduce(uint256 _tokenId)\n        external\n        view\n        returns (uint256)\n    {\n        uint256 chance = getTokenChance(_tokenId);\n        uint256 reduce = reduceMap[chance];\n        uint256 random = tokenInfo[_tokenId].random;\n        uint256 base = MULTIPLIER_SCALE;\n        return base.sub(reduce).sub(random.mul(1e7));\n    }\n\n    function mint(\n        uint256 tokenId,\n        uint256 _level,\n        uint256 _category,\n        uint256 _item,\n        uint256 _random\n    ) external {\n        require(hasRole(NFT_FACTORY_ROLE, msg.sender));\n        _safeMint(msg.sender, tokenId);\n        require(\n            _level > 0 && _level < 5,\n            \"level must larger than 0, lesser than 5\"\n        );\n        tokenInfo[tokenId].level = _level;\n        tokenInfo[tokenId].category = _category;\n        tokenInfo[tokenId].item = _item;\n        tokenInfo[tokenId].random = _random;\n        _setTokenURI(tokenId, nftURI[_level][_category][_item]);\n        itemSupply[_level][_category][_item]++;\n    }\n\n    function getTokenChance(uint256 tokenId)\n        public\n        view\n        returns (uint256 chance)\n    {\n        return\n            getLevelChance(\n                tokenInfo[tokenId].level,\n                tokenInfo[tokenId].category,\n                tokenInfo[tokenId].item\n            );\n    }\n\n    function getLevelChance(\n        uint256 level,\n        uint256 category,\n        uint256 item\n    ) public view returns (uint256 chance) {\n        if (level == 0 || category == 0 || item == 0) {\n            return 0;\n        }\n        return\n            LEVEL_CHANCE[level - 1]\n                .mul(CATEGORY_CHANCE[category - 1]).div(1e12)\n                .mul(ITEM_CHANCE[item - 1]).div(1e12);\n    }\n}\n",
  "sourcePath": "/mnt/d/Zoo/zoo-keeper-contracts-main/contracts/NFT/ZooNFT.sol",
  "compiler": {
    "name": "solc",
    "version": "0.6.12+commit.27d51765.Emscripten.clang"
  },
  "schemaVersion": "3.3.4",
  "updatedAt": "2021-12-10T08:43:10.835Z",
  "networkType": "ethereum",
  "devdoc": {
    "kind": "dev",
    "methods": {
      "approve(address,uint256)": {
        "details": "See {IERC721-approve}."
      },
      "balanceOf(address)": {
        "details": "See {IERC721-balanceOf}."
      },
      "baseURI()": {
        "details": "Returns the base URI set via {_setBaseURI}. This will be automatically added as a prefix in {tokenURI} to each token's URI, or to the token ID if no specific URI is set for that token ID."
      },
      "getApproved(uint256)": {
        "details": "See {IERC721-getApproved}."
      },
      "getRoleAdmin(bytes32)": {
        "details": "Returns the admin role that controls `role`. See {grantRole} and {revokeRole}. To change a role's admin, use {_setRoleAdmin}."
      },
      "getRoleMember(bytes32,uint256)": {
        "details": "Returns one of the accounts that have `role`. `index` must be a value between 0 and {getRoleMemberCount}, non-inclusive. Role bearers are not sorted in any particular way, and their ordering may change at any point. WARNING: When using {getRoleMember} and {getRoleMemberCount}, make sure you perform all queries on the same block. See the following https://forum.openzeppelin.com/t/iterating-over-elements-on-enumerableset-in-openzeppelin-contracts/2296[forum post] for more information."
      },
      "getRoleMemberCount(bytes32)": {
        "details": "Returns the number of accounts that have `role`. Can be used together with {getRoleMember} to enumerate all bearers of a role."
      },
      "grantRole(bytes32,address)": {
        "details": "Grants `role` to `account`. If `account` had not been already granted `role`, emits a {RoleGranted} event. Requirements: - the caller must have ``role``'s admin role."
      },
      "hasRole(bytes32,address)": {
        "details": "Returns `true` if `account` has been granted `role`."
      },
      "isApprovedForAll(address,address)": {
        "details": "See {IERC721-isApprovedForAll}."
      },
      "name()": {
        "details": "See {IERC721Metadata-name}."
      },
      "ownerOf(uint256)": {
        "details": "See {IERC721-ownerOf}."
      },
      "renounceRole(bytes32,address)": {
        "details": "Revokes `role` from the calling account. Roles are often managed via {grantRole} and {revokeRole}: this function's purpose is to provide a mechanism for accounts to lose their privileges if they are compromised (such as when a trusted device is misplaced). If the calling account had been granted `role`, emits a {RoleRevoked} event. Requirements: - the caller must be `account`."
      },
      "revokeRole(bytes32,address)": {
        "details": "Revokes `role` from `account`. If `account` had been granted `role`, emits a {RoleRevoked} event. Requirements: - the caller must have ``role``'s admin role."
      },
      "safeTransferFrom(address,address,uint256)": {
        "details": "See {IERC721-safeTransferFrom}."
      },
      "safeTransferFrom(address,address,uint256,bytes)": {
        "details": "See {IERC721-safeTransferFrom}."
      },
      "setApprovalForAll(address,bool)": {
        "details": "See {IERC721-setApprovalForAll}."
      },
      "supportsInterface(bytes4)": {
        "details": "See {IERC165-supportsInterface}. Time complexity O(1), guaranteed to always use less than 30 000 gas."
      },
      "symbol()": {
        "details": "See {IERC721Metadata-symbol}."
      },
      "tokenByIndex(uint256)": {
        "details": "See {IERC721Enumerable-tokenByIndex}."
      },
      "tokenOfOwnerByIndex(address,uint256)": {
        "details": "See {IERC721Enumerable-tokenOfOwnerByIndex}."
      },
      "tokenURI(uint256)": {
        "details": "See {IERC721Metadata-tokenURI}."
      },
      "totalSupply()": {
        "details": "See {IERC721Enumerable-totalSupply}."
      },
      "transferFrom(address,address,uint256)": {
        "details": "See {IERC721-transferFrom}."
      }
    },
    "version": 1
  },
  "userdoc": {
    "kind": "user",
    "methods": {},
    "version": 1
  }
}